:040000000DEF00F010
:0400080059EF01F0BB
:10001800FF00DCEF01F0AA9AAC9847504A6E4650B0
:100028004E6E4AC54FF54E50FF084E6E4F50D8A041
:10003800E82A0F084F6EA4EF00F0560E4E5C050E2E
:100048004F58D8B02AEF00F02CEF00F02FEF00F057
:10005800456A49EF00F0AB0E4E5C0A0E4F58D8B017
:1000680038EF00F03AEF00F03EEF00F0010E456E79
:1000780049EF00F0100E4F5CD8B045EF00F047EFA5
:1000880000F03AEF00F0020E456E020E5A26000EFE
:100098005B22CAEF00F04EC52FF54FC530F52FC5CE
:1000A8004AF530C54BF5D8904B324A32D8904B328E
:1000B8004A324AC52FF54BC530F549EF00F04EC519
:1000C8002DF54FC52EF52DC54AF52EC54BF5040E59
:1000D8004C6ED8904B324A324C2E6DEF00F04AC528
:1000E8002DF54BC52EF5020E5A26000E5B22CAEFDF
:1000F80000F04EC519F54FC51AF51B6A1C6A19C5DB
:100108004AF51AC54BF51BC54CF51CC54DF5050E32
:1001180093EF00F0D8904D324C324B324A32E82EF1
:100128008EEF00F04AC519F54BC51AF54CC51BF5FD
:100138004DC51CF57A0E5A6E050E5B6ECAEF00F0BF
:100148005AC5D9F45BC5DAF4DEC4F6F4DDC4F7F4B5
:100158000800F5504A6E4B6A4B50000AD8B4B7EF06
:1001680000F0CAEF00F04A50100AD8B421EF00F0AE
:10017800010AD8B44FEF00F0030AD8B463EF00F0D7
:10018800010AD8B47DEF00F0CAEF00F0FF0E496E07
:10019800150E486EA6EC03F065EC04F0AB8812006F
:1001A80015C519F3B69E4550D8A4DDEF00F0DFEF72
:1001B80000F0EFEF00F04450020DB50EF324F66E98
:1001C8007D0EF420F76E0900F5C429F50A00F5C480
:1001D8002AF513EF01F04504D8A4F5EF00F0F7EF86
:1001E80000F007EF01F04450020DB70EF324F66E4D
:1001F8007E0EF420F76E0900F5C429F50A00F5C44F
:100208002AF513EF01F0020E4518D8A40EEF01F0FD
:1002180010EF01F013EF01F0030E2A6E2968800E2B
:100228004418D8A41AEF01F01CEF01F020EF01F0F8
:10023800010E436E36EF01F04450D8A426EF01F0CA
:1002480028EF01F036EF01F0436A4250D8A42FEFAF
:1002580001F031EF01F035EF01F0010E426E36EF9B
:1002680001F0426A4350D8A43CEF01F03EEF01F0A0
:1002780041EF01F0442A42EF01F044064204D8A4B9
:1002880048EF01F04AEF01F052EF01F02950FF0862
:10029800296E2A50D8A0E82A03082A6E29C548F5ED
:1002A8002AC549F561EC03F01200FAC450F5FBC405
:1002B80051F5F6C452F5F7C453F5F8C454F5F5C42E
:1002C80055F5D69EABAE6BEF01F06DEF01F078EF10
:1002D80001F0B6AE72EF01F074EF01F078EF01F0C3
:1002E80048EC03F09AEF01F0ABA87DEF01F07FEF47
:1002F80001F08AEF01F0B6A884EF01F086EF01F073
:100308008AEF01F02FEC03F09AEF01F0AAAA8FEF21
:1003180001F091EF01F09AEF01F0B5AA96EF01F024
:1003280098EF01F09AEF01F079EC03F0D68E55C5FD
:10033800F5F454C5F8F453C5F7F452C5F6F451C5AD
:10034800FBF450C5FAF411000001E86BEA0EF96FEE
:10035800030EFA6F000EFB6F050EF16F460EF06F7D
:10036800420EFD6F000EF86F020EF76F000EEF6F72
:10037800020EEE6F240EFF6F010EFE6FB59AB59850
:10038800B59EB59CAA8A1E0E0501826F000E836F6A
:1003980057EC04F0AA881E0E0501826F000E836FC9
:1003A80052EC04F0AA9EAA9CC00E0001FC6F120039
:1003B800100EF66E080EF76E000EF86E01EE72F172
:1003C80010EE10F00900F5C4EEF4E550E150FAE142
:1003D800D00EF66E080EF76E000EF86E0900F5C422
:1003E8005AF50900F5C45BF501EE01F1470EEE6A16
:1003F800E806FDE10401080E5D6F000E5E6F000E59
:100408005F6F000EF86E00010AEF02F016EC03F0C1
:10041800AA9AAC98AB88AB8ED68EFF0E0501836F77
:10042800150E826FFDEC02F010EC04F0000E306E39
:10043800000E2F6E010E456E03011B51F00B0A09C9
:100448001B6F0C0E156E000E166E000E176E000E4A
:10045800186E5CEC04F004002FEF02F00DEF00F0D2
:10046800BE6AC06A0401026B126B3B0EC66E0F0EA9
:10047800C86E370E006F0F0E106F016B116B370EC1
:10048800036F3F0E136F3F0E046F3F0E146F020190
:10049800896B886B020E4F6F090E036F0401056BA1
:1004A800066B076B156B166B176B12000301259112
:1004B800266B276B040E286F2469640E236F245162
:1004C8000501846F03012351216E84C522F5D40EE2
:1004D8000501826F080E836F25EC04F0000E0501FC
:1004E800826F000E836F2AEC04F0B798AC88010E77
:1004F8000301256F120003011491156B166B040E8E
:10050800176F1369640E126F13510501846F03018D
:100518001251256E84C526F5C60E0501826F050E9B
:10052800836F34EC04F0000E0501826F000E836FB8
:1005380039EC04F0B698AB88010E0301146F120071
:100548000301D96BDA6BDB6BDC6BDF6BE06BE56BA4
:10055800E76B100EEC6F820EEE6FEF6BF06B0F0E09
:10056800F16FF26B800EF46F100EF56FF66BF76B90
:10057800F86BF96B1F0EFA6F840EF36FB494B59095
:10058800A9941200D69AB490D680000E0501826F05
:10059800000E836F4DEC04F0B990D682000E050171
:1005A800826F000E836F48EC04F0BD90D684000E75
:1005B8000501826F000E836F43EC04F01200AB98C4
:1005C80062EC04F05AC5D9F45BC5DAF4DEC4F6F47B
:1005D800DDC4F7F40800F5501FEC04F0FF0E496E77
:1005E800140E486E91EC03F05FEC04F0AC88AA8A14
:1005F8001200030114A503EF03F005EF03F00FEF5A
:1006080003F01491050183510301136F82C512F39E
:10061800148115EF03F0050183510301136F82C59F
:1006280012F31200F3EC03F034EC02F0A4EC02F045
:10063800CEEC03F0A8EC01F0FEEC03F0E1EC03F0E3
:100648007FEC02F0BBEC03F05AEC02F0C6EC02F0CF
:1006580018EC04F01200B698050166516711D8B479
:1006680038EF03F03AEF03F047EF03F002D847EF13
:1006780003F00500FA6E6651FD6E6751FE6EF85084
:10068800FF6EFA5012001200B69E050168516911FA
:10069800D8B451EF03F053EF03F060EF03F002D842
:1006A80060EF03F00500FA6E6851FD6E6951FE6E49
:1006B800F850FF6EFA5012001200FF0E4816030E93
:1006C8004916030142A96BEF03F06DEF03F074EFD5
:1006D80003F0060ED89048364936E82E6EEF03F040
:1006E8004950416F48C540F31200B59A565057100B
:1006F800D8B481EF03F083EF03F090EF03F002D852
:1007080090EF03F00500FA6E5650FD6E5750FE6EDE
:10071800F850FF6EFA5012001200030125A597EF5A
:1007280003F099EF03F0A1EF03F025914950246FEE
:1007380048C523F32581A5EF03F04950246F48C528
:1007480023F31200030114A5ACEF03F0AEEF03F09E
:10075800B6EF03F014914950136F48C512F3148192
:10076800BAEF03F04950136F48C512F31200010E97
:100778000301206FA00E1F6F216B1D691C6BD20E29
:100788000501826F080E836F2FEC04F0800E0301C1
:100798001E6F12000001B46B070EB56F070EB66F1F
:1007A800070EB76F070EB86F070EB96F070EBE6F4B
:1007B800070EBF6FF46AF36A120003011969186B18
:1007C800400E1B6FA80E0501826F010E836F3EEC71
:1007D80004F0B69EAB8E800E03011A6F1200600EF5
:1007E8000001AD6FAF6BB36B080EB16FB06BC00E8D
:1007F800AC6F12009C0E0301426F416B406B4C5171
:10080800FC0B01094C6F1200FE7FFD7FFC7FFB7F14
:10081800FE7FFD7FFC7FFB7FD7AE15EF04F065EF11
:1008280004F0030114811200550E0001B46FAA0EE2
:10083800B46FB4811200486E48C5ECF30301F3812C
:10084800120082C562F583C563F5120082C560F5A2
:1008580083C561F5120082C56AF583C56BF5120080
:1008680082C566F583C567F5120082C564F583C540
:1008780065F5120082C568F583C569F5120082C561
:100888006CF583C56DF5120082C56EF583C56FF5ED
:10089800120082C570F583C571F5120082C558F53E
:1008A80083C559F5120082C556F583C557F5120060
:1008B80003011A8F1200030125811200030114910C
:0E08C80012000301148112007A0512001200C2
:107DB400000002040208020C021002140218021C41
:107DC400022002240228022C023002340238023C2F
:107DD400024002440248024C025002540258025C1F
:107DE400026002640268026C027002740278027C0F
:107DF400028002840288028C029002940298029CFF
:107E040002A002A402A802AC02B002B402B802BCEE
:107E140002C002C402C802CC02D002D402D802DCDE
:107E240002E002E402E802EC02F002F402F802FBCF
:107E340002FF02030307030B030F03130317031BC0
:107E4400031F03230327032B032F03330337033BAE
:107E5400033F03430347034B034F03530357035B9E
:107E6400035F03630367036B036F03730377037B8E
:107E7400037F03830387038B038F03930397039B7E
:107E8400039F03A303A703AB03AF03B303B703BB6E
:107E940003BF03C303C703CB03CF03D303D703DB5E
:107EA40003DF03E303E703EB03EF03F303F703FB4E
:107EB40003FF03000206020C02120219021F02252C
:107EC400022B02320238023E0244024B0251025794
:107ED400025D0263026902700276027C02820288F9
:107EE400028E0294029A02A002A602AC02B202B866
:107EF40002BD02C302C902CF02D502DA02E002E5E2
:107F040002EB02F102F602FC02010306030C031168
:107F14000316031C03210326032B03300335033A02
:107F2400033F03440349034E03520357035C0360B6
:107F340003650369036E03720376037A037F038385
:107F44000387038B038F03930397039A039E03A270
:107F540003A503A903AC03B003B303B603B903BD7C
:107F640003C003C303C603C803CB03CE03D103D3A7
:107F740003D603D803DA03DD03DF03E103E303E5F8
:107F840003E703E903EB03EC03EE03F003F103F36C
:107F940003F403F503F603F703F903F903FA03FB08
:107FA40003FC03FD03FD03FE03FE03FE03FF03FFC7
:107FB40003FF03FF03B404BE08000000004A0800E6
:107FC40000FE042008C408000068080000C207B8C6
:107FD40008000000007C0800007607000000000094
:107FE400005E080000080706050403020100000102
:0C7FF40004030201000001131211100030
:020000040030CA
:090000008C1D45F49FC7FFFFFFB2
:00000001FF
