:040000000DEF00F010
:04000800EEEF01F026
:10001800FF005CEF03F0040E0501B16116EF00F07C
:1000280018EF00F01CEF00F0B06BB12B1EEF00F0E2
:10003800010EB06FAA9AAC983B50036E3A50076E07
:1000480003C508F50750FF08076E0850D8A0E82A2E
:100058000F08086EB3EF00F0560E075C050E08583F
:10006800D8B039EF00F03BEF00F03EEF00F0756BD1
:1000780058EF00F0AB0E075C0A0E0858D8B047EFEF
:1000880000F049EF00F04DEF00F0010E756F58EFEA
:1000980000F0100E085CD8B054EF00F056EF00F0F6
:1000A80049EF00F0020E756F020E9927000E9A2391
:1000B800DCEF00F007C576F508C577F521EE76F197
:1000C800DEC403F5DDC404F5D89004320332D890B9
:1000D8000432033203C576F504C577F558EF00F00E
:1000E80007C57CF508C57DF521EE7CF1DEC403F576
:1000F800DDC404F5040E056ED89004320332052ED3
:1001080080EF00F003C57CF504C57DF558EF00F0DD
:1001180007C57EF508C57FF5806B816B7EC503F545
:100128007FC504F580C505F581C506F5050EA2EF66
:1001380000F0D8900632053204320332E82E9DEFE3
:1001480000F003C57EF504C57FF505C580F506C535
:1001580081F59F0E996F050E9A6FDCEF00F099C537
:10016800D9F49AC5DAF4DEC403F5DDC404F503C591
:10017800D9F404C5DAF4DF50056E066A0650000AA1
:10018800D8B4C9EF00F0DCEF00F00550100AD8B47D
:1001980030EF00F0010AD8B45EEF00F0030AD8B4DB
:1001A80074EF00F0010AD8B48CEF00F0DCEF00F037
:1001B800FF0E026E150E016EBCEC04F079EC05F032
:1001C800AB88120060C519F3B69E05017551D8A415
:1001D800F0EF00F0F2EF00F002EF01F08251020DB3
:1001E800C10EF324F66E7D0EF420F76E0900F5C4F7
:1001F80073F50A00F5C474F526EF01F07505D8A467
:1002080008EF01F00AEF01F01AEF01F08251020D38
:10021800C30EF324F66E7E0EF420F76E0900F5C4C3
:1002280073F50A00F5C474F526EF01F0020E75198E
:10023800D8A421EF01F023EF01F026EF01F0030E1F
:10024800746F7369800E8219D8A42DEF01F02FEF17
:1002580001F033EF01F0010E846F49EF01F0825194
:10026800D8A439EF01F03BEF01F049EF01F0846BBE
:100278008351D8A442EF01F044EF01F048EF01F0B8
:10028800010E836F49EF01F0836B8451D8A44FEFBF
:1002980001F051EF01F054EF01F0822B55EF01F01E
:1002A80082078305D8A45BEF01F05DEF01F065EFED
:1002B80001F07351FF08736F7451D8A0E82A03083E
:1002C800746F73C501F574C502F562EC04F0120091
:1002D80076C578F577C579F505017A6B7B6B78C5B6
:1002E8000FF579C510F57AC511F57BC512F5580ECD
:1002F800136E020E146E000E156E000E166E80EC54
:1003080002F00FC56EF510C56FF511C570F512C571
:1003180071F56EC51BF56FC51CF570C51DF571C56A
:100328001EF50B0E9DEF01F0D8901E321D321C32C7
:100338001B32E82E98EF01F01BC56EF51CC56FF552
:100348001DC570F51EC571F56EC56CF56FC56DF5EB
:1003580005016D5107E1740E6C5DD8B0B6EF01F080
:10036800B8EF01F0CCEF01F06C511B6E1C6A0C0E5B
:100378001B26000E1C221BC565F51CC566F5000E64
:1003880066BFFF0E676F686F010E696FEDEF01F0D2
:100398008D0E6C251F6EFF0E6D21206E1FC51BF57F
:1003A80020C51CF5070E1D6ED8901C321B321D2E61
:1003B800D8EF01F01B50726F7251800DF3501F245B
:1003C8001B6E1B50656F666B676B686B7251020F13
:1003D800696F1200FAC409F5FBC40AF5F6C40BF5F7
:1003E800F7C40CF5F8C40DF5F5C40EF5D69EABAE02
:1003F80000EF02F002EF02F00DEF02F0B6AE07EFE9
:1004080002F009EF02F00DEF02F04AEC04F02FEFD2
:1004180002F0ABA812EF02F014EF02F01FEF02F0A7
:10042800B6A819EF02F01BEF02F01FEF02F032EC52
:1004380004F02FEF02F0AAAA24EF02F026EF02F050
:100448002FEF02F0B5AA2BEF02F02DEF02F02FEFFD
:1004580002F07AEC04F0D68E0EC5F5F40DC5F8F46A
:100468000CC5F7F40BC5F6F40AC5FBF409C5FAF494
:10047800110005016405D8A444EF02F046EF02F02C
:100488004AEF02F069296A6F71EF02F0030E6419EE
:10049800D8A451EF02F053EF02F058EF02F069517F
:1004A800020F6A6F71EF02F0020E6419D8A45FEFB1
:1004B80002F061EF02F065EF02F069056A6F71EF13
:1004C80002F06451D8A46BEF02F06DEF02F071EF07
:1004D80002F069C56AF571EF02F0A70E6A25D96EB8
:1004E800DA6A050EDA22DF500F6E03011B510F186E
:1004F800F00B0F181B6F1200000E176E000E186E0F
:10050800000E196E000E1A6E0FA08DEF02F08FEF1D
:1005180002F097EF02F013501726145018221550C6
:10052800192216501A22D890133614361536163654
:10053800D8901232113210320F320F5010101110A1
:100548001210D8A4AAEF02F0ACEF02F088EF02F084
:1005580017C50FF518C510F519C511F51AC512F507
:10056800120019EC04F0AA9AAC98AB88AB8ED68E20
:10057800FF0E106E150E0F6E92EC04F029EC05F0CC
:10058800010E216ECAEF02F0B0C521F52150D8A4A2
:10059800D0EF02F0D2EF02F0C8EF02F06CEC01F0FD
:1005A80007EC05F070EC05F06CEC01F007EC05F0D9
:1005B8000400D8EF02F00DEF00F00001E86BEA0E3E
:1005C800F96F030EFA6F000EFB6F050EF16F3A0E0E
:1005D800F06F420EFD6F000EF86F020EF76F000EFF
:1005E800EF6F020EEE6F240EFF6F010EFE6FB59ACD
:1005F800B598B59EB59CAA8A1E0E0F6E000E106E99
:100608006BEC05F0AA88AA9EAA9CC00E0001FC6F9C
:1006180012000000000000000000000000000000C0
:1006280000000000000000010000000000000000C1
:1006380000000000000000000000000000000000B2
:1006480000000000000000000000009F05101112CB
:10065800139B059C059D059E0508070605040302D6
:1006680001000000BE6AC06A0401026B126B3B0EF7
:10067800C66E0F0EC86E370E006F0F0E106F016B2F
:10068800116B370E036F3F0E136F3F0E046F3F0E53
:10069800146F0201896B886B020E4F6F090E036F8E
:1006A8000401056B066B076B156B166B176B120055
:1006B8001A0EF66E060EF76E000EF86E01EE60F179
:1006C80010EE52F00900F5C4EEF4E550E150FAE1FD
:1006D80001EE22F11A0EEE6AE806FDE10401080EA9
:1006E8005D6F000E5E6F000E5F6F000EF86E00010A
:1006F800B5EF02F00301D96BDA6BDB6BDC6BDF6BF8
:10070800E06BE56BE76B100EEC6F820EEE6FEF6B34
:10071800F06B0F0EF16FF26B800EF46F100EF56F29
:10072800F66BF76BF86BF96B1F0EFA6F840EF36FAD
:10073800B494B590A994120003012591266B276BF8
:10074800040E286F2469640E236F2451116E2351FF
:10075800286E11C529F5FA0E0F6E0A0E106E3EECC2
:1007680005F0000E0F6E000E106E43EC05F0B79802
:10077800AC88010E0301256F120003011491156B5B
:10078800166B040E176F1369640E126F1351116EF6
:1007980012512E6E11C52FF5C40E0F6E070E106E76
:1007A8004DEC05F0000E0F6E000E106E52EC05F0C9
:1007B800B698AB88010E0301146F1200AB9876EC63
:1007C80005F099C5D9F49AC5DAF4DEC403F5DDC499
:1007D80004F503C5D9F404C5DAF4DF5038EC05F0A4
:1007E800FF0E026E140E016EA7EC04F073EC05F018
:1007F800AC88AA8A1200D69AB490D680000E0F6EE2
:10080800000E106E66EC05F0B990D682000E0F6EE1
:10081800000E106E61EC05F0BD90D684000E0F6ED0
:10082800000E106E5CEC05F0120014EC05F036ECCE
:1008380003F07EEC03F0D1EC04F0E1EC02F01FECE5
:1008480005F0F6EC04F0C1EC03F0E4EC04F0A0ECE5
:1008580003F0FFEC03F031EC05F01200B6984250BB
:100868004310D8B43AEF04F03CEF04F049EF04F039
:1008780002D849EF04F00500FA6E4250FD6E43506D
:10088800FE6EF850FF6EFA5012001200B69E4450E9
:100898004510D8B452EF04F054EF04F061EF04F0BF
:1008A80002D861EF04F00500FA6E4450FD6E455021
:1008B800FE6EF850FF6EFA5012001200FF0E01167D
:1008C800030E0216030142A96CEF04F06EEF04F068
:1008D80075EF04F0060ED89001360236E82E6FEF59
:1008E80004F00250416F01C540F31200B59A4E5012
:1008F8004F10D8B482EF04F084EF04F091EF04F0C5
:1009080002D891EF04F00500FA6E4E50FD6E4F507C
:10091800FE6EF850FF6EFA5012001200030114A583
:1009280098EF04F09AEF04F0A2EF04F0149110503D
:10093800136F0FC512F31481A6EF04F01050136F54
:100948000FC512F31200030125A5ADEF04F0AFEFB8
:1009580004F0B7EF04F025910250246F01C523F38A
:100968002581BBEF04F00250246F01C523F3120068
:10097800030114A5C2EF04F0C4EF04F0CCEF04F0B7
:1009880014910250136F01C512F31481D0EF04F0D3
:100998000250136F01C512F312000001B46B070E69
:1009A800B56F070EB66F070EB76F070EB86F070E55
:1009B800B96F070EBE6F070EBF6FF46AF36A1200B5
:1009C800010E0301206FA00E1F6F216B1D691C6BA8
:1009D800F80E0F6E0A0E106E48EC05F0800E03013B
:1009E8001E6F120003011969186B400E1B6FCC0EA5
:1009F8000F6E010E106E57EC05F0B69EAB8E800E92
:100A080003011A6F120065C560F566C561F567C513
:100A180062F568C563F50501646B3DEC02F01200F0
:100A2800600E0001AD6FAF6BB36B080EB16FB06BAA
:100A3800C00EAC6F12009C0E0301426F416B406BFD
:100A48004C51FC0B01094C6F1200D7AE2EEF05F08C
:100A580079EF05F0030114811200550E0001B46FFF
:100A6800AA0EB46FB4811200016E01C5ECF3030144
:100A7800F38112000FC53EF510C53FF512000FC5F2
:100A88003CF510C53DF512000FC546F510C547F5F4
:100A980012000FC542F510C543F512000FC540F509
:100AA80010C541F512000FC544F510C545F51200F3
:100AB8000FC548F510C549F512000FC54AF510C510
:100AC8004BF512000FC54CF510C54DF512000FC5BA
:100AD8004EF510C54FF5120003011A8F12000301DD
:100AE80025811200030114911200030114811200E0
:040AF80012001200D6
:107DC000000002040208020C021002140218021C35
:107DD000022002240228022C023002340238023C23
:107DE000024002440248024C025002540258025C13
:107DF000026002640268026C027002740278027C03
:107E0000028002840288028C029002940298029CF2
:107E100002A002A402A802AC02B002B402B802BCE2
:107E200002C002C402C802CC02D002D402D802DCD2
:107E300002E002E402E802EC02F002F402F802FBC3
:107E400002FF02030307030B030F03130317031BB4
:107E5000031F03230327032B032F03330337033BA2
:107E6000033F03430347034B034F03530357035B92
:107E7000035F03630367036B036F03730377037B82
:107E8000037F03830387038B038F03930397039B72
:107E9000039F03A303A703AB03AF03B303B703BB62
:107EA00003BF03C303C703CB03CF03D303D703DB52
:107EB00003DF03E303E703EB03EF03F303F703FB42
:107EC00003FF03000206020C02120219021F022520
:107ED000022B02320238023E0244024B0251025788
:107EE000025D0263026902700276027C02820288ED
:107EF000028E0294029A02A002A602AC02B202B85A
:107F000002BD02C302C902CF02D502DA02E002E5D5
:107F100002EB02F102F602FC02010306030C03115C
:107F20000316031C03210326032B03300335033AF6
:107F3000033F03440349034E03520357035C0360AA
:107F400003650369036E03720376037A037F038379
:107F50000387038B038F03930397039A039E03A264
:107F600003A503A903AC03B003B303B603B903BD70
:107F700003C003C303C603C803CB03CE03D103D39B
:107F800003D603D803DA03DD03DF03E103E303E5EC
:107F900003E703E903EB03EC03EE03F003F103F360
:107FA00003F403F503F603F703F903F903FA03FBFC
:107FB00003FC03FD03FD03FE03FE03FE03FF03FFBB
:107FC00003FF03FF034007E60A000000007C0A00ED
:107FD000008207520AEC0A00009A0A0000EC09E04D
:107FE0000A00000000AE0A0000C8090000000000FE
:0F7FF00000900A000000010403020100000100DC
:020000040030CA
:090000008C1D45F49FC7FFFFFFB2
:00000001FF
