:040000000DEF00F010
:0400080033EF01F0E1
:10001800FF00EAEF01F0C08A000E486E000E476E3E
:10002800000E486E000E476E474A482AE80E475CA5
:10003800030E4858D8A023EF00F025EF00F018EF82
:1000480000F04250456E4150496E45C54AF5495049
:10005800FF08496E4A50D8A0E82A0F084A6E53C5CF
:10006800D9F454C5DAF45A50DE18D8A43EEF00F09B
:1000780040EF00F06DEF00F0560E495C050E4A584F
:10008800D8B049EF00F04BEF00F04FEF00F0000E52
:10009800406E69EF00F0AB0E495C0A0E4A58D8B0C2
:1000A80058EF00F05AEF00F05EEF00F0010E406EDE
:1000B80069EF00F0100E4A5CD8B065EF00F067EF0A
:1000C80000F05AEF00F0020E406E534A542AA2EF95
:1000D80000F053C5D9F454C5DAF45950DE18D8A441
:1000E80078EF00F07AEF00F080EF00F049C52BF5CB
:1000F8004AC52CF569EF00F053C5D9F454C5DAF4B4
:100108005850DE18D8A48BEF00F08DEF00F08FEF79
:1001180000F069EF00F053C5D9F454C5DAF457502C
:10012800DE18D8A49AEF00F09CEF00F0A2EF00F0E0
:1001380074C553F575C554F5A2EF00F0FF0E446E73
:10014800AA0E436E3EEC04F0F2EC04F0C09A1200E2
:1001580015C519F3B69E4050D8A4B5EF00F0B7EF17
:1001680000F0C7EF00F03F50020DB90EF324F66E11
:100178007D0EF420F76E0900F5C427F50A00F5C4D2
:1001880028F5EBEF00F04004D8A4CDEF00F0CFEF56
:1001980000F0DFEF00F03F50020DBB0EF324F66EC7
:1001A8007E0EF420F76E0900F5C427F50A00F5C4A1
:1001B80028F5EBEF00F0020E4018D8A4E6EF00F0A7
:1001C800E8EF00F0EBEF00F0030E286E2768800ED2
:1001D8003F18D8A4F2EF00F0F4EF00F0F8EF00F0C9
:1001E800010E3E6E10EF01F03F50D8A4FEEF00F074
:1001F80000EF01F010EF01F0000E3E6E3D50D8A464
:1002080008EF01F00AEF01F00EEF01F0010E3D6E6C
:1002180010EF01F0000E3D6E3E50D8A416EF01F02D
:1002280018EF01F01BEF01F03F2A1CEF01F03F0629
:100238003D04D8A422EF01F024EF01F02CEF01F0E7
:100248002750FF08276E2850D8A0E82A0308286EF0
:1002580027C543F528C544F5E6EC03F01200FAC4B7
:100268004BF5FBC44CF5F6C44DF5F7C44EF5F8C490
:100278004FF5F5C450F5D69EABAE45EF01F047EF0C
:1002880001F052EF01F0B6AE4CEF01F04EEF01F085
:1002980052EF01F0B4EC03F088EF01F0AAAA57EF8F
:1002A80001F059EF01F064EF01F0B5AA5EEF01F03B
:1002B80060EF01F064EF01F0CDEC03F088EF01F09E
:1002C800ABA869EF01F06BEF01F076EF01F0B6A88B
:1002D80070EF01F072EF01F076EF01F09BEC03F0A4
:1002E80088EF01F0ACA87BEF01F07DEF01F088EF1B
:1002F80001F0B7A882EF01F084EF01F088EF01F078
:1003080082EC03F088EF01F0D68E50C5F5F44FC5A6
:10031800F8F44EC5F7F44DC5F6F44CC5FBF44BC5DF
:10032800FAF41100EFEC04F055C5D9F456C5DAF427
:100338005A50DE18D8A4A3EF01F0A5EF01F0ACEFF6
:1003480001F05A5066EC04F0554A562AE0EF01F0E5
:1003580055C5D9F456C5DAF45950DE18D8A4B7EF04
:1003680001F0B9EF01F0BEEF01F0595066EC04F06E
:10037800A8EF01F055C5D9F456C5DAF45850DE187F
:10038800D8A4C9EF01F0CBEF01F0CDEF01F0A8EF51
:1003980001F055C5D9F456C5DAF45750DE18D8A47B
:1003A800D8EF01F0DAEF01F0E0EF01F07CC555F588
:1003B8007DC556F5E0EF01F0FF0E446EAA0E436EC0
:1003C80029EC04F0ECEC04F0C0881200360EF66E4E
:1003D800090EF76E000EF86E01EE74F110EE10F0D3
:1003E8000900F5C4EEF4E550E150FAE1EA0EF66EC4
:1003F800090EF76E000EF86E01EE57F110EE04F0DC
:100408000900F5C4EEF4E550E150FAE10501876B07
:10041800866B856B846B01EE01F1420EEE6AE8068D
:10042800FDE10401080E5D6F000E5E6F000E5F6F48
:10043800000EF86E0001BDEF02F0000E0001E86F3B
:10044800EA0EF96F030EFA6F000EFB6F050EF16FDF
:10045800410EF06F420EFD6F000EF86F020EF76F3F
:10046800000EEF6F020EEE6F240EFF6F010EFE6F8F
:10047800B59AB598B59EB59CAA8A1E0E0501886FD7
:10048800000E896FE4EC04F0AA881E0E0501886F3F
:10049800000E896FDFEC04F0AA9EAA9CC00E000132
:1004A800FC6F1200000EBE6E000EC06E000E04013E
:1004B800026F000E126F3B0EC66E0F0EC86E370E1F
:1004C800006F0F0E106F000E016F000E116F370EC8
:1004D800036F3F0E136F3F0E046F3F0E146F000E35
:1004E8000201896F000E886F020E4F6F090E036FAD
:1004F800000E0401056F000E066F000E076F000E58
:10050800156F000E166F000E176F1200000E030114
:10051800D96F000EDA6F000EDB6F000EDC6F000E75
:10052800DF6F000EE06F000EE56F000EE76F100E34
:10053800EC6F820EEE6F000EEF6F000EF06F0F0E75
:10054800F16F000EF26F800EF46F100EF56F000E53
:10055800F66F000EF76F000EF86F000EF96F1F0EA2
:10056800FA6F840EF36FD88FF39DB494B590A99465
:10057800120069EC03F07CC555F57DC556F574C5C8
:1005880053F575C554F5FF0E0501896FAA0E886FDE
:1005980050EC03F0A3EC04F003011B51F00B040929
:1005A8001B6F640E156E000E166E000E176E000E91
:1005B800186EE9EC04F0D68E0400E0EF02F00DEFBF
:1005C80000F003012591000E266F000E276F040E20
:1005D800286F2469AA0E236F245105018A6F03012D
:1005E80023511D6E8AC51EF5EE0E0501886F090E92
:1005F800896FB2EC04F0000E0501886F000E896F58
:10060800B7EC04F0B798AC88350E0301256F1200DB
:1006180003011491000E156F000E166F040E176F6C
:100628001369AA0E126F135105018A6F0301125143
:10063800216E8AC522F52C0E0501886F030E896F7D
:10064800C1EC04F0000E0501886F000E896FC6EC3E
:1006580004F0B698AB88350E0301146F1200D69AD1
:10066800B490D680000E0501886F000E896FDAEC11
:1006780004F0B990D682000E0501886F000E896FCC
:10068800D5EC04F0BD90D684000E0501886F000EED
:10069800896FD0EC04F01200030114A556EF03F0A3
:1006A80058EF03F062EF03F014910501895103013B
:1006B800136F88C512F3148168EF03F0050189519F
:1006C8000301136F88C512F3120076EC04F056ECA0
:1006D80002F08AEC02F0FEEC03F021EC02F084EC6C
:1006E80004F053EC04F00CEC03F014EC04F0E5EC2B
:1006F80002F033EC03F0ABEC04F01200B7980501FC
:1007080062516311D8B48BEF03F08DEF03F09AEFC9
:1007180003F002D89AEF03F00500FA6E6251FD6EFD
:100728006351FE6EF850FF6EFA5012001200B69830
:10073800050166516711D8B4A4EF03F0A6EF03F0E2
:10074800B3EF03F002D8B3EF03F00500FA6E665179
:10075800FD6E6751FE6EF850FF6EFA5012001200DF
:10076800B69E050168516911D8B4BDEF03F0BFEF1B
:1007780003F0CCEF03F002D8CCEF03F00500FA6EDB
:100788006851FD6E6951FE6EF850FF6EFA50120006
:100798001200B59A050172517311D8B4D6EF03F05F
:1007A800D8EF03F0E5EF03F002D8E5EF03F005001A
:1007B800FA6E7251FD6E7351FE6EF850FF6EFA506C
:1007C80012001200FF0E4316030E4416030142A93D
:1007D800F0EF03F0F2EF03F0F9EF03F0060ED89014
:1007E80043364436E82EF3EF03F04450416F43C5D7
:1007F80040F31200000E0001B46F070EB56F070E2C
:10080800B66F070EB76F070EB86F070EB96F070EF2
:10081800BE6F070EBF6F000EF46E000EF36E12006F
:10082800010E0301206FA00E1F6F000E216F1D69BE
:10083800000E1C6FF20E0501886F090E896FBCEC63
:1008480004F0800E03011E6F1200030125A52FEF8F
:1008580004F031EF04F039EF04F025914450246F8F
:1008680043C523F325813DEF04F04450246F43C56D
:1008780023F31200030114A544EF04F046EF04F03B
:100888004EEF04F014914450136F43C512F31481D2
:1008980052EF04F04450136F43C512F312000301E2
:1008A8001969000E186F400E1B6F580E0501886FEE
:1008B800010E896FCBEC04F0B69EAB8E800E03015F
:1008C8001A6F1200436E90EC04F00009D8B46FEF71
:1008D80004F071EF04F067EF04F043C5ECF3030193
:1008E800F3811200600E0001AD6F000EAF6F000EB5
:1008F800B36F080EB16F000EB06FC00EAC6F120070
:100908009C0E0301426F000E416F000E406F4C5168
:10091800FC0B01094C6F12000301F3A196EF04F0E0
:1009280099EF04F0010E9AEF04F0000E12005A0538
:100938005905580557055A05590558055705D7AE9D
:10094800A8EF04F0F2EF04F0030114811200550E31
:100958000001B46FAA0EB46FB481120088C562F5A5
:1009680089C563F5120088C560F589C561F512006F
:1009780088C56AF589C56BF5120088C566F589C50D
:1009880067F5120088C564F589C565F5120088C544
:1009980068F589C569F5120088C56CF589C56DF5D6
:1009A800120088C56EF589C56FF5120088C570F507
:1009B80089C571F5120088C551F589C552F512002F
:1009C80088C572F589C573F5120003011A8F1200E4
:1009D80003012581120003011491120003011481FF
:0C09E800120013121110C098120012002F
:107DB800000002040208020C021002140218021C3D
:107DC800022002240228022C023002340238023C2B
:107DD800024002440248024C025002540258025C1B
:107DE800026002640268026C027002740278027C0B
:107DF800028002840288028C029002940298029CFB
:107E080002A002A402A802AC02B002B402B802BCEA
:107E180002C002C402C802CC02D002D402D802DCDA
:107E280002E002E402E802EC02F002F402F802FBCB
:107E380002FF02030307030B030F03130317031BBC
:107E4800031F03230327032B032F03330337033BAA
:107E5800033F03430347034B034F03530357035B9A
:107E6800035F03630367036B036F03730377037B8A
:107E7800037F03830387038B038F03930397039B7A
:107E8800039F03A303A703AB03AF03B303B703BB6A
:107E980003BF03C303C703CB03CF03D303D703DB5A
:107EA80003DF03E303E703EB03EF03F303F703FB4A
:107EB80003FF03000206020C02120219021F022528
:107EC800022B02320238023E0244024B0251025790
:107ED800025D0263026902700276027C02820288F5
:107EE800028E0294029A02A002A602AC02B202B862
:107EF80002BD02C302C902CF02D502DA02E002E5DE
:107F080002EB02F102F602FC02010306030C031164
:107F18000316031C03210326032B03300335033AFE
:107F2800033F03440349034E03520357035C0360B2
:107F380003650369036E03720376037A037F038381
:107F48000387038B038F03930397039A039E03A26C
:107F580003A503A903AC03B003B303B603B903BD78
:107F680003C003C303C603C803CB03CE03D103D3A3
:107F780003D603D803DA03DD03DF03E103E303E5F4
:107F880003E703E903EB03EC03EE03F003F103F368
:107F980003F403F503F603F703F903F903FA03FB04
:107FA80003FC03FD03FD03FE03FE03FE03FF03FFC3
:107FB80003FF03FF03CA05D8090000000064090095
:107FC8000018064609DE09000082090000A608D24A
:107FD80009000000009609000028080000000000C1
:107FE80000780900000807060504030201000001E3
:087FF800040302010000010076
:020000040030CA
:090000008C1D45F49FC7FFFFFFB2
:00000001FF
