:040000000DEF00F010
:0400080096EF00F07F
:10001800FF002AEF01F015C519F3B69E4050D8A489
:1000280018EF00F01AEF00F02AEF00F03F50020D31
:10003800B90EF324F66E7D0EF420F76E0900F5C4B0
:1000480029F50A00F5C42AF54EEF00F04004D8A4BB
:1000580030EF00F032EF00F042EF00F03F50020DB9
:10006800BB0EF324F66E7E0EF420F76E0900F5C47D
:1000780029F50A00F5C42AF54EEF00F0020E4018E3
:10008800D8A449EF00F04BEF00F04EEF00F0030E5C
:100098002A6E2968800E3F18D8A455EF00F057EF54
:1000A80000F05BEF00F0010E3E6E73EF00F03F5082
:1000B800D8A461EF00F063EF00F073EF00F0000EDA
:1000C8003E6E3D50D8A46BEF00F06DEF00F071EF7D
:1000D80000F0010E3D6E73EF00F0000E3D6E3E50D5
:1000E800D8A479EF00F07BEF00F07EEF00F03F2A14
:1000F8007FEF00F03F063D04D8A485EF00F087EFBE
:1001080000F08FEF00F02950FF08296E2A50D8A080
:10011800E82A03082A6E29C543F52AC544F50DECDB
:1001280003F01200FAC449F5FBC44AF5F6C44BF5CE
:10013800F7C44CF5F8C44DF5F5C44EF5D69EABAEF4
:10014800A8EF00F0AAEF00F0B5EF00F0B6AEAFEF01
:1001580000F0B1EF00F0B5EF00F0F4EC02F0D7EFEB
:1001680000F0AAAABAEF00F0BCEF00F0C7EF00F069
:10017800B5AAC1EF00F0C3EF00F0C7EF00F025EC1F
:1001880003F0D7EF00F0ABA8CCEF00F0CEEF00F013
:10019800D7EF00F0B6A8D3EF00F0D5EF00F0D7EF17
:1001A80000F0DBEC02F0D68E4EC5F5F44DC5F8F440
:1001B8004CC5F7F44BC5F6F44AC5FBF449C5FAF447
:1001C80011004250456E4150476E45C548F56EC511
:1001D800D9F46FC5DAF45A50DE18D8A4F6EF00F057
:1001E800F8EF00F021EF01F0560E475C050E485875
:1001F800D8B001EF01F003EF01F007EF01F0000EB6
:10020800406E21EF01F0AB0E475C0A0E4858D8B09B
:1002180010EF01F012EF01F016EF01F0010E406E41
:1002280021EF01F0100E485CD8B01DEF01F01FEF70
:1002380001F012EF01F0020E406EFF0E446EAA0E9E
:10024800436E7DEC03F01CEC04F012007E0EF66E9B
:10025800070EF76E000EF86E01EE72F110EE10F058
:100268000900F5C4EEF4E550E150FAE13E0EF66EF1
:10027800080EF76E000EF86E01EE57F110EE04F05E
:100288000900F5C4EEF4E550E150FAE10501856B8B
:10029800846B836B826B01EE01F1420EEE6AE80615
:1002A800FDE10401080E5D6F000E5E6F000E5F6FCA
:1002B800000EF86E0001FBEF01F0000E0001E86F80
:1002C800EA0EF96F030EFA6F000EFB6F050EF16F61
:1002D800410EF06F420EFD6F000EF86F020EF76FC1
:1002E800000EEF6F020EEE6F240EFF6F010EFE6F11
:1002F800B59AB598B59EB59CAA8ACA0E0501866FAF
:10030800010E876F0EEC04F0AA88CA0E0501866FED
:10031800010E876F09EC04F0AA9EAA9CC00E00018A
:10032800FC6F1200000EBE6E000EC06E000E0401BF
:10033800026F000E126F3B0EC66E0F0EC86E370EA0
:10034800006F0F0E106F000E016F000E116F370E49
:10035800036F3F0E136F3F0E046F3F0E146F000EB6
:100368000201896F000E886F020E4F6F090E036F2E
:10037800000E0401056F000E066F000E076F000ED9
:10038800156F000E166F000E176F1200000E030196
:10039800D96F000EDA6F000EDB6F000EDC6F000EF7
:1003A800DF6F000EE06F000EE56F000EE76F100EB6
:1003B800EC6F820EEE6F000EEF6F000EF06F0F0EF7
:1003C800F16F000EF26F800EF46F100EF56F000ED5
:1003D800F66F000EF76F000EF86F000EF96F1F0E24
:1003E800FA6F840EF36FB494B590A9941200C2EC1E
:1003F80002F07AC570F57BC571F572C56EF573C5E7
:100408006FF5FF0E0501876FAA0E866FA9EC02F043
:10041800C7EC03F003011B51F00B04091B6F640EBA
:10042800156E000E166E000E176E000E186E13EC89
:1004380004F0D68E04001EEF02F00DEF00F0030169
:100448002591000E266F000E276F040E286F246971
:10045800AA0E236F24510501886F030123511F6ED3
:1004680088C520F5440E0501866F080E876FDCEC01
:1004780003F0000E0501866F000E876FE1EC03F0B4
:10048800B798AC88350E0301256F1200030114914B
:10049800000E156F000E166F040E176F1369AA0E63
:1004A800126F13510501886F03011251236E88C51D
:1004B80024F51C0E0501866F050E876FEBEC03F023
:1004C800000E0501866F000E876FF0EC03F0B698FA
:1004D800AB88350E0301146F1200D69AB490D680FB
:1004E800000E0501866F000E876F04EC04F0B990CA
:1004F800D682000E0501866F000E876FFFEC03F0B1
:10050800BD90D684000E0501866F000E876FFAEC49
:1005180003F0120019EC04F070C5D9F471C5DAF4CF
:100528005A50DE18D8A49BEF02F09DEF02F0A0EF1E
:1005380002F05A50D6EC03F0FF0E446EAA0E436E3A
:1005480068EC03F016EC04F01200030114A5AFEFF9
:1005580002F0B1EF02F0BBEF02F0149105018751F0
:100568000301136F86C512F31481C1EF02F0050170
:1005780087510301136F86C512F31200A5EC03F02F
:1005880096EC01F0CAEC01F03DEC03F061EC01F0EF
:10059800B3EC03F092EC03F04AEC02F053EC03F0F6
:1005A80023EC02F071EC02F0CFEC03F01200B698E5
:1005B800050166516711D8B4E4EF02F0E6EF02F0E6
:1005C800F3EF02F002D8F3EF02F00500FA6E66517D
:1005D800FD6E6751FE6EF850FF6EFA501200120061
:1005E800B69E050168516911D8B4FDEF02F0FFEF1E
:1005F80002F00CEF03F002D80CEF03F00500FA6EDE
:100608006851FD6E6951FE6EF850FF6EFA50120087
:100618001200FF0E4316030E4416030142A917EFFA
:1006280003F019EF03F020EF03F0060ED8904336DD
:100638004436E82E1AEF03F04450416F43C540F3A7
:100648001200B59A53505410D8B42DEF03F02FEF81
:1006580003F03CEF03F002D83CEF03F00500FA6E1C
:100668005350FD6E5450FE6EF850FF6EFA50120053
:100678001200000E0001B46F070EB56F070EB66FBB
:10068800070EB76F070EB86F070EB96F070EBE6F6C
:10069800070EBF6F000EF46E000EF36E1200010E0F
:1006A8000301206FA00E1F6F000E216F1D69000E41
:1006B8001C6F420E0501866F080E876FE6EC03F08B
:1006C800800E03011E6F1200030125A56EEF03F0D3
:1006D80070EF03F078EF03F025914450246F43C581
:1006E80023F325817CEF03F04450246F43C523F3A3
:1006F8001200030114A583EF03F085EF03F08DEFDB
:1007080003F014914450136F43C512F3148191EF11
:1007180003F04450136F43C512F312000301196923
:10072800000E186F400E1B6F1E0E0501866F000E1F
:10073800876FF5EC03F0B69EAB8E800E03011A6F3F
:100748001200600E0001AD6F000EAF6F000EB36FA8
:10075800080EB16F000EB06FC00EAC6F12009C0E89
:100768000301426F000E416F000E406F4C51FC0BAD
:1007780001094C6F12005A055905580557055A05C5
:10078800590558055705D7AECCEF03F01CEF04F018
:10079800030114811200550E0001B46FAA0EB46F44
:1007A800B4811200436E43C5ECF30301F3811200D8
:1007B80086C562F587C563F5120086C560F587C5ED
:1007C80061F5120086C56AF587C56BF5120086C506
:1007D80066F587C567F5120086C564F587C565F5B2
:1007E800120086C568F587C569F5120086C56CF5DF
:1007F80087C56DF5120086C54FF587C550F51200FF
:1008080086C551F587C552F5120086C555F587C5C9
:1008180056F5120086C553F587C554F51200030135
:100828001A8F12000301258112000301149112008E
:0E08380003011481120013121110120012009D
:107DB800000002040208020C021002140218021C3D
:107DC800022002240228022C023002340238023C2B
:107DD800024002440248024C025002540258025C1B
:107DE800026002640268026C027002740278027C0B
:107DF800028002840288028C029002940298029CFB
:107E080002A002A402A802AC02B002B402B802BCEA
:107E180002C002C402C802CC02D002D402D802DCDA
:107E280002E002E402E802EC02F002F402F802FBCB
:107E380002FF02030307030B030F03130317031BBC
:107E4800031F03230327032B032F03330337033BAA
:107E5800033F03430347034B034F03530357035B9A
:107E6800035F03630367036B036F03730377037B8A
:107E7800037F03830387038B038F03930397039B7A
:107E8800039F03A303A703AB03AF03B303B703BB6A
:107E980003BF03C303C703CB03CF03D303D703DB5A
:107EA80003DF03E303E703EB03EF03F303F703FB4A
:107EB80003FF03000206020C02120219021F022528
:107EC800022B02320238023E0244024B0251025790
:107ED800025D0263026902700276027C02820288F5
:107EE800028E0294029A02A002A602AC02B202B862
:107EF80002BD02C302C902CF02D502DA02E002E5DE
:107F080002EB02F102F602FC02010306030C031164
:107F18000316031C03210326032B03300335033AFE
:107F2800033F03440349034E03520357035C0360B2
:107F380003650369036E03720376037A037F038381
:107F48000387038B038F03930397039A039E03A26C
:107F580003A503A903AC03B003B303B603B903BD78
:107F680003C003C303C603C803CB03CE03D103D3A3
:107F780003D603D803DA03DD03DF03E103E303E5F4
:107F880003E703E903EB03EC03EE03F003F103F368
:107F980003F403F503F603F703F903F903FA03FB04
:107FA80003FC03FD03FD03FE03FE03FE03FF03FFC3
:107FB80003FF03FF0346042C0800000000B8070075
:107FC8000094048E0732080000D607000024072614
:107FD8000800000000EA070000A6060000000000F4
:107FE80000CC070000080706050403020100000191
:087FF800040302010000010076
:020000040030CA
:090000008C1D45F49FC7FFFFFFB2
:00000001FF
