:040000000DEF00F010
:0400080077EF01F09D
:10001800FF00C6EF01F04450476E4350496E47C594
:100028004AF551C5D9F452C5DAF45850DE18D8A4A7
:1000380020EF00F022EF00F057EF00F04950FF08E2
:10004800496E4A50D8A0E82A0F084A6E560E495CF5
:10005800050E4A58D8B033EF00F035EF00F039EF0D
:1000680000F0000E426E53EF00F0AB0E495C0A0E32
:100078004A58D8B042EF00F044EF00F048EF00F0E3
:10008800010E426E53EF00F0100E4A5CD8B04FEFED
:1000980000F051EF00F044EF00F0020E426E514ABA
:1000A800522A94EF00F051C5D9F452C5DAF45750EA
:1000B800DE18D8A462EF00F064EF00F072EF00F0F1
:1000C80049C52BF54AC52CF52B50FF082B6E2C5033
:1000D800D8A0E82A0F082C6E53EF00F051C5D9F4C8
:1000E80052C5DAF45650DE18D8A47DEF00F07FEF41
:1000F80000F081EF00F053EF00F051C5D9F452C57C
:10010800DAF45550DE18D8A48CEF00F08EEF00F02A
:1001180094EF00F070C551F571C552F594EF00F0F9
:10012800FF0E466EAA0E456ED8EC03F07AEC04F08A
:10013800120015C519F3C08AB69E4250D8A4A7EF7D
:1001480000F0A9EF00F0B9EF00F04150020DB90E30
:10015800F324F66E7D0EF420F76E0900F5C427F53A
:100168000A00F5C428F5DDEF00F04204D8A4BFEF7B
:1001780000F0C1EF00F0D1EF00F04150020DBB0ECE
:10018800F324F66E7E0EF420F76E0900F5C427F509
:100198000A00F5C428F5DDEF00F0020E4218D8A4D5
:1001A800D8EF00F0DAEF00F0DDEF00F0030E286E74
:1001B8002768800E4118D8A4E4EF00F0E6EF00F0BD
:1001C800EAEF00F0010E406E02EF01F04150D8A4B2
:1001D800F0EF00F0F2EF00F002EF01F0000E406ED9
:1001E8003F50D8A4FAEF00F0FCEF00F000EF01F068
:1001F800010E3F6E02EF01F0000E3F6E4050D8A492
:1002080008EF01F00AEF01F00DEF01F0412A0EEFBF
:1002180001F041063F04D8A414EF01F016EF01F0F5
:100228001EEF01F02750FF08276E2850D8A0E82AB3
:100238000308286E27C545F528C546F569EC03F07F
:10024800C09A120053C5D9F454C5DAF45850DE18D0
:10025800D8A431EF01F033EF01F03AEF01F0585034
:1002680000EC04F0534A542A6EEF01F053C5D9F458
:1002780054C5DAF45750DE18D8A445EF01F047EF1B
:1002880001F04CEF01F0575000EC04F036EF01F0AC
:1002980053C5D9F454C5DAF45650DE18D8A457EF2C
:1002A80001F059EF01F05BEF01F036EF01F053C5B3
:1002B800D9F454C5DAF45550DE18D8A466EF01F025
:1002C80068EF01F06EEF01F078C553F579C554F584
:1002D8006EEF01F0FF0E466EAA0E456EC3EC03F0FA
:1002E80077EC04F01200FAC44BF5FBC44CF5F6C4E5
:1002F8004DF5F7C44EF5F8C44FF5F5C450F5D69E44
:10030800ABAE89EF01F08BEF01F096EF01F0B6AEDE
:1003180090EF01F092EF01F096EF01F037EC03F067
:10032800B8EF01F0AAAA9BEF01F09DEF01F0A8EF4A
:1003380001F0B5AAA2EF01F0A4EF01F0A8EF01F0D7
:1003480050EC03F0B8EF01F0ABA8ADEF01F0AFEF60
:1003580001F0B8EF01F0B6A8B4EF01F0B6EF01F084
:10036800B8EF01F0E2EC02F0D68E50C5F5F44FC5B7
:10037800F8F44EC5F7F44DC5F6F44CC5FBF44BC57F
:10038800FAF411006A0EF66E080EF76E000EF86E9B
:1003980001EE70F110EE10F00900F5C4EEF4E5502E
:1003A800E150FAE1FA0EF66E080EF76E000EF86EDE
:1003B80001EE55F110EE04F00900F5C4EEF4E55035
:1003C800E150FAE101EE80F1080EEE6AE806FDE17F
:1003D80001EE01F1440EEE6AE806FDE10401080EA3
:1003E8005D6F000E5E6F000E5F6F000EF86E00010D
:1003F80093EF02F0000EBE6E000EC06E000E0401F8
:10040800026F000E126F3B0EC66E1F0EC86E370EBF
:10041800006F1F0E106F000E016F000E116F370E68
:10042800036F3F0E136F3F0E046F3F0E146F000EE5
:100438000201896F000E886F020E4F6F090E036F5D
:10044800000E0401056F000E066F000E076F000E08
:10045800156F000E166F000E176F1200000E0301C5
:10046800D96F000EDA6F000EDB6F000EDC6F000E26
:10047800DF6F000EE06F000EE56F000EE76F100EE5
:10048800EC6F820EEE6F000EEF6F000EF06F0F0E26
:10049800F16F000EF26F800EF46F100EF56F000E04
:1004A800F66F000EF76F000EF86F000EF96F1F0E53
:1004B800FA6F840EF36FD88FF39DB494B590A99416
:1004C8001200000E0001E86FEA0EF96F030EFA6FD2
:1004D800000EFB6F050EF16F430EF06F420EFD6FBD
:1004E800000EF86F020EF76F000EEF6F020EEE6F40
:1004F800240EFF6F010EFE6FB59AB598B59EB59C98
:10050800AA8A1E0E0501886F000E896F6FEC04F031
:10051800AA88AA9EAA9CC00E0001FC6F120081EC5A
:1005280003F078C553F579C554F570C551F571C513
:1005380052F5FF0E0501896FAA0E886F1EEC03F0B5
:100548003DEC04F003011B51F00B04091B6F640E12
:10055800156E000E166E000E176E000E186E74ECF7
:1005680004F0D68E0400B6EF02F00DEF00F00301A0
:100578001491000E156F000E166F040E176F136995
:10058800AA0E126F135105018A6F03011251216ED1
:100598008AC522F54C0E0501886F020E896F51EC51
:1005A80004F0000E0501886F000E896F56EC04F008
:1005B800B698AB88350E0301146F1200B69821C5A2
:1005C80045F522C546F5D8EC03F0050162516311E3
:1005D800D8B4F1EF02F0F3EF02F000EF03F002D825
:1005E80000EF03F00500FA6E6251FD6E6351FE6E76
:1005F800F850FF6EFA5012001200D69AB490D680C6
:10060800000E0501886F000E896F6AEC04F0B9903E
:10061800D682000E0501886F000E896F65EC04F024
:10062800BD90D684000E0501886F000E896F60ECBE
:1006380004F01200030114A524EF03F026EF03F0E1
:1006480030EF03F01491050189510301136F88C538
:1006580012F3148136EF03F0050189510301136F7A
:1006680088C512F31200B69E050164516511D8B40D
:1006780040EF03F042EF03F04FEF03F002D84FEFE3
:1006880003F00500FA6E6451FD6E6551FE6EF85078
:10069800FF6EFA5012001200B59A05016E516F11E3
:1006A800D8B459EF03F05BEF03F068EF03F002D81A
:1006B80068EF03F00500FA6E6E51FD6E6F51FE6E25
:1006C800F850FF6EFA5012001200FF0E4516030E86
:1006D8004616030142A973EF03F075EF03F07CEFB0
:1006E80003F0060ED89045364636E82E76EF03F02E
:1006F8004650416F45C540F3120010EC04F0FEEC83
:1007080001F032EC02F098EC03F065EC02F01EEC1C
:1007180004F0EDEC03F0BBEC02F0AEEC03F001ECFE
:1007280003F045EC04F01200000E0001B46F070E50
:10073800B56F070EB66F070EB76F070EB86F070EC7
:10074800B96F070EBE6F070EBF6F000EF46E000E76
:10075800F36E1200010E0301206FA00E1F6F000E32
:10076800216F1D69000E1C6FFE0E0501886F080EB3
:10077800896F4CEC04F0800E03011E6F1200030118
:1007880025A5C9EF03F0CBEF03F0D3EF03F02591D4
:100798004650246F45C523F32581D7EF03F0465013
:1007A800246F45C523F31200030114A5DEEF03F0FF
:1007B800E0EF03F0E8EF03F014914650136F45C5DE
:1007C80012F31481ECEF03F04650136F45C512F392
:1007D800120003011969000E186F400E1B6F3A0EC4
:1007E8000501886F010E896F5BEC04F0B69EAB8E35
:1007F800800E03011A6F1200456E2AEC04F00009FE
:10080800D8B409EF04F00BEF04F001EF04F045C58C
:10081800ECF30301F3811200600E0001AD6F000ECE
:10082800AF6F000EB36F080EB16F000EB06FC00E41
:10083800AC6F12009C0E0301426F000E416F000E58
:10084800406F4C51FC0B01094C6F12000301F3A1DE
:1008580030EF04F033EF04F0010E34EF04F0000E33
:1008680012005805570556055505580557055605EC
:100878005505D7AE42EF04F07AEF04F00301148176
:100888001200550E0001B46FAA0EB46FB4811200A5
:1008980088C566F589C567F5120088C562F589C5FA
:1008A80063F5120088C560F589C561F5120088C531
:1008B80064F589C565F5120088C568F589C569F5C7
:1008C800120088C56AF589C56BF5120088C56CF5F4
:1008D80089C56DF5120088C56EF589C56FF51200DA
:1008E80003011A8F120003012581120003011481EC
:0A08F800120013121110120012007A
:107DB800000002040208020C021002140218021C3D
:107DC800022002240228022C023002340238023C2B
:107DD800024002440248024C025002540258025C1B
:107DE800026002640268026C027002740278027C0B
:107DF800028002840288028C029002940298029CFB
:107E080002A002A402A802AC02B002B402B802BCEA
:107E180002C002C402C802CC02D002D402D802DCDA
:107E280002E002E402E802EC02F002F402F802FBCB
:107E380002FF02030307030B030F03130317031BBC
:107E4800031F03230327032B032F03330337033BAA
:107E5800033F03430347034B034F03530357035B9A
:107E6800035F03630367036B036F03730377037B8A
:107E7800037F03830387038B038F03930397039B7A
:107E8800039F03A303A703AB03AF03B303B703BB6A
:107E980003BF03C303C703CB03CF03D303D703DB5A
:107EA80003DF03E303E703EB03EF03F303F703FB4A
:107EB80003FF03000206020C02120219021F022528
:107EC800022B02320238023E0244024B0251025790
:107ED800025D0263026902700276027C02820288F5
:107EE800028E0294029A02A002A602AC02B202B862
:107EF80002BD02C302C902CF02D502DA02E002E5DE
:107F080002EB02F102F602FC02010306030C031164
:107F18000316031C03210326032B03300335033AFE
:107F2800033F03440349034E03520357035C0360B2
:107F380003650369036E03720376037A037F038381
:107F48000387038B038F03930397039A039E03A26C
:107F580003A503A903AC03B003B303B603B903BD78
:107F680003C003C303C603C803CB03CE03D103D3A3
:107F780003D603D803DA03DD03DF03E103E303E5F4
:107F880003E703E903EB03EC03EE03F003F103F368
:107F980003F403F503F603F703F903F903FA03FB04
:107FA80003FC03FD03FD03FE03FE03FE03FF03FFC3
:107FB80003FF03FF030000EE08000086070000002F
:107FC8000076057A0800000000A2080000DA07E839
:107FD8000800000000B60800005C07000000000070
:107FE80000980800000807060504030201000001C4
:087FF800040302010000010076
:020000040030CA
:090000008C1D45F49FC7FFFFFFB2
:00000001FF
