:040000000DEF00F010
:0400080077EF01F09D
:10001800FF00C6EF01F04450476E4350496E47C594
:100028004AF551C5D9F452C5DAF45850DE18D8A4A7
:1000380020EF00F022EF00F057EF00F04950FF08E2
:10004800496E4A50D8A0E82A0F084A6E560E495CF5
:10005800050E4A58D8B033EF00F035EF00F039EF0D
:1000680000F0000E426E53EF00F0AB0E495C0A0E32
:100078004A58D8B042EF00F044EF00F048EF00F0E3
:10008800010E426E53EF00F0100E4A5CD8B04FEFED
:1000980000F051EF00F044EF00F0020E426E514ABA
:1000A800522A94EF00F051C5D9F452C5DAF45750EA
:1000B800DE18D8A462EF00F064EF00F072EF00F0F1
:1000C80049C52DF54AC52EF52D50FF082D6E2E5029
:1000D800D8A0E82A0F082E6E53EF00F051C5D9F4C6
:1000E80052C5DAF45650DE18D8A47DEF00F07FEF41
:1000F80000F081EF00F053EF00F051C5D9F452C57C
:10010800DAF45550DE18D8A48CEF00F08EEF00F02A
:1001180094EF00F072C551F573C552F594EF00F0F5
:10012800FF0E466EAA0E456EE0EC03F087EC04F075
:10013800120015C519F3C08AB69E4250D8A4A7EF7D
:1001480000F0A9EF00F0B9EF00F04150020DB90E30
:10015800F324F66E7D0EF420F76E0900F5C429F538
:100168000A00F5C42AF5DDEF00F04204D8A4BFEF79
:1001780000F0C1EF00F0D1EF00F04150020DBB0ECE
:10018800F324F66E7E0EF420F76E0900F5C429F507
:100198000A00F5C42AF5DDEF00F0020E4218D8A4D3
:1001A800D8EF00F0DAEF00F0DDEF00F0030E2A6E72
:1001B8002968800E4118D8A4E4EF00F0E6EF00F0BB
:1001C800EAEF00F0010E406E02EF01F04150D8A4B2
:1001D800F0EF00F0F2EF00F002EF01F0000E406ED9
:1001E8003F50D8A4FAEF00F0FCEF00F000EF01F068
:1001F800010E3F6E02EF01F0000E3F6E4050D8A492
:1002080008EF01F00AEF01F00DEF01F0412A0EEFBF
:1002180001F041063F04D8A414EF01F016EF01F0F5
:100228001EEF01F02950FF08296E2A50D8A0E82AAD
:1002380003082A6E29C545F52AC546F571EC03F071
:10024800C09A120053C5D9F454C5DAF45850DE18D0
:10025800D8A431EF01F033EF01F03AEF01F0585034
:1002680008EC04F0534A542A6EEF01F053C5D9F450
:1002780054C5DAF45750DE18D8A445EF01F047EF1B
:1002880001F04CEF01F0575008EC04F036EF01F0A4
:1002980053C5D9F454C5DAF45650DE18D8A457EF2C
:1002A80001F059EF01F05BEF01F036EF01F053C5B3
:1002B800D9F454C5DAF45550DE18D8A466EF01F025
:1002C80068EF01F06EEF01F07AC553F57BC554F580
:1002D8006EEF01F0FF0E466EAA0E456ECBEC03F0F2
:1002E80084EC04F01200FAC44BF5FBC44CF5F6C4D8
:1002F8004DF5F7C44EF5F8C44FF5F5C450F5D69E44
:10030800ABAE89EF01F08BEF01F096EF01F0B6AEDE
:1003180090EF01F092EF01F096EF01F03FEC03F05F
:10032800B8EF01F0AAAA9BEF01F09DEF01F0A8EF4A
:1003380001F0B5AAA2EF01F0A4EF01F0A8EF01F0D7
:1003480058EC03F0B8EF01F0ABA8ADEF01F0AFEF58
:1003580001F0B8EF01F0B6A8B4EF01F0B6EF01F084
:10036800B8EF01F0EAEC02F0D68E50C5F5F44FC5AF
:10037800F8F44EC5F7F44DC5F6F44CC5FBF44BC57F
:10038800FAF411007A0EF66E080EF76E000EF86E8B
:1003980001EE72F110EE10F00900F5C4EEF4E5502C
:1003A800E150FAE1140EF66E090EF76E000EF86EC3
:1003B80001EE55F110EE04F00900F5C4EEF4E55035
:1003C800E150FAE10501876B866B856B846B836B63
:1003D800826B01EE01F1440EEE6AE806FDE10401CC
:1003E800080E5D6F000E5E6F000E5F6F000EF86EF8
:1003F80000019BEF02F0000E0001E86FEA0EF96FB2
:10040800030EFA6F000EFB6F050EF16F430EF06FCF
:10041800420EFD6F000EF86F020EF76F000EEF6FC1
:10042800020EEE6F240EFF6F010EFE6FB59AB5989F
:10043800B59EB59CAA8A1E0E0501886F000E896FAD
:100448007CEC04F0AA881E0E0501886F000E896FE7
:1004580077EC04F0AA9EAA9CC00E0001FC6F120063
:10046800000EBE6E000EC06E000E0401026F000E7C
:10047800126F3B0EC66E1F0EC86E370E006F1F0E32
:10048800106F000E016F000E116F370E036F3F0ED5
:10049800136F3F0E046F3F0E146F000E0201896F39
:1004A800000E886F020E4F6F090E036F000E0401D5
:1004B800056F000E066F000E076F000E156F000E19
:1004C800166F000E176F1200000E0301D96F000E91
:1004D800DA6F000EDB6F000EDC6F000EDF6F000EB0
:1004E800E06F000EE56F000EE76F100EEC6F820EE6
:1004F800EE6F000EEF6F000EF06F0F0EF16F000E33
:10050800F26F800EF46F100EF56F000EF66F000E8E
:10051800F76F000EF86F000EF96F1F0EFA6F840E5A
:10052800F36FD88FF39DB494B590A994120089EC19
:1005380003F07AC553F57BC554F572C551F573C5FB
:1005480052F5FF0E0501896FAA0E886F26EC03F09D
:1005580045EC04F003011B51F00B04091B6F640EFA
:10056800156E000E166E000E176E000E186E81ECDA
:1005780004F0D68E0400BEEF02F00DEF00F0030188
:100588001491000E156F000E166F040E176F136985
:10059800AA0E126F135105018A6F03011251236EBF
:1005A8008AC524F54C0E0501886F020E896F59EC37
:1005B80004F0000E0501886F000E896F5EEC04F0F0
:1005C800B698AB88350E0301146F1200B69823C590
:1005D80045F524C546F5E0EC03F0050162516311C9
:1005E800D8B4F9EF02F0FBEF02F008EF03F002D8FD
:1005F80008EF03F00500FA6E6251FD6E6351FE6E5E
:10060800F850FF6EFA5012001200D69AB490D680B5
:10061800000E0501886F000E896F72EC04F0B99026
:10062800D682000E0501886F000E896F6DEC04F00C
:10063800BD90D684000E0501886F000E896F68ECA6
:1006480004F01200030114A52CEF03F02EEF03F0C1
:1006580038EF03F01491050189510301136F88C520
:1006680012F314813EEF03F0050189510301136F62
:1006780088C512F31200B69E050164516511D8B4FD
:1006880048EF03F04AEF03F057EF03F002D857EFB3
:1006980003F00500FA6E6451FD6E6551FE6EF85068
:1006A800FF6EFA5012001200B59A05016E516F11D3
:1006B800D8B461EF03F063EF03F070EF03F002D8F2
:1006C80070EF03F00500FA6E6E51FD6E6F51FE6E0D
:1006D800F850FF6EFA5012001200FF0E4516030E76
:1006E8004616030142A97BEF03F07DEF03F084EF88
:1006F80003F0060ED89045364636E82E7EEF03F016
:100708004650416F45C540F3120018EC04F034EC34
:1007180002F068EC02F0A0EC03F0FFEC01F026EC2C
:1007280004F0F5EC03F0C3EC02F0B6EC03F009ECCE
:1007380003F04DEC04F01200000E0001B46F070E38
:10074800B56F070EB66F070EB76F070EB86F070EB7
:10075800B96F070EBE6F070EBF6F000EF46E000E66
:10076800F36E1200010E0301206FA00E1F6F000E22
:10077800216F1D69000E1C6F180E0501886F090E88
:10078800896F54EC04F0800E03011E6F1200030100
:1007980025A5D1EF03F0D3EF03F0DBEF03F02591AC
:1007A8004650246F45C523F32581DFEF03F04650FB
:1007B800246F45C523F31200030114A5E6EF03F0E7
:1007C800E8EF03F0F0EF03F014914650136F45C5BE
:1007D80012F31481F4EF03F04650136F45C512F37A
:1007E800120003011969000E186F400E1B6F3A0EB4
:1007F8000501886F010E896F63EC04F0B69EAB8E1D
:10080800800E03011A6F1200456E32EC04F00009E5
:10081800D8B411EF04F013EF04F009EF04F045C564
:10082800ECF30301F3811200600E0001AD6F000EBE
:10083800AF6F000EB36F080EB16F000EB06FC00E31
:10084800AC6F12009C0E0301426F000E416F000E48
:10085800406F4C51FC0B01094C6F12000301F3A1CE
:1008680038EF04F03BEF04F0010E3CEF04F0000E0B
:1008780012005805570556055505580557055605DC
:100888005505D7AE4AEF04F087EF04F00301148151
:100898001200550E0001B46FAA0EB46FB481120095
:1008A80088C566F589C567F5120088C562F589C5EA
:1008B80063F5120088C560F589C561F5120088C521
:1008C80064F589C565F5120088C568F589C569F5B7
:1008D800120088C56AF589C56BF5120088C56CF5E4
:1008E80089C56DF5120088C570F589C571F51200C6
:1008F80088C56EF589C56FF5120003011A8F1200BD
:100908000301258112000301148112001312111032
:0409180012001200B7
:107DB800000002040208020C021002140218021C3D
:107DC800022002240228022C023002340238023C2B
:107DD800024002440248024C025002540258025C1B
:107DE800026002640268026C027002740278027C0B
:107DF800028002840288028C029002940298029CFB
:107E080002A002A402A802AC02B002B402B802BCEA
:107E180002C002C402C802CC02D002D402D802DCDA
:107E280002E002E402E802EC02F002F402F802FBCB
:107E380002FF02030307030B030F03130317031BBC
:107E4800031F03230327032B032F03330337033BAA
:107E5800033F03430347034B034F03530357035B9A
:107E6800035F03630367036B036F03730377037B8A
:107E7800037F03830387038B038F03930397039B7A
:107E8800039F03A303A703AB03AF03B303B703BB6A
:107E980003BF03C303C703CB03CF03D303D703DB5A
:107EA80003DF03E303E703EB03EF03F303F703FB4A
:107EB80003FF03000206020C02120219021F022528
:107EC800022B02320238023E0244024B0251025790
:107ED800025D0263026902700276027C02820288F5
:107EE800028E0294029A02A002A602AC02B202B862
:107EF80002BD02C302C902CF02D502DA02E002E5DE
:107F080002EB02F102F602FC02010306030C031164
:107F18000316031C03210326032B03300335033AFE
:107F2800033F03440349034E03520357035C0360B2
:107F380003650369036E03720376037A037F038381
:107F48000387038B038F03930397039A039E03A26C
:107F580003A503A903AC03B003B303B603B903BD78
:107F680003C003C303C603C803CB03CE03D103D3A3
:107F780003D603D803DA03DD03DF03E103E303E5F4
:107F880003E703E903EB03EC03EE03F003F103F368
:107F980003F403F503F603F703F903F903FA03FB04
:107FA80003FC03FD03FD03FE03FE03FE03FF03FFC3
:107FB80003FF03FF03000008090000960700000004
:107FC8000086058A0800000000B2080000EA0702DF
:107FD8000900000000C60800006C0700000000004F
:107FE80000A80800000807060504030201000001B4
:087FF800040302010000010076
:020000040030CA
:090000008C1D45F49FC7FFFFFFB2
:00000001FF
