:040000000DEF00F010
:0400080073EF01F0A1
:10001800FF00F6EF01F0C098AA9AAC98040E44606D
:1000280018EF00F01AEF00F01DEF00F0466A1FEF1E
:1000380000F0010E466E4428D8A425EF00F027EF03
:1000480000F029EF00F0040E446E48504B6E475004
:100058004F6E4BC550F54F50FF084F6E5050D8A00B
:10006800E82A0F08506EBCEF00F0560E4F5C050EE4
:100078005058D8B042EF00F044EF00F047EF00F0DE
:10008800456A61EF00F0AB0E4F5C0A0E5058D8B0CD
:1000980050EF00F052EF00F056EF00F0010E456E01
:1000A80061EF00F0100E505CD8B05DEF00F05FEF2C
:1000B80000F052EF00F0020E456E020E5926000EB7
:1000C8005A22E2EF00F04FC52FF550C530F52FC585
:1000D8004BF530C54CF5D8904C324B32D8904C3259
:1000E8004B324BC52FF54CC530F561EF00F04FC5CD
:1000F8002DF550C52EF52DC54BF52EC54CF5040E26
:100108004D6ED8904C324B324D2E85EF00F04BC5DA
:100118002DF54CC52EF5020E5926000E5A22E2EF97
:1001280000F04FC519F550C51AF51B6A1C6A19C5A8
:100138004BF51AC54CF51BC54DF51CC54EF5050EFE
:10014800ABEF00F0D8904E324D324C324B32E82EA5
:10015800A6EF00F04BC519F54CC51AF54DC51BF5B2
:100168004EC51CF5760E596E050E5A6EE2EF00F07C
:1001780059C5D9F45AC5DAF4DEC4F6F4DDC4F7F487
:100188000800F5504B6E4C6A4C50000AD8B4CFEFBB
:1001980000F0E2EF00F04B50100AD8B439EF00F04D
:1001A800010AD8B467EF00F0030AD8B47BEF00F077
:1001B800010AD8B495EF00F0E2EF00F0FF0E4A6EA6
:1001C800150E496EC9EC03F088EC04F0AB88442A9C
:1001D800C08A120015C519F3B69E4550D8A4F7EF8A
:1001E80000F0F9EF00F009EF01F04350020DB50EF1
:1001F800F324F66E7D0EF420F76E0900F5C429F598
:100208000A00F5C42AF52DEF01F04504D8A40FEF34
:1002180001F011EF01F021EF01F04350020DB70E8C
:10022800F324F66E7E0EF420F76E0900F5C429F566
:100238000A00F5C42AF52DEF01F0020E4518D8A4DE
:1002480028EF01F02AEF01F02DEF01F0030E2A6EDE
:100258002968800E4318D8A434EF01F036EF01F076
:100268003AEF01F0010E426E50EF01F04350D8A46E
:1002780040EF01F042EF01F050EF01F0426A4150C7
:10028800D8A449EF01F04BEF01F04FEF01F0010E58
:10029800416E50EF01F0416A4250D8A456EF01F088
:1002A80058EF01F05BEF01F0432A5CEF01F04306E1
:1002B8004104D8A462EF01F064EF01F06CEF01F0A3
:1002C8002950FF08296E2A50D8A0E82A03082A6E68
:1002D80029C549F52AC54AF59CEC03F01200FAC471
:1002E80051F5FBC452F5F6C453F5F7C454F5F8C4F8
:1002F80055F5F5C456F5D69EABAE85EF01F087EF00
:1003080001F092EF01F0B6AE8CEF01F08EEF01F044
:1003180092EF01F06AEC03F0B4EF01F0ABA897EFAD
:1003280001F099EF01F0A4EF01F0B6A89EEF01F0FB
:10033800A0EF01F0A4EF01F051EC03F0B4EF01F0ED
:10034800AAAAA9EF01F0ABEF01F0B4EF01F0B5AA4A
:10035800B0EF01F0B2EF01F0B4EF01F083EC03F07D
:10036800D68E56C5F5F455C5F8F454C5F7F453C5FB
:10037800F6F452C5FBF451C5FAF411000001E86B1C
:10038800EA0EF96F030EFA6F000EFB6F050EF16FA0
:10039800470EF06F420EFD6F000EF86F020EF76FFA
:1003A800000EEF6F020EEE6F240EFF6F010EFE6F50
:1003B800B59AB598B59EB59CAA8A1E0E0501866F9A
:1003C800000E876F7AEC04F0AA881E0E0501866F6E
:1003D800000E876F75EC04F0AA9EAA9CC00E00015F
:1003E800FC6F1200560EF66E080EF76E000EF86ED1
:1003F80001EE76F110EE10F00900F5C4EEF4E550C8
:10040800E150FAE1160EF66E090EF76E000EF86E60
:1004180001EE57F110EE04F00900F5C4EEF4E550D2
:10042800E150FAE101EE01F1480EEE6AE806FDE15D
:100438000401080E5D6F000E5E6F000E5F6F000E08
:10044800F86E000128EF02F038EC03F003011B51AD
:10045800F00B04091B6F640E156E000E166E000E6D
:10046800176E000E186EAA9AAC98AB88D68EFF0E3F
:100478000501876F150E866F1FEC03F033EC04F04F
:10048800C08A4650D8B44BEF02F04DEF02F045EF6A
:1004980002F07FEC04F004004FEF02F00DEF00F0E3
:1004A800BE6AC06A0401026B126B3B0EC66E0F0E69
:1004B800C86E370E006F0F0E106F016B116B370E81
:1004C800036F3F0E136F3F0E046F3F0E146F020150
:1004D800896B886B020E4F6F090E036F0401056B61
:1004E800066B076B156B166B176B120003012591D2
:1004F800266B276B040E286F2469640E236F245122
:100508000501886F03012351216E88C522F51C0E51
:100518000501866F090E876F48EC04F0000E05018F
:10052800866F000E876F4DEC04F0B798AC88010E0B
:100538000301256F120003011491156B166B040E4D
:10054800176F1369640E126F13510501886F030149
:100558001251256E88C526F5060E0501866F060E12
:10056800876F57EC04F0000E0501866F000E876F49
:100578005CEC04F0B698AB88010E0301146F12000E
:100588000301D96BDA6BDB6BDC6BDF6BE06BE56B64
:10059800E76B100EEC6F820EEE6FEF6BF06B0F0EC9
:1005A800F16FF26B800EF46F100EF56FF66BF76B50
:1005B800F86BF96B1F0EFA6F840EF36FB494B59055
:1005C800A9941200D69AB490D680000E0501866FC1
:1005D800000E876F70EC04F0B990D682000E05010A
:1005E800866F000E876F6BEC04F0BD90D684000E0A
:1005F8000501866F000E876F66EC04F01200C09A42
:10060800AB9885EC04F059C5D9F45AC5DAF4DEC4C0
:10061800F6F4DDC4F7F40800F55042EC04F0FF0EE0
:100628004A6E140E496EB4EC03F082EC04F0C088F4
:10063800AC88AA8A1200030114A525EF03F027EF5E
:1006480003F031EF03F01491050187510301136F93
:1006580086C512F3148137EF03F0050187510301B2
:10066800136F86C512F3120016EC04F054EC02F076
:10067800C4EC02F0F1EC03F0C2EC01F021EC04F060
:1006880004EC04F09FEC02F0DEEC03F07AEC02F0EC
:10069800E6EC02F03BEC04F01200B6980501665156
:1006A8006711D8B45AEF03F05CEF03F069EF03F079
:1006B80002D869EF03F00500FA6E6651FD6E6751C6
:1006C800FE6EF850FF6EFA5012001200B69E050139
:1006D80068516911D8B473EF03F075EF03F082EF36
:1006E80003F002D882EF03F00500FA6E6851FD6E40
:1006F8006951FE6EF850FF6EFA5012001200B59A5A
:10070800050172517311D8B48CEF03F08EEF03F02A
:100718009BEF03F002D89BEF03F00500FA6E7251CD
:10072800FD6E7351FE6EF850FF6EFA501200120003
:10073800FF0E4916030E4A16030142A9A6EF03F05D
:10074800A8EF03F0AFEF03F0060ED89049364A360B
:10075800E82EA9EF03F04A50416F49C540F3120053
:10076800030125A5BAEF03F0BCEF03F0C4EF03F0D3
:1007780025914A50246F49C523F32581C8EF03F01A
:100788004A50246F49C523F31200030114A5CFEF83
:1007980003F0D1EF03F0D9EF03F014914A50136F2F
:1007A80049C512F31481DDEF03F04A50136F49C5B0
:1007B80012F31200010E0301206FA00E1F6F216BB0
:1007C8001D691C6B1A0E0501866F090E876F52ECA6
:1007D80004F0800E03011E6F12000001B46B070EB7
:1007E800B56F070EB66F070EB76F070EB86F070E17
:1007F800B96F070EBE6F070EBF6FF46AF36A120077
:1008080003011969186B400E1B6FDC0E0501866F1A
:10081800010E876F61EC04F0B69EAB8E800E03016B
:100828001A6F1200600E0001AD6FAF6BB36B080E4C
:10083800B16FB06BC00EAC6F12009C0E0301426F1B
:10084800416B406B4C51FC0B01094C6F1200FE7F51
:10085800FD7FFC7FFB7FFE7FFD7FFC7FFB7FD7AEAC
:1008680038EF04F088EF04F0030114811200550EEC
:100878000001B46FAA0EB46FB4811200496E49C565
:10088800ECF30301F381120086C562F587C563F5B1
:10089800120086C560F587C561F5120086C56AF540
:1008A80087C56BF5120086C566F587C567F5120022
:1008B80086C564F587C565F5120086C568F587C5E0
:1008C80069F5120086C56CF587C56DF5120086C5F9
:1008D8006EF587C56FF5120086C570F587C571F589
:1008E800120086C574F587C575F5120086C572F5C0
:1008F80087C573F5120003011A8F120003012581C1
:1009080012000301149112000301148112007E05E4
:060918007605120012003A
:107DB400000002040208020C021002140218021C41
:107DC400022002240228022C023002340238023C2F
:107DD400024002440248024C025002540258025C1F
:107DE400026002640268026C027002740278027C0F
:107DF400028002840288028C029002940298029CFF
:107E040002A002A402A802AC02B002B402B802BCEE
:107E140002C002C402C802CC02D002D402D802DCDE
:107E240002E002E402E802EC02F002F402F802FBCF
:107E340002FF02030307030B030F03130317031BC0
:107E4400031F03230327032B032F03330337033BAE
:107E5400033F03430347034B034F03530357035B9E
:107E6400035F03630367036B036F03730377037B8E
:107E7400037F03830387038B038F03930397039B7E
:107E8400039F03A303A703AB03AF03B303B703BB6E
:107E940003BF03C303C703CB03CF03D303D703DB5E
:107EA40003DF03E303E703EB03EF03F303F703FB4E
:107EB40003FF03000206020C02120219021F02252C
:107EC400022B02320238023E0244024B0251025794
:107ED400025D0263026902700276027C02820288F9
:107EE400028E0294029A02A002A602AC02B202B866
:107EF40002BD02C302C902CF02D502DA02E002E5E2
:107F040002EB02F102F602FC02010306030C031168
:107F14000316031C03210326032B03300335033A02
:107F2400033F03440349034E03520357035C0360B6
:107F340003650369036E03720376037A037F038385
:107F44000387038B038F03930397039A039E03A270
:107F540003A503A903AC03B003B303B603B903BD7C
:107F640003C003C303C603C803CB03CE03D103D3A7
:107F740003D603D803DA03DD03DF03E103E303E5F8
:107F840003E703E903EB03EC03EE03F003F103F36C
:107F940003F403F503F603F703F903F903FA03FB08
:107FA40003FC03FD03FD03FE03FE03FE03FF03FFC7
:107FB40003FF03FF03F40404090000000090080019
:107FC400003E0566080A090000AE0800000808FE25
:107FD4000800000000C2080000BC07000000000008
:107FE40000A40800000807060504030201000001BC
:0C7FF40004030201000001131211100030
:020000040030CA
:090000008C1D45F49FC7FFFFFFB2
:00000001FF
