:040000000DEF00F010
:0400080029EF02F0EA
:10001800FF0026EF03F0AA9AAC98040E386017EF99
:1000280000F019EF00F01CEF00F03A6A1EEF00F044
:10003800010E3A6E3828D8A424EF00F026EF00F01D
:1000480028EF00F0040E386E3C503F6E3B50436E74
:100058003FC544F54350FF08436E4450D8A0E82AF2
:100068000F08446E4FC5D9F450C5DAF4DEC4F6F46F
:10007800DDC4F7F40800F5C43FF5FE0EF66E7F0EFA
:10008800F76E0800F5503F18D8A44DEF00F04FEF79
:1000980000F07DEF00F0560E435C050E4458D8B0D2
:1000A80058EF00F05AEF00F05DEF00F0396A77EF93
:1000B80000F0AB0E435C0A0E4458D8B066EF00F06F
:1000C80068EF00F06CEF00F0010E396E77EF00F08A
:1000D800100E445CD8B073EF00F075EF00F068EFD5
:1000E80000F0020E396E020E4F26000E502217EF56
:1000F80001F04FC5D9F450C5DAF4DEC4F6F4DDC416
:10010800F7F40800F5C43FF5FD0EF66E7F0EF76EA6
:100118000800F5503F18D8A494EF00F096EF00F0CF
:10012800AAEF00F043C523F544C524F523C53FF5E0
:1001380024C540F5D89040323F32D89040323F3203
:100148003FC523F540C524F577EF00F04FC5D9F436
:1001580050C5DAF4DEC4F6F4DDC4F7F40800F5C4DB
:100168003FF5FC0EF66E7F0EF76E0800F5503F184F
:10017800D8A4C1EF00F0C3EF00F0DDEF00F043C5F5
:1001880021F544C522F521C53FF522C540F5040EE9
:10019800416ED89040323F32412ECDEF00F03FC53E
:1001A80021F540C522F5020E4F26000E502217EF0A
:1001B80001F04FC5D9F450C5DAF4DEC4F6F4DDC455
:1001C800F7F40800F5C43FF5FB0EF66E7F0EF76EE8
:1001D8000800F5503F18D8A4F4EF00F0F6EF00F04F
:1001E80017EF01F011C53FF512C540F513C541F5EC
:1001F80014C542F5050E06EF01F0D890423241329F
:1002080040323F32E82E01EF01F03FC511F540C5FD
:1002180012F541C513F542C514F5780E4F6E050E5B
:10022800506E17EF01F0FF0E3E6EAA0E3D6E04EC05
:1002380005F0D2EC05F0AB88382A12000DC519F389
:10024800B69E3950D8A42BEF01F02DEF01F03DEF09
:1002580001F03750020DB50EF324F66E7D0EF42032
:10026800F76E0900F5C41DF50A00F5C41EF561EF27
:1002780001F03904D8A443EF01F045EF01F055EF40
:1002880001F03750020DB70EF324F66E7E0EF420FF
:10029800F76E0900F5C41DF50A00F5C41EF561EFF7
:1002A80001F0020E3918D8A45CEF01F05EEF01F0FE
:1002B80061EF01F0030E1E6E1D68800E3718D8A47A
:1002C80068EF01F06AEF01F06EEF01F0010E366E93
:1002D80084EF01F03750D8A474EF01F076EF01F005
:1002E80084EF01F0366A3550D8A47DEF01F07FEF36
:1002F80001F083EF01F0010E356E84EF01F0356AED
:100308003650D8A48AEF01F08CEF01F08FEF01F09E
:10031800372A90EF01F037063504D8A496EF01F09C
:1003280098EF01F0A0EF01F01D50FF081D6E1E5060
:10033800D8A0E82A03081E6E1DC53DF51EC53EF56A
:10034800C2EC04F0120023C59AF524C59BF50501FB
:100358009C6B9D6B9AC588F59BC589F59CC58AF5EC
:100368009DC58BF5580E8C6F020E8D6F000E8E6F2B
:10037800000E8F6FBBEC02F088C501F589C502F548
:100388008AC503F58BC504F501C590F502C591F53D
:1003980003C592F504C593F50B0ED9EF01F00501DD
:1003A800D8909333923391339033E82ED3EF01F002
:1003B80090C501F591C502F592C503F593C504F5FD
:1003C80001C515F502C516F5165007E1740E155C42
:1003D800D8B0F1EF01F0F3EF01F007EF02F015509C
:1003E800906F916B0C0E9027000E912390C596F597
:1003F80091C597F5000E97BFFF0E986F996F010E84
:100408002B6E28EF02F08D0E1524946FFF0E162028
:10041800956F94C590F595C591F5070E926FD89094
:1004280091339033922F13EF02F090512D6E2D508F
:10043800800DF3509425906F9051966F976B986B41
:10044800996B2D50020F2B6E1200FAC445F5FBC4B0
:1004580046F5F6C447F5F7C448F5F8C449F5F5C4B8
:100468004AF5D69EABAE3BEF02F03DEF02F048EF07
:1004780002F0B6AE42EF02F044EF02F048EF02F0AD
:1004880090EC04F06AEF02F0ABA84DEF02F04FEFEA
:1004980002F05AEF02F0B6A854EF02F056EF02F05D
:1004A8005AEF02F077EC04F06AEF02F0AAAA5FEFC5
:1004B80002F061EF02F06AEF02F0B5AA66EF02F00F
:1004C80068EF02F06AEF02F0A9EC04F0D68E4AC594
:1004D800F5F449C5F8F448C5F7F447C5F6F446C538
:1004E800FBF445C5FAF411002C04D8A47EEF02F001
:1004F80080EF02F084EF02F02B28266EABEF02F0BB
:10050800030E2C18D8A48BEF02F08DEF02F092EFB7
:1005180002F02B50020F266EABEF02F0020E2C18E1
:10052800D8A499EF02F09BEF02F09FEF02F02B04A2
:10053800266EABEF02F02C50D8A4A5EF02F0A7EF7F
:1005480002F0ABEF02F02BC526F5ABEF02F0E90E97
:100558002624F66EF76A7F0EF7220800F5C44BF5DD
:1005680003011B514B18F00B4B181B6F1200000EA8
:100578004B6E000E4C6E000E4D6E000E4E6E050159
:1005880088A1C9EF02F0CBEF02F0D3EF02F08C5153
:100598004B268D514C228E514D228F514E22D89090
:1005A8008C378D378E378F37D8908B338A33893392
:1005B8008833885189118A118B11D8A4E6EF02F08B
:1005C800E8EF02F0C3EF02F04BC588F54CC589F59A
:1005D8004DC58AF54EC58BF51200AB98CFEC05F0EA
:1005E800FE0E3D6E7F0E3E6E70EC05F0FE0EF66E52
:1005F8007F0EF76E0800F5C43FF5FB0EF66E7F0E12
:10060800F76E0800F5503F18D8B40DEF03F00FEF60
:1006180003F016EF03F0020E05017627000E77238C
:100628001BEF03F0800E0501766F050E776FFF0E46
:100638003E6EAA0E3D6EEFEC04F0CCEC05F0AC88F3
:10064800AA8A1200F40EF66E0A0EF76E000EF86E05
:1006580001EE76F110EE12F00900F5C4EEF4E55063
:10066800E150FAE1AA0EF66E0B0EF76E000EF86E68
:100678000900F5C44FF50900F5C450F501EE96F1EF
:100688000C0EEE6AE806FDE101EE01F13C0EEE6AA1
:10069800E806FDE10401080E5D6F000E5E6F000EB6
:1006A8005F6F000EF86E00018CEF03F00001E86B3D
:1006B800EA0EF96F030EFA6F000EFB6F050EF16F6D
:1006C8003B0EF06F420EFD6F000EF86F020EF76FD3
:1006D800000EEF6F020EEE6F240EFF6F010EFE6F1D
:1006E800B59AB598B59EB59CAA8A1E0E4B6E000E9B
:1006F8004C6EC4EC05F0AA881E0E4B6E000E4C6EB4
:10070800BFEC05F0AA9EAA9CC00E0001FC6F120067
:100718005EEC04F003011B51F00B04091B6F640E1F
:100728000D6E000E0E6E000E0F6E000E106EAA9A61
:10073800AC98AB88D68EFF0E4C6EAA0E4B6EDAECD8
:1007480004F083EC05F03A50D8B4ADEF03F0AFEF06
:1007580003F0A7EF03F0C9EC05F0A7EC01F04FECAC
:1007680005F00400B1EF03F00DEF00F0BE6AC06AB7
:100778000401026B126B3B0EC66E0F0EC86E370E6D
:10078800006F0F0E106F016B116B370E036F3F0E6A
:10079800136F3F0E046F3F0E146F0201896B886B55
:1007A800020E4F6F090E036F0401056B066B076B92
:1007B800156B166B176B12000301D96BDA6BDB6BC9
:1007C800DC6BDF6BE06BE56BE76B100EEC6F820E9A
:1007D800EE6FEF6BF06B0F0EF16FF26B800EF46F34
:1007E800100EF56FF66BF76BF86BF96B1F0EFA6F5F
:1007F800840EF36FB494B590A99412000301259167
:10080800266B276B040E286F2469AA0E236F2451C8
:100818004D6E2351176E4DC518F5AE0E4B6E0B0E6F
:100828004C6E92EC05F0000E4B6E000E4C6E97EC81
:1008380005F0B798AC88350E0301256F1200030147
:100848001491156B166B040E176F1369AA0E126FAD
:1008580013514D6E1251196E4DC51AF5E20E4B6EBD
:10086800050E4C6EA1EC05F0000E4B6E000E4C6EA2
:10087800A6EC05F0B698AB88350E0301146F12008C
:10088800D69AB490D680000E4B6E000E4C6EBAEC21
:1008980005F0B990D682000E4B6E000E4C6EB5EC8A
:1008A80005F0BD90D684000E4B6E000E4C6EB0EC79
:1008B80005F012005BEC05F0BAEC03F0E0EC03F095
:1008C80019EC05F05AEC03F066EC05F03EEC05F087
:1008D80023EC04F02CEC05F002EC04F044EC04F0FA
:1008E8008BEC05F01200B698050166516711D8B473
:1008F80080EF04F082EF04F08FEF04F002D88FEF5E
:1009080004F00500FA6E6651FD6E6751FE6EF850F0
:10091800FF6EFA5012001200B69E05016851691167
:10092800D8B499EF04F09BEF04F0A8EF04F002D8D4
:10093800A8EF04F00500FA6E6851FD6E6951FE6E6D
:10094800F850FF6EFA5012001200B59A0501725164
:100958007311D8B4B2EF04F0B4EF04F0C1EF04F0AF
:1009680002D8C1EF04F00500FA6E7251FD6E7351A2
:10097800FE6EF850FF6EFA5012001200FF0E3D1680
:10098800030E3E16030142A9CCEF04F0CEEF04F0AB
:10099800D5EF04F0060ED8903D363E36E82ECFEF60
:1009A80004F03E50416F3DC540F31200030114A509
:1009B800E0EF04F0E2EF04F0EAEF04F014914C5099
:1009C800136F4BC512F31481EEEF04F04C50136F04
:1009D8004BC512F31200030125A5F5EF04F0F7EF5C
:1009E80004F0FFEF04F025913E50246F3DC523F33A
:1009F800258103EF05F03E50246F3DC523F3120017
:100A0800030114A50AEF05F00CEF05F014EF05F04B
:100A180014913E50136F3DC512F3148118EF05F081
:100A28003E50136F3DC512F312000001B46B070E60
:100A3800B56F070EB66F070EB76F070EB86F070EC4
:100A4800B96F070EBE6F070EBF6FF46AF36A120024
:100A5800010E0301206FA00E1F6F216B1D691C6B17
:100A6800AC0E4B6E0B0E4C6E9CEC05F0800E030129
:100A78001E6F120003011969186B400E1B6F440E9C
:100A88004B6E020E4C6EABEC05F0B69EAB8E800E34
:100A980003011A6F120096C50DF597C50EF598C596
:100AA8000FF599C510F52C6A78EC02F01200600E6B
:100AB8000001AD6FAF6BB36B080EB16FB06BC00EBA
:100AC800AC6F12009C0E0301426F416B406B4C519E
:100AD800FC0B01094C6F12003DC5F6F43EC5F7F456
:100AE8000800F5C4ECF30301F38112008005FE7FD2
:100AF800FD7FFC7FFB7FFE7FFD7FFC7FFB7FD7AE0A
:100B080088EF05F0D2EF05F0030114811200550EAD
:100B18000001B46FAA0EB46FB48112004BC562F520
:100B28004CC563F512004BC560F54CC561F5120064
:100B38004BC56AF54CC56BF512004BC566F54CC53F
:100B480067F512004BC564F54CC565F512004BC539
:100B580068F54CC569F512004BC56CF54CC56DF5CB
:100B680012004BC56EF54CC56FF512004BC570F5FC
:100B78004CC571F512004BC574F54CC575F51200DE
:100B88004BC572F54CC573F5120003011A8F12009C
:100B9800030125811200030114911200030114813D
:080BA800120078051200120092
:107DB400000002040208020C021002140218021C41
:107DC400022002240228022C023002340238023C2F
:107DD400024002440248024C025002540258025C1F
:107DE400026002640268026C027002740278027C0F
:107DF400028002840288028C029002940298029CFF
:107E040002A002A402A802AC02B002B402B802BCEE
:107E140002C002C402C802CC02D002D402D802DCDE
:107E240002E002E402E802EC02F002F402F802FBCF
:107E340002FF02030307030B030F03130317031BC0
:107E4400031F03230327032B032F03330337033BAE
:107E5400033F03430347034B034F03530357035B9E
:107E6400035F03630367036B036F03730377037B8E
:107E7400037F03830387038B038F03930397039B7E
:107E8400039F03A303A703AB03AF03B303B703BB6E
:107E940003BF03C303C703CB03CF03D303D703DB5E
:107EA40003DF03E303E703EB03EF03F303F703FB4E
:107EB40003FF03000206020C02120219021F02252C
:107EC400022B02320238023E0244024B0251025794
:107ED400025D0263026902700276027C02820288F9
:107EE400028E0294029A02A002A602AC02B202B866
:107EF40002BD02C302C902CF02D502DA02E002E5E2
:107F040002EB02F102F602FC02010306030C031168
:107F14000316031C03210326032B03300335033A02
:107F2400033F03440349034E03520357035C0360B6
:107F340003650369036E03720376037A037F038385
:107F44000387038B038F03930397039A039E03A270
:107F540003A503A903AC03B003B303B603B903BD7C
:107F640003C003C303C603C803CB03CE03D103D3A7
:107F740003D603D803DA03DD03DF03E103E303E5F8
:107F840003E703E903EB03EC03EE03F003F103F36C
:107F940003F403F503F603F703F903F903FA03FB08
:107FA40003FC03FD03FD03FE03FE03FE03FF03FFC7
:107FB40003FF03FF030408980B00000000240B00D8
:107FC400004608060B9E0B0000420B00007C0A9240
:107FD4000B00000000560B0000580A0000000000CF
:107FE40000380B0000080706050403020100000125
:0C7FF40004030201000001131211100030
:020000040030CA
:090000008C1D45F49FC7FFFFFFB2
:00000001FF
