:040000000DEF00F010
:04000800DBEF01F039
:10001800FF00EEEF02F0AA9AAC984250516E4150A0
:10002800536E51C554F54BC5D9F44CC5DAF4DEC44A
:10003800F6F4DDC4F7F40800F5C451F5FE0EF66ECB
:100048007F0EF76E0800F5505118D8A42EEF00F077
:1000580030EF00F05FEF00F0560E535C050E545879
:10006800D8B039EF00F03BEF00F03FEF00F0000EA2
:10007800406E59EF00F0AB0E535C0A0E5458D8B0DE
:1000880048EF00F04AEF00F04EEF00F0010E406E2E
:1000980059EF00F0100E545CD8B055EF00F057EF50
:1000A80000F04AEF00F0020E406E020E4B26000EE2
:1000B8004C22B8EF00F04BC5D9F44CC5DAF4DEC4D5
:1000C800F6F4DDC4F7F40800F5C451F5FD0EF66E3C
:1000D8007F0EF76E0800F5505118D8A476EF00F09F
:1000E80078EF00F07EEF00F053C52BF554C52CF5E2
:1000F80059EF00F04BC5D9F44CC5DAF4DEC4F6F478
:10010800DDC4F7F40800F5C451F5FC0EF66E7F0E59
:10011800F76E0800F5505118D8A495EF00F097EF46
:1001280000F099EF00F059EF00F04BC5D9F44CC539
:10013800DAF4DEC4F6F4DDC4F7F40800F5C451F5CA
:10014800FB0EF66E7F0EF76E0800F5505118D8A416
:10015800B0EF00F0B2EF00F0B8EF00F0600E4B6EB9
:10016800050E4C6EB8EF00F0FF0E506EAA0E4F6EE3
:1001780054EC04F0F3EC04F0AB881200AB98F0EC0C
:1001880004F04DC5D9F44EC5DAF4DEC4F6F4DDC486
:10019800F7F40800F5C451F5F60EF66E7F0EF76E0B
:1001A8000800F5505118D8A4DCEF00F0DEEF00F09D
:1001B800ECEF00F0F60EF66E7F0EF76E0800F550C5
:1001C800ADEC04F0020E4D26000E4E2249EF01F070
:1001D8004DC5D9F44EC5DAF4DEC4F6F4DDC4F7F43F
:1001E8000800F5C451F5F50EF66E7F0EF76E08009F
:1001F800F5505118D8A403EF01F005EF01F00FEF07
:1002080001F0F50EF66E7F0EF76E0800F550ADECB6
:1002180004F0E6EF00F04DC5D9F44EC5DAF4DEC4BB
:10022800F6F4DDC4F7F40800F5C451F5F40EF66EE3
:100238007F0EF76E0800F5505118D8A426EF01F08C
:1002480028EF01F02AEF01F0E6EF00F04DC5D9F4F0
:100258004EC5DAF4DEC4F6F4DDC4F7F40800F5C4DC
:1002680051F5F30EF66E7F0EF76E0800F550511833
:10027800D8A441EF01F043EF01F049EF01F0680E17
:100288004D6E050E4E6E49EF01F0FF0E506EAA0E30
:100298004F6E3FEC04F0EDEC04F0AC88AA8A120033
:1002A80015C519F3B69E4050D8A45DEF01F05FEF75
:1002B80001F06FEF01F03F50020DA10EF324F66E2E
:1002C8007D0EF420F76E0900F5C427F50A00F5C481
:1002D80028F593EF01F04004D8A475EF01F077EF0B
:1002E80001F087EF01F03F50020DA30EF324F66EE4
:1002F8007E0EF420F76E0900F5C427F50A00F5C450
:1003080028F593EF01F0020E4018D8A48EEF01F003
:1003180090EF01F093EF01F0030E286E2768800E2E
:100328003F18D8A49AEF01F09CEF01F0A0EF01F07C
:10033800010E3E6EB8EF01F03F50D8A4A6EF01F0D1
:10034800A8EF01F0B8EF01F0000E3E6E3D50D8A4C2
:10035800B0EF01F0B2EF01F0B6EF01F0010E3D6E23
:10036800B8EF01F0000E3D6E3E50D8A4BEEF01F08C
:10037800C0EF01F0C3EF01F03F2AC4EF01F03F06E0
:100388003D04D8A4CAEF01F0CCEF01F0D4EF01F09E
:100398002750FF08276E2850D8A0E82A0308286E9F
:1003A80027C54FF528C550F5E4EC03F01200FAC450
:1003B80055F5FBC456F5F6C457F5F7C458F5F8C417
:1003C80059F5F5C45AF5D69EABAEEDEF01F0EFEF57
:1003D80001F0FAEF01F0B6AEF4EF01F0F6EF01F03C
:1003E800FAEF01F0CBEC03F01CEF02F0AAAAFFEF42
:1003F80001F001EF02F00CEF02F0B5AA06EF02F0EF
:1004080008EF02F00CEF02F0FCEC03F01CEF02F036
:10041800ABA811EF02F013EF02F01CEF02F0B6A840
:1004280018EF02F01AEF02F01CEF02F0B2EC03F042
:10043800D68E5AC5F5F459C5F8F458C5F7F457C51A
:10044800F6F456C5FBF455C5FAF41100000E000188
:10045800E86FEA0EF96F030EFA6F000EFB6F050ED8
:10046800F16F410EF06F420EFD6F000EF86F020E35
:10047800F76F000EEF6F020EEE6F240EFF6F010E86
:10048800FE6FB59AB598B59EB59CAA8A1E0E050151
:10049800826F000E836FE5EC04F0AA881E0E05013A
:1004A800826F000E836FE0EC04F0AA9EAA9CC00E37
:1004B8000001FC6F1200000EBE6E000EC06E000E32
:1004C8000401026F000E126F3B0EC66E0F0EC86E4F
:1004D800370E006F0F0E106F000E016F000E116FB8
:1004E800370E036F3F0E136F3F0E046F3F0E146FEE
:1004F800000E0201896F000E886F020E4F6F090E01
:10050800036F000E0401056F000E066F000E076FE3
:10051800000E156F000E166F000E176F1200000EFA
:100528000301D96F000EDA6F000EDB6F000EDC6F6F
:10053800000EDF6F000EE06F000EE56F000EE76F34
:10054800100EEC6F820EEE6F000EEF6F000EF06F64
:100558000F0EF16F000EF26F800EF46F100EF56F34
:10056800000EF66F000EF76F000EF86F000EF96FB1
:100578001F0EFA6F840EF36FB494B590A99412000D
:1005880099EC03F0AA9AAC98680E4D6E050E4E6E63
:10059800600E4B6E050E4C6EFF0E0501836FAA0EA2
:1005A800826F80EC03F09EEC04F003011B51F00B0A
:1005B80004091B6F640E156E000E166E000E176E82
:1005C800000E186EEAEC04F0D68E0400E9EF02F093
:1005D8000DEF00F02C0EF66E090EF76E000EF86E99
:1005E80001EE60F110EE10F00900F5C4EEF4E550EC
:1005F800E150FAE10501816B806B7F6B7E6B01EE48
:1006080001F1420EEE6AE806FDE10401080E5D6F95
:10061800000E5E6F000E5F6F000EF86E0001C4EFF3
:1006280002F003012591000E266F000E276F040EBD
:10063800286F2469AA0E236F24510501846F0301D2
:1006480023511D6E84C51EF5EE0E0501826F090E3D
:10065800836FB3EC04F0000E0501826F000E836F08
:10066800B8EC04F0B798AC88350E0301256F12007A
:1006780003011491000E156F000E166F040E176F0C
:100688001369AA0E126F13510501846F03011251E9
:10069800216E84C522F5840E0501826F010E836FD9
:1006A800C2EC04F0000E0501826F000E836FC7ECE8
:1006B80004F0B698AB88350E0301146F1200D69A71
:1006C800B490D680000E0501826F000E836FDBECBC
:1006D80004F0B990D682000E0501826F000E836F78
:1006E800D6EC04F0BD90D684000E0501826F000E92
:1006F800836FD1EC04F01200030114A586EF03F018
:1007080088EF03F092EF03F0149105018351030180
:10071800136F82C512F3148198EF03F0050183511A
:100728000301136F82C512F312007CEC04F05FEC36
:1007380002F093EC02F014EC04F02AEC02F08AECDC
:1007480004F069EC04F03CEC03F02AEC04F015EC3E
:1007580003F063EC03F0A6EC04F01200B698050170
:1007680076517711D8B4BBEF03F0BDEF03F0CAEFB1
:1007780003F002D8CAEF03F00500FA6E7651FD6E59
:100788007751FE6EF850FF6EFA5012001200B69EB6
:10079800050178517911D8B4D4EF03F0D6EF03F0FE
:1007A800E3EF03F002D8E3EF03F00500FA6E7851A7
:1007B800FD6E7951FE6EF850FF6EFA50120012006D
:1007C800FF0E4F16030E5016030142A9EEEF03F079
:1007D800F0EF03F0F7EF03F0060ED8904F365036DF
:1007E800E82EF1EF03F05050416F4FC540F312006F
:1007F800B59A47504810D8B404EF04F006EF04F057
:1008080013EF04F002D813EF04F00500FA6E475016
:10081800FD6E4850FE6EF850FF6EFA50120012003E
:10082800000E0001B46F070EB56F070EB66F070E06
:10083800B76F070EB86F070EB96F070EBE6F070EBA
:10084800BF6F000EF46E000EF36E1200010E03016E
:10085800206FA00E1F6F000E216F1D69000E1C6F08
:10086800EC0E0501826F090E836FBDEC04F0800E5B
:1008780003011E6F1200030125A545EF04F047EFA1
:1008880004F04FEF04F025915050246F4FC523F327
:10089800258153EF04F05050246F4FC523F3120005
:1008A800030114A55AEF04F05CEF04F064EF04F0C0
:1008B80014915050136F4FC512F3148168EF04F070
:1008C8005050136F4FC512F3120003011969000E3F
:1008D800186F400E1B6FA80E0501826F020E836F02
:1008E800CCEC04F0B69EAB8E800E03011A6F12009A
:1008F800600E0001AD6F000EAF6F000EB36F080EF3
:10090800B16F000EB06FC00EAC6F12009C0E0301E9
:10091800426F000E416F000E406F4C51FC0B0109F5
:100928004C6F1200EA7FE97FE87FE77FEA7FE97F83
:10093800E87FE77FD7AEA3EF04F0F3EF04F00301FD
:1009480014811200550E0001B46FAA0EB46FB48161
:1009580012004F6E4FC5ECF30301F381120082C5FC
:1009680072F583C573F5120082C570F583C571F5FC
:10097800120082C57AF583C57BF5120082C576F52B
:1009880083C577F5120082C574F583C575F5120025
:1009980082C578F583C579F5120082C57CF583C5D3
:1009A8007DF5120082C543F583C544F5120082C562
:1009B80045F583C546F5120082C549F583C54AF554
:1009C800120082C547F583C548F5120003011A8F46
:1009D8001200030125811200030114911200030182
:0809E80014811200120012003C
:107DA000000002040208020C021002140218021C55
:107DB000022002240228022C023002340238023C43
:107DC000024002440248024C025002540258025C33
:107DD000026002640268026C027002740278027C23
:107DE000028002840288028C029002940298029C13
:107DF00002A002A402A802AC02B002B402B802BC03
:107E000002C002C402C802CC02D002D402D802DCF2
:107E100002E002E402E802EC02F002F402F802FBE3
:107E200002FF02030307030B030F03130317031BD4
:107E3000031F03230327032B032F03330337033BC2
:107E4000033F03430347034B034F03530357035BB2
:107E5000035F03630367036B036F03730377037BA2
:107E6000037F03830387038B038F03930397039B92
:107E7000039F03A303A703AB03AF03B303B703BB82
:107E800003BF03C303C703CB03CF03D303D703DB72
:107E900003DF03E303E703EB03EF03F303F703FB62
:107EA00003FF03000206020C02120219021F022540
:107EB000022B02320238023E0244024B02510257A8
:107EC000025D0263026902700276027C028202880D
:107ED000028E0294029A02A002A602AC02B202B87A
:107EE00002BD02C302C902CF02D502DA02E002E5F6
:107EF00002EB02F102F602FC02010306030C03117D
:107F00000316031C03210326032B03300335033A16
:107F1000033F03440349034E03520357035C0360CA
:107F200003650369036E03720376037A037F038399
:107F30000387038B038F03930397039A039E03A284
:107F400003A503A903AC03B003B303B603B903BD90
:107F500003C003C303C603C803CB03CE03D103D3BB
:107F600003D603D803DA03DD03DF03E103E303E50C
:107F700003E703E903EB03EC03EE03F003F103F380
:107F800003F403F503F603F703F903F903FA03FB1C
:107F900003FC03FD03FD03FE03FE03FE03FF03FFDB
:107FA00003FF03FF032A06DA090000000066090048
:107FB0000078063C09E009000084090000D208D4DA
:107FC00009000000009809000054080000000000AB
:107FD000007A0900000807060504030201000001F9
:107FE00004030201000001131211101312111013E7
:107FF000121110131211101312111013121110007C
:020000040030CA
:090000008C1D45F49FC7FFFFFFB2
:00000001FF
