:040000000DEF00F010
:04000800F3EF01F021
:10001800FF00BBEF02F0AA9AAC98040E386017EF05
:1000280000F019EF00F01CEF00F03A6A1EEF00F044
:10003800010E3A6E3828D8A424EF00F026EF00F01D
:1000480028EF00F0040E386E3C503F6E3B50436E74
:100058003FC544F54350FF08436E4450D8A0E82AF2
:100068000F08446EBBEF00F0560E435C050E445873
:10007800D8B041EF00F043EF00F046EF00F0396AE6
:1000880060EF00F0AB0E435C0A0E4458D8B04FEF57
:1000980000F051EF00F055EF00F0010E396E60EFFF
:1000A80000F0100E445CD8B05CEF00F05EEF00F09A
:1000B80051EF00F0020E396E020E4F26000E50224C
:1000C800E1EF00F043C523F544C524F523C53FF50A
:1000D80024C540F5D89040323F32D89040323F3264
:1000E8003FC523F540C524F560EF00F043C521F571
:1000F80044C522F521C53FF522C540F5040E416EE1
:10010800D89040323F32412E84EF00F03FC521F5B0
:1001180040C522F5020E4F26000E5022E1EF00F0F6
:1001280043C511F544C512F5136A146A11C53FF5A4
:1001380012C540F513C541F514C542F5050EAAEFE1
:1001480000F0D8904232413240323F32E82EA5EFDB
:1001580000F03FC511F540C512F541C513F542C57C
:1001680014F5780E4F6E050E506EE1EF00F04FC596
:10017800D9F450C5DAF4DEC4F6F4DDC4F7F40800A7
:10018800F5503F6E406A4050000AD8B4CEEF00F0F8
:10019800E1EF00F03F50100AD8B438EF00F0010A40
:1001A800D8B466EF00F0030AD8B47AEF00F0010A79
:1001B800D8B494EF00F0E1EF00F0FF0E3E6E150E9C
:1001C8003D6EAAEC04F074EC05F0AB88382A1200F6
:1001D8000DC519F3B69E3950D8A4F5EF00F0F7EF26
:1001E80000F007EF01F03750020DB50EF324F66E5C
:1001F8007D0EF420F76E0900F5C41DF50A00F5C45C
:100208001EF52BEF01F03904D8A40DEF01F00FEF24
:1002180001F01FEF01F03750020DB70EF324F66E10
:100228007E0EF420F76E0900F5C41DF50A00F5C42A
:100238001EF52BEF01F0020E3918D8A426EF01F0B5
:1002480028EF01F02BEF01F0030E1E6E1D68800EE3
:100258003718D8A432EF01F034EF01F038EF01F08D
:10026800010E366E4EEF01F03750D8A43EEF01F084
:1002780040EF01F04EEF01F0366A3550D8A447EF51
:1002880001F049EF01F04DEF01F0010E356E4EEF30
:1002980001F0356A3650D8A454EF01F056EF01F05A
:1002A80059EF01F0372A5AEF01F037063504D8A480
:1002B80060EF01F062EF01F06AEF01F01D50FF08F6
:1002C8001D6E1E50D8A0E82A03081E6E1DC53DF5F8
:1002D8001EC53EF568EC04F0120023C59AF524C546
:1002E8009BF505019C6B9D6B9AC588F59BC589F5A7
:1002F8009CC58AF59DC58BF5580E8C6F020E8D6FC7
:10030800000E8E6F000E8F6F85EC02F088C501F528
:1003180089C502F58AC503F58BC504F501C590F5B5
:1003280002C591F503C592F504C593F50B0EA3EF2D
:1003380001F00501D8909333923391339033E82E2E
:100348009DEF01F090C501F591C502F592C503F541
:1003580093C504F501C515F502C516F5165007E154
:10036800740E155CD8B0BBEF01F0BDEF01F0D1EF12
:1003780001F01550906F916B0C0E9027000E912391
:1003880090C596F591C597F5000E97BFFF0E986F2B
:10039800996F010E2B6EF2EF01F08D0E1524946FFC
:1003A800FF0E1620956F94C590F595C591F5070E2B
:1003B800926FD89091339033922FDDEF01F09051E6
:1003C8002D6E2D50800DF3509425906F9051966F9F
:1003D800976B986B996B2D50020F2B6E1200FAC415
:1003E80045F5FBC446F5F6C447F5F7C448F5F8C427
:1003F80049F5F5C44AF5D69EABAE05EF02F007EF16
:1004080002F012EF02F0B6AE0CEF02F00EEF02F0BF
:1004180012EF02F036EC04F034EF02F0ABA817EF5D
:1004280002F019EF02F024EF02F0B6A81EEF02F076
:1004380020EF02F024EF02F01DEC04F034EF02F09C
:10044800AAAA29EF02F02BEF02F034EF02F0B5AAC6
:1004580030EF02F032EF02F034EF02F04FEC04F02C
:10046800D68E4AC5F5F449C5F8F448C5F7F447C52A
:10047800F6F446C5FBF445C5FAF411002C04D8A4DB
:1004880048EF02F04AEF02F04EEF02F02B28266EFA
:1004980075EF02F0030E2C18D8A455EF02F057EFB1
:1004A80002F05CEF02F02B50020F266E75EF02F09F
:1004B800020E2C18D8A463EF02F065EF02F069EF82
:1004C80002F02B04266E75EF02F02C50D8A46FEFC3
:1004D80002F071EF02F075EF02F02BC526F575EF0B
:1004E80002F0E90E2624F66EF76A7F0EF72208005E
:1004F800F5C44BF503011B514B18F00B4B181B6F40
:100508001200000E4B6E000E4C6E000E4D6E000E6B
:100518004E6E050188A193EF02F095EF02F09DEF72
:1005280002F08C514B268D514C228E514D228F5109
:100538004E22D8908C378D378E378F37D8908B33A3
:100548008A3389338833885189118A118B11D8A449
:10055800B0EF02F0B2EF02F08DEF02F04BC588F574
:100568004CC589F54DC58AF54EC58BF512002C0E84
:10057800F66E0A0EF76E000EF86E01EE76F110EECA
:1005880012F00900F5C4EEF4E550E150FAE1EE0E80
:10059800F66E0A0EF76E000EF86E0900F5C44FF5F8
:1005A8000900F5C450F501EE96F10C0EEE6AE80666
:1005B800FDE101EE01F13C0EEE6AE806FDE1040101
:1005C800080E5D6F000E5E6F000E5F6F000EF86E16
:1005D800000147EF03F00001E86BEA0EF96F030E24
:1005E800FA6F000EFB6F050EF16F3B0EF06F420EB7
:1005F800FD6F000EF86F020EF76F000EEF6F020E20
:10060800EE6F240EFF6F010EFE6FB59AB598B59E7A
:10061800B59CAA8A1E0E4B6E000E4C6E66EC05F059
:10062800AA881E0E4B6E000E4C6E61EC05F0AA9E59
:10063800AA9CC00E0001FC6F1200BE6AC06A0401C9
:10064800026B126B3B0EC66E0F0EC86E370E006F34
:100658000F0E106F016B116B370E036F3F0E136F88
:100668003F0E046F3F0E146F0201896B886B020EF8
:100678004F6F090E036F0401056B066B076B156B53
:10068800166B176B120004EC04F0AA9AAC98AB88AE
:10069800D68EFF0E4C6E150E4B6E80EC04F01FECE0
:1006A80005F03A50D8B45BEF03F05DEF03F055EF77
:1006B80003F071EC01F0F5EC04F06BEC05F071EC73
:1006C80001F0F5EC04F0040063EF03F00DEF00F027
:1006D8000301D96BDA6BDB6BDC6BDF6BE06BE56B13
:1006E800E76B100EEC6F820EEE6FEF6BF06B0F0E78
:1006F800F16FF26B800EF46F100EF56FF66BF76BFF
:10070800F86BF96B1F0EFA6F840EF36FB494B59003
:10071800A994120003012591266B276B040E286FFC
:100728002469640E236F24514D6E2351176E4DC5F5
:1007380018F5F20E4B6E0A0E4C6E34EC05F0000EF6
:100748004B6E000E4C6E39EC05F0B798AC88010E74
:100758000301256F120003011491156B166B040E2B
:10076800176F1369640E126F13514D6E1251196E83
:100778004DC51AF5D40E4B6E070E4C6E43EC05F0C2
:10078800000E4B6E000E4C6E48EC05F0B698AB8828
:10079800010E0301146F1200D69AB490D680000E91
:1007A8004B6E000E4C6E5CEC05F0B990D682000ED4
:1007B8004B6E000E4C6E57EC05F0BD90D684000EC3
:1007C8004B6E000E4C6E52EC05F01200AB9871ECBB
:1007D80005F04FC5D9F450C5DAF4DEC4F6F4DDC42B
:1007E800F7F40800F5502EEC05F0FF0E3E6E140EDF
:1007F8003D6E95EC04F06EEC05F0AC88AA8A120008
:1008080001EC05F021EC03F06CEC03F0BFEC04F014
:10081800EFEC02F00CEC05F0E4EC04F0AFEC03F0C4
:10082800D2EC04F08EEC03F0D0EC03F027EC05F0EA
:100838001200B698050166516711D8B426EF04F086
:1008480028EF04F035EF04F002D835EF04F0050086
:10085800FA6E6651FD6E6751FE6EF850FF6EFA50E3
:1008680012001200B69E050168516911D8B43FEF15
:1008780004F041EF04F04EEF04F002D84EEF04F01C
:100888000500FA6E6851FD6E6951FE6EF850FF6EF4
:10089800FA5012001200B59A050172517311D8B4BA
:1008A80058EF04F05AEF04F067EF04F002D867EF4E
:1008B80004F00500FA6E7251FD6E7351FE6EF85029
:1008C800FF6EFA5012001200FF0E3D16030E3E1680
:1008D800030142A972EF04F074EF04F07BEF04F017
:1008E800060ED8903D363E36E82E75EF04F03E50A1
:1008F800416F3DC540F31200030114A586EF04F0D3
:1009080088EF04F090EF04F014914C50136F4BC52E
:1009180012F3148194EF04F04C50136F4BC512F38B
:100928001200030125A59BEF04F09DEF04F0A5EF4D
:1009380004F025913E50246F3DC523F32581A9EF8E
:1009480004F03E50246F3DC523F31200030114A5A3
:10095800B0EF04F0B2EF04F0BAEF04F014913E5097
:10096800136F3DC512F31481BEEF04F03E50136FB0
:100978003DC512F312000001B46B070EB56F070EE8
:10098800B66F070EB76F070EB86F070EB96F070E71
:10099800BE6F070EBF6FF46AF36A1200010E0301FF
:1009A800206FA00E1F6F216B1D691C6BF00E4B6E24
:1009B8000A0E4C6E3EEC05F0800E03011E6F12000D
:1009C80003011969186B400E1B6FD80E4B6E010E90
:1009D8004C6E4DEC05F0B69EAB8E800E03011A6F7F
:1009E800120096C50DF597C50EF598C50FF599C572
:1009F80010F52C6A42EC02F01200600E0001AD6F97
:100A0800AF6BB36B080EB16FB06BC00EAC6F12005A
:100A18009C0E0301426F416B406B4C51FC0B01096A
:100A28004C6F12008005FE7FFD7FFC7FFB7FFE7F01
:100A3800FD7FFC7FFB7FD7AE24EF05F074EF05F058
:100A4800030114811200550E0001B46FAA0EB46F91
:100A5800B48112003D6E3DC5ECF30301F381120031
:100A68004BC562F54CC563F512004BC560F54CC526
:100A780061F512004BC56AF54CC56BF512004BC504
:100A880066F54CC567F512004BC564F54CC565F5B0
:100A980012004BC568F54CC569F512004BC56CF5DD
:100AA8004CC56DF512004BC56EF54CC56FF51200BF
:100AB8004BC570F54CC571F512004BC574F54CC5A6
:100AC80075F512004BC572F54CC573F5120003019C
:100AD8001A8F1200030125811200030114911200DC
:0C0AE800030114811200780512001200B6
:107DB400000002040208020C021002140218021C41
:107DC400022002240228022C023002340238023C2F
:107DD400024002440248024C025002540258025C1F
:107DE400026002640268026C027002740278027C0F
:107DF400028002840288028C029002940298029CFF
:107E040002A002A402A802AC02B002B402B802BCEE
:107E140002C002C402C802CC02D002D402D802DCDE
:107E240002E002E402E802EC02F002F402F802FBCF
:107E340002FF02030307030B030F03130317031BC0
:107E4400031F03230327032B032F03330337033BAE
:107E5400033F03430347034B034F03530357035B9E
:107E6400035F03630367036B036F03730377037B8E
:107E7400037F03830387038B038F03930397039B7E
:107E8400039F03A303A703AB03AF03B303B703BB6E
:107E940003BF03C303C703CB03CF03D303D703DB5E
:107EA40003DF03E303E703EB03EF03F303F703FB4E
:107EB40003FF03000206020C02120219021F02252C
:107EC400022B02320238023E0244024B0251025794
:107ED400025D0263026902700276027C02820288F9
:107EE400028E0294029A02A002A602AC02B202B866
:107EF40002BD02C302C902CF02D502DA02E002E5E2
:107F040002EB02F102F602FC02010306030C031168
:107F14000316031C03210326032B03300335033A02
:107F2400033F03440349034E03520357035C0360B6
:107F340003650369036E03720376037A037F038385
:107F44000387038B038F03930397039A039E03A270
:107F540003A503A903AC03B003B303B603B903BD7C
:107F640003C003C303C603C803CB03CE03D103D3A7
:107F740003D603D803DA03DD03DF03E103E303E5F8
:107F840003E703E903EB03EC03EE03F003F103F36C
:107F940003F403F503F603F703F903F903FA03FB08
:107FA40003FC03FD03FD03FE03FE03FE03FF03FFC7
:107FB40003FF03FF031C07DC0A00000000680A003B
:107FC400005E073E0AE20A0000860A0000C809D6DD
:107FD4000A000000009A0A0000A409000000000042
:107FE400007C0A00000807060504030201000001E2
:0C7FF40004030201000001131211100030
:020000040030CA
:090000008C1D45F49FC7FFFFFFB2
:00000001FF
