:040000000DEF00F010
:04000800D5EF01F03F
:10001800FF0016EF03F04250516E4150536E51C528
:1000280054F54BC5D9F44CC5DAF4DEC4F6F4DDC496
:10003800F7F40800F5C451F5FE0EF66E7F0EF76E64
:100048000800F5505118D8A42CEF00F02EEF00F05E
:100058005DEF00F0560E535C050E5458D8B037EFDC
:1000680000F039EF00F03DEF00F0000E406E57EF62
:1000780000F0AB0E535C0A0E5458D8B046EF00F0AF
:1000880048EF00F04CEF00F0010E406E57EF00F023
:10009800100E545CD8B053EF00F055EF00F048EF65
:1000A80000F0020E406E020E4B26000E4C22B6EFF8
:1000B80000F04BC5D9F44CC5DAF4DEC4F6F4DDC45F
:1000C800F7F40800F5C451F5FD0EF66E7F0EF76ED5
:1000D8000800F5505118D8A474EF00F076EF00F03E
:1000E8007CEF00F053C52BF554C52CF557EF00F005
:1000F8004BC5D9F44CC5DAF4DEC4F6F4DDC4F7F424
:100108000800F5C451F5FC0EF66E7F0EF76E080078
:10011800F5505118D8A493EF00F095EF00F097EF41
:1001280000F057EF00F04BC5D9F44CC5DAF4DEC443
:10013800F6F4DDC4F7F40800F5C451F5FB0EF66ECD
:100148007F0EF76E0800F5505118D8A4AEEF00F0F6
:10015800B0EF00F0B6EF00F0B80E4B6E050E4C6E27
:10016800B6EF00F0FF0E506EAA0E4F6E7CEC04F056
:1001780013EC05F0120010EC05F04DC5D9F44EC58E
:10018800DAF4DEC4F6F4DDC4F7F40800F5C451F57A
:10019800F60EF66E7F0EF76E0800F5505118D8A4CB
:1001A800D8EF00F0DAEF00F0E8EF00F0F60EF66EA8
:1001B8007F0EF76E0800F550CDEC04F0020E4D26C8
:1001C800000E4E2245EF01F04DC5D9F44EC5DAF4C4
:1001D800DEC4F6F4DDC4F7F40800F5C451F5F50EF5
:1001E800F66E7F0EF76E0800F5505118D8A4FFEF91
:1001F80000F001EF01F00BEF01F0F50EF66E7F0E47
:10020800F76E0800F550CDEC04F0E2EF00F04DC5B4
:10021800D9F44EC5DAF4DEC4F6F4DDC4F7F4080008
:10022800F5C451F5F40EF66E7F0EF76E0800F55022
:100238005118D8A422EF01F024EF01F026EF01F0C5
:10024800E2EF00F04DC5D9F44EC5DAF4DEC4F6F499
:10025800DDC4F7F40800F5C451F5F30EF66E7F0E11
:10026800F76E0800F5505118D8A43DEF01F03FEFA4
:1002780001F045EF01F0B00E4D6E050E4E6E45EFE4
:1002880001F0FF0E506EAA0E4F6E67EC04F00DECF5
:1002980005F0120015C519F3B69E4050D8A457EFC3
:1002A80001F059EF01F069EF01F03F50020DA10E86
:1002B800F324F66E7D0EF420F76E0900F5C427F5D9
:1002C8000A00F5C428F58DEF01F04004D8A46FEFBB
:1002D80001F071EF01F081EF01F03F50020DA30E24
:1002E800F324F66E7E0EF420F76E0900F5C427F5A8
:1002F8000A00F5C428F58DEF01F0020E4018D8A4C5
:1003080088EF01F08AEF01F08DEF01F0030E286EFF
:100318002768800E3F18D8A494EF01F096EF01F0FB
:100328009AEF01F0010E3E6EB2EF01F03F50D8A4F3
:10033800A0EF01F0A2EF01F0B2EF01F0000E3E6E67
:100348003D50D8A4AAEF01F0ACEF01F0B0EF01F0F6
:10035800010E3D6EB2EF01F0000E3D6E3E50D8A486
:10036800B8EF01F0BAEF01F0BDEF01F03F2ABEEFA0
:1003780001F03F063D04D8A4C4EF01F0C6EF01F038
:10038800CEEF01F02750FF08276E2850D8A0E82AA2
:100398000308286E27C54FF528C550F50CEC04F066
:1003A8001200FAC455F5FBC456F5F6C457F5F7C460
:1003B80058F5F8C459F5F5C45AF5D69EABAEE7EF33
:1003C80001F0E9EF01F0F4EF01F0B6AEEEEF01F065
:1003D800F0EF01F0F4EF01F0F3EC03F016EF02F0A8
:1003E800AAAAF9EF01F0FBEF01F006EF02F0B5AAB7
:1003F80000EF02F002EF02F006EF02F024EC04F046
:1004080016EF02F0ABA80BEF02F00DEF02F016EFBB
:1004180002F0B6A812EF02F014EF02F016EF02F0A5
:10042800DAEC03F0D68E5AC5F5F459C5F8F458C578
:10043800F7F457C5F6F456C5FBF455C5FAF41100A0
:10044800000E0001E86FEA0EF96F030EFA6F000E56
:10045800FB6F050EF16F410EF06F420EFD6F000E3F
:10046800F86F020EF76F000EEF6F020EEE6F240E9C
:10047800FF6F010EFE6FB59AB598B59EB59CAA8A16
:100488001E0E0501D26F000ED36F05EC05F0AA8889
:100498001E0E0501D26F000ED36F00EC05F0AA9E68
:1004A800AA9CC00E0001FC6F1200000EBE6E000E6A
:1004B800C06E000E0401026F000E126F3B0EC66E76
:1004C8000F0EC86E370E006F0F0E106F000E016F03
:1004D800000E116F370E036F3F0E136F3F0E046F40
:1004E8003F0E146F000E0201896F000E886F020E16
:1004F8004F6F090E036F000E0401056F000E066FA3
:10050800000E076F000E156F000E166F000E176FA6
:100518001200000E0301D96F000EDA6F000EDB6FB8
:10052800000EDC6F000EDF6F000EE06F000EE56F4F
:10053800000EE76F100EEC6F820EEE6F000EEF6F7D
:10054800000EF06F0F0EF16F000EF26F800EF46F59
:10055800100EF56F000EF66F000EF76F000EF86FB5
:10056800000EF96F1F0EFA6F840EF36FB494B590F6
:10057800A9941200EA7FE97FE87FE77FEA7FE97FB5
:10058800E87FE77FF27FF17FF07FEF7FF27FF17FF7
:10059800F07FEF7FF67FF57FF47FF37FFA7FF97FB7
:1005A800F87FF77FFA7FF97FF87FF77FFE7FFD7F7F
:1005B800FC7FFB7FEE7FED7FEC7FEB7FEE7FED7FB7
:1005C800EC7FEB7FF67FF57FF47FF37FFE7FFD7F87
:1005D800FC7FFB7FC1EC03F0A80E4D6E050E4E6E3E
:1005E800A00E4B6E050E4C6EFF0E0501D36FAA0EC2
:1005F800D26FA8EC03F0BEEC04F003011B51F00B22
:1006080004091B6F640E156E000E166E000E176E31
:10061800000E186E0AEC05F0D68E040011EF03F0F8
:100628000DEF00F07C0EF66E050EF76E000EF86EFC
:1006380001EE60F110EE60F00900F5C4EEF4E5504B
:10064800E150FAE10501D16BD06BCF6BCE6B01EEB7
:1006580001F1420EEE6AE806FDE10401080E5D6F45
:10066800000E5E6F000E5F6F000EF86E0001EEEF79
:1006780002F003012591000E266F000E276F040E6D
:10068800286F2469AA0E236F24510501D46F030132
:1006980023511D6ED4C51EF52E0E0501D26F0A0E0C
:1006A800D36FD3EC04F0000E0501D26F000ED36FA8
:1006B800D8EC04F0B798AC88350E0301256F12000A
:1006C80003011491000E156F000E166F040E176FBC
:1006D8001369AA0E126F13510501D46F0301125149
:1006E800216ED4C522F57E0E0501D26F010ED36F9F
:1006F800E2EC04F0000E0501D26F000ED36FE7ECB8
:1007080004F0B698AB88350E0301146F1200D69A20
:10071800B490D680000E0501D26F000ED36FFBECAB
:1007280004F0B990D682000E0501D26F000ED36F87
:10073800F6EC04F0BD90D684000E0501D26F000ED1
:10074800D36FF1EC04F01200030114A5AEEF03F02F
:10075800B0EF03F0BAEF03F014910501D351030190
:10076800136FD2C512F31481C0EF03F00501D35102
:100778000301136FD2C512F31200A4EC04F059EC74
:1007880002F08DEC02F03CEC04F024EC02F0B2EC48
:1007980004F091EC04F064EC03F052EC04F03DEC4E
:1007A80003F08BEC03F0C6EC04F01200B6980501D8
:1007B800C651C711D8B4E3EF03F0E5EF03F0F2EF49
:1007C80003F002D8F2EF03F00500FA6EC651FD6E91
:1007D800C751FE6EF850FF6EFA5012001200B69E16
:1007E8000501C851C911D8B4FCEF03F0FEEF03F0BE
:1007F8000BEF04F002D80BEF04F00500FA6EC851B5
:10080800FD6EC951FE6EF850FF6EFA5012001200CC
:10081800FF0E4F16030E5016030142A916EF04F0FF
:1008280018EF04F01FEF04F0060ED8904F3650363C
:10083800E82E19EF04F05050416F4FC540F31200F5
:10084800B59A47504810D8B42CEF04F02EEF04F0B6
:100858003BEF04F002D83BEF04F00500FA6E475076
:10086800FD6E4850FE6EF850FF6EFA5012001200EE
:10087800000E0001B46F070EB56F070EB66F070EB6
:10088800B76F070EB86F070EB96F070EBE6F070E6A
:10089800BF6F000EF46E000EF36E1200010E03011E
:1008A800206FA00E1F6F000E216F1D69000E1C6FB8
:1008B8002C0E0501D26F0A0ED36FDDEC04F0800E0A
:1008C80003011E6F1200030125A56DEF04F06FEF01
:1008D80004F077EF04F025915050246F4FC523F3AF
:1008E80025817BEF04F05050246F4FC523F312008D
:1008F800030114A582EF04F084EF04F08CEF04F0F8
:1009080014915050136F4FC512F3148190EF04F0F7
:100918005050136F4FC512F3120003011969000EEE
:10092800186F400E1B6F9C0E0501D26F020ED36F1D
:10093800ECEC04F0B69EAB8E800E03011A6F120029
:10094800600E0001AD6F000EAF6F000EB36F080EA2
:10095800B16F000EB06FC00EAC6F12009C0E030199
:10096800426F000E416F000E406F4C51FC0B0109A5
:100978004C6F1200D7AEC3EF04F013EF05F003017C
:1009880014811200550E0001B46FAA0EB46FB48121
:1009980012004F6E4FC5ECF30301F3811200D2C56C
:1009A800C2F5D3C5C3F51200D2C5C0F5D3C5C1F58C
:1009B8001200D2C5CAF5D3C5CBF51200D2C5C6F50B
:1009C800D3C5C7F51200D2C5C4F5D3C5C5F5120005
:1009D800D2C5C8F5D3C5C9F51200D2C5CCF5D3C563
:1009E800CDF51200D2C543F5D3C544F51200D2C5E2
:1009F80045F5D3C546F51200D2C549F5D3C54AF524
:100A08001200D2C547F5D3C548F5120003011A8F65
:100A18001200030125811200030114911200030141
:080A28001481120012001200FB
:107DA000000002040208020C021002140218021C55
:107DB000022002240228022C023002340238023C43
:107DC000024002440248024C025002540258025C33
:107DD000026002640268026C027002740278027C23
:107DE000028002840288028C029002940298029C13
:107DF00002A002A402A802AC02B002B402B802BC03
:107E000002C002C402C802CC02D002D402D802DCF2
:107E100002E002E402E802EC02F002F402F802FBE3
:107E200002FF02030307030B030F03130317031BD4
:107E3000031F03230327032B032F03330337033BC2
:107E4000033F03430347034B034F03530357035BB2
:107E5000035F03630367036B036F03730377037BA2
:107E6000037F03830387038B038F03930397039B92
:107E7000039F03A303A703AB03AF03B303B703BB82
:107E800003BF03C303C703CB03CF03D303D703DB72
:107E900003DF03E303E703EB03EF03F303F703FB62
:107EA00003FF03000206020C02120219021F022540
:107EB000022B02320238023E0244024B02510257A8
:107EC000025D0263026902700276027C028202880D
:107ED000028E0294029A02A002A602AC02B202B87A
:107EE00002BD02C302C902CF02D502DA02E002E5F6
:107EF00002EB02F102F602FC02010306030C03117D
:107F00000316031C03210326032B03300335033A16
:107F1000033F03440349034E03520357035C0360CA
:107F200003650369036E03720376037A037F038399
:107F30000387038B038F03930397039A039E03A284
:107F400003A503A903AC03B003B303B603B903BD90
:107F500003C003C303C603C803CB03CE03D103D3BB
:107F600003D603D803DA03DD03DF03E103E303E50C
:107F700003E703E903EB03EC03EE03F003F103F380
:107F800003F403F503F603F703F903F903FA03FB1C
:107F900003FC03FD03FD03FE03FE03FE03FF03FFDB
:107FA00003FF03FF037A061A0A00000000A6090077
:107FB00000C8067C09200A0000C409000022091438
:107FC0000A00000000D8090000A40800000000001A
:107FD00000BA0900000807060504030201000001B9
:107FE00004030201000001131211101312111013E7
:107FF000121110131211101312111013121110007C
:020000040030CA
:090000008C1D45F49FC7FFFFFFB2
:00000001FF
