:040000000DEF00F010
:04000800F5EF01F01F
:10001800FF00BDEF02F0C098AA9AAC98040E3860B1
:1000280018EF00F01AEF00F01DEF00F03A6A1FEF2A
:1000380000F0010E3A6E3828D8A425EF00F027EF1B
:1000480000F029EF00F0040E386E3C503F6E3B5034
:10005800436E3FC544F54350FF08436E4450D8A053
:10006800E82A0F08446EBCEF00F0560E435C050EFC
:100078004458D8B042EF00F044EF00F047EF00F0EA
:10008800396A61EF00F0AB0E435C0A0E4458D8B0F1
:1000980050EF00F052EF00F056EF00F0010E396E0D
:1000A80061EF00F0100E445CD8B05DEF00F05FEF38
:1000B80000F052EF00F0020E396E020E4F26000ECD
:1000C8005022E2EF00F043C523F544C524F523C5CB
:1000D8003FF524C540F5D89040323F32D8904032A1
:1000E8003F323FC523F540C524F561EF00F043C515
:1000F80021F544C522F521C53FF522C540F5040E7A
:10010800416ED89040323F32412E85EF00F03FC516
:1001180021F540C522F5020E4F26000E5022E2EFCF
:1001280000F043C511F544C512F5136A146A11C5E8
:100138003FF512C540F513C541F514C542F5050E46
:10014800ABEF00F0D8904232413240323F32E82ED5
:10015800A6EF00F03FC511F540C512F541C513F5EE
:1001680042C514F5780E4F6E050E506EE2EF00F0A2
:100178004FC5D9F450C5DAF4DEC4F6F4DDC4F7F49B
:100188000800F5503F6E406A4050000AD8B4CFEFDF
:1001980000F0E2EF00F03F50100AD8B439EF00F059
:1001A800010AD8B467EF00F0030AD8B47BEF00F077
:1001B800010AD8B495EF00F0E2EF00F0FF0E3E6EB2
:1001C800150E3D6EBCEC04F086EC05F0AB88382AC1
:1001D800C08A12000DC519F3B69E3950D8A4F7EF9E
:1001E80000F0F9EF00F009EF01F03750020DB50EFD
:1001F800F324F66E7D0EF420F76E0900F5C41DF5A4
:100208000A00F5C41EF52DEF01F03904D8A40FEF4C
:1002180001F011EF01F021EF01F03750020DB70E98
:10022800F324F66E7E0EF420F76E0900F5C41DF572
:100238000A00F5C41EF52DEF01F0020E3918D8A4F6
:1002480028EF01F02AEF01F02DEF01F0030E1E6EEA
:100258001D68800E3718D8A434EF01F036EF01F08E
:100268003AEF01F0010E366E50EF01F03750D8A486
:1002780040EF01F042EF01F050EF01F0366A3550DF
:10028800D8A449EF01F04BEF01F04FEF01F0010E58
:10029800356E50EF01F0356A3650D8A456EF01F0AC
:1002A80058EF01F05BEF01F0372A5CEF01F03706F9
:1002B8003504D8A462EF01F064EF01F06CEF01F0AF
:1002C8001D50FF081D6E1E50D8A0E82A03081E6E98
:1002D8001DC53DF51EC53EF57AEC04F0120023C598
:1002E8009AF524C59BF505019C6B9D6B9AC588F50D
:1002F8009BC589F59CC58AF59DC58BF5580E8C6FF5
:10030800020E8D6F000E8E6F000E8F6F87EC02F05D
:1003180088C501F589C502F58AC503F58BC504F5BD
:1003280001C590F502C591F503C592F504C593F58D
:100338000B0EA5EF01F00501D8909333923391335A
:100348009033E82E9FEF01F090C501F591C502F5B5
:1003580092C503F593C504F501C515F502C516F553
:10036800165007E1740E155CD8B0BDEF01F0BFEF71
:1003780001F0D3EF01F01550906F916B0C0E9027A0
:10038800000E912390C596F591C597F5000E97BF7D
:10039800FF0E986F996F010E2B6EF4EF01F08D0E22
:1003A8001524946FFF0E1620956F94C590F595C58A
:1003B80091F5070E926FD89091339033922FDFEF1B
:1003C80001F090512D6E2D50800DF3509425906FB3
:1003D8009051966F976B986B996B2D50020F2B6EFF
:1003E8001200FAC445F5FBC446F5F6C447F5F7C450
:1003F80048F5F8C449F5F5C44AF5D69EABAE07EF03
:1004080002F009EF02F014EF02F0B6AE0EEF02F0C0
:1004180010EF02F014EF02F048EC04F036EF02F0AF
:10042800ABA819EF02F01BEF02F026EF02F0B6A816
:1004380020EF02F022EF02F026EF02F02FEC04F09A
:1004480036EF02F0AAAA2BEF02F02DEF02F036EFFA
:1004580002F0B5AA32EF02F034EF02F036EF02F004
:1004680061EC04F0D68E4AC5F5F449C5F8F448C5E0
:10047800F7F447C5F6F446C5FBF445C5FAF4110090
:100488002C04D8A44AEF02F04CEF02F050EF02F02F
:100498002B28266E77EF02F0030E2C18D8A457EFFE
:1004A80002F059EF02F05EEF02F02B50020F266EB9
:1004B80077EF02F0020E2C18D8A465EF02F067EF70
:1004C80002F06BEF02F02B04266E77EF02F02C504F
:1004D800D8A471EF02F073EF02F077EF02F02BC5AA
:1004E80026F577EF02F0E90E2624F66EF76A7F0EFE
:1004F800F7220800F5C44BF503011B514B18F00B0C
:100508004B181B6F1200000E4B6E000E4C6E000E47
:100518004D6E000E4E6E050188A195EF02F097EF23
:1005280002F09FEF02F08C514B268D514C228E51D8
:100538004D228F514E22D8908C378D378E378F377A
:10054800D8908B338A3389338833885189118A113B
:100558008B11D8A4B2EF02F0B4EF02F08FEF02F0E3
:100568004BC588F54CC589F54DC58AF54EC58BF543
:100578001200500EF66E0A0EF76E000EF86E01EEBF
:1005880076F110EE12F00900F5C4EEF4E550E150F2
:10059800FAE1120EF66E0B0EF76E000EF86E0900F9
:1005A800F5C44FF50900F5C450F501EE96F10C0EAF
:1005B800EE6AE806FDE101EE01F13C0EEE6AE8069E
:1005C800FDE10401080E5D6F000E5E6F000E5F6FA7
:1005D800000EF86E0001F1EF02F016EC04F00301D2
:1005E8001B51F00B04091B6F640E0D6E000E0E6E8E
:1005F800000E0F6E000E106EAA9AAC98AB88D68EBD
:10060800FF0E4C6E150E4B6E92EC04F031EC05F0BB
:10061800C08A3A50D8B413EF03F015EF03F00DEF8A
:1006280003F073EC01F007EC05F07DEC05F073ECDA
:1006380001F007EC05F004001BEF03F00DEF00F0EC
:100648000001E86BEA0EF96F030EFA6F000EFB6FFC
:10065800050EF16F3B0EF06F420EFD6F000EF86F46
:10066800020EF76F000EEF6F020EEE6F240EFF6F93
:10067800010EFE6FB59AB598B59EB59CAA8A1E0E56
:100688004B6E000E4C6E78EC05F0AA881E0E4B6E71
:10069800000E4C6E73EC05F0AA9EAA9CC00E0001D9
:1006A800FC6F1200BE6AC06A0401026B126B3B0E3B
:1006B800C66E0F0EC86E370E006F0F0E106F016BEF
:1006C800116B370E036F3F0E136F3F0E046F3F0E13
:1006D800146F0201896B886B020E4F6F090E036F4E
:1006E8000401056B066B076B156B166B176B120015
:1006F8000301D96BDA6BDB6BDC6BDF6BE06BE56BF3
:10070800E76B100EEC6F820EEE6FEF6BF06B0F0E57
:10071800F16FF26B800EF46F100EF56FF66BF76BDE
:10072800F86BF96B1F0EFA6F840EF36FB494B590E3
:10073800A994120003012591266B276B040E286FDC
:100748002469640E236F24514D6E2351176E4DC5D5
:1007580018F5160E4B6E0B0E4C6E46EC05F0000E9F
:100768004B6E000E4C6E4BEC05F0B798AC88010E42
:100778000301256F120003011491156B166B040E0B
:10078800176F1369640E126F13514D6E1251196E63
:100798004DC51AF5C00E4B6E070E4C6E55EC05F0A4
:1007A800000E4B6E000E4C6E5AEC05F0B698AB88F6
:1007B800010E0301146F1200C09AAB9883EC05F088
:1007C8004FC5D9F450C5DAF4DEC4F6F4DDC4F7F445
:1007D8000800F55040EC05F0FF0E3E6E140E3D6E1D
:1007E800A7EC04F080EC05F0C088AC88AA8A120057
:1007F800D69AB490D680000E4B6E000E4C6E6EECFE
:1008080005F0B990D682000E4B6E000E4C6E69EC66
:1008180005F0BD90D684000E4B6E000E4C6E64EC55
:1008280005F0120013EC05F056EC03F07CEC03F035
:10083800D1EC04F024EC03F01EEC05F0F6EC04F027
:10084800BFEC03F0E4EC04F09EEC03F0FCEC03F0E6
:1008580039EC05F01200B698050166516711D8B455
:1008680038EF04F03AEF04F047EF04F002D847EF0E
:1008780004F00500FA6E6651FD6E6751FE6EF85081
:10088800FF6EFA5012001200B69E050168516911F8
:10089800D8B451EF04F053EF04F060EF04F002D83D
:1008A80060EF04F00500FA6E6851FD6E6951FE6E46
:1008B800F850FF6EFA5012001200B59A05017251F5
:1008C8007311D8B46AEF04F06CEF04F079EF04F018
:1008D80002D879EF04F00500FA6E7251FD6E73517B
:1008E800FE6EF850FF6EFA5012001200FF0E3D1611
:1008F800030E3E16030142A984EF04F086EF04F0CC
:100908008DEF04F0060ED8903D363E36E82E87EF80
:1009180004F03E50416F3DC540F31200030114A599
:1009280098EF04F09AEF04F0A2EF04F014914C5001
:10093800136F4BC512F31481A6EF04F04C50136FDC
:100948004BC512F31200030125A5ADEF04F0AFEF7C
:1009580004F0B7EF04F025913E50246F3DC523F312
:100968002581BBEF04F03E50246F3DC523F31200F0
:10097800030114A5C2EF04F0C4EF04F0CCEF04F0B7
:1009880014913E50136F3DC512F31481D0EF04F05B
:100998003E50136F3DC512F312000001B46B070EF1
:1009A800B56F070EB66F070EB76F070EB86F070E55
:1009B800B96F070EBE6F070EBF6FF46AF36A1200B5
:1009C800010E0301206FA00E1F6F216B1D691C6BA8
:1009D800140E4B6E0B0E4C6E50EC05F0800E03019E
:1009E8001E6F120003011969186B400E1B6FDC0E95
:1009F8004B6E010E4C6E5FEC05F0B69EAB8E800E12
:100A080003011A6F120096C50DF597C50EF598C526
:100A18000FF599C510F52C6A44EC02F01200600E2F
:100A28000001AD6FAF6BB36B080EB16FB06BC00E4A
:100A3800AC6F12009C0E0301426F416B406B4C512E
:100A4800FC0B01094C6F12008005FE7FFD7FFC7FC7
:100A5800FB7FFE7FFD7FFC7FFB7FD7AE36EF05F087
:100A680086EF05F0030114811200550E0001B46FE2
:100A7800AA0EB46FB48112003D6E3DC5ECF30301BC
:100A8800F38112004BC562F54CC563F512004BC5E6
:100A980060F54CC561F512004BC56AF54CC56BF5A0
:100AA80012004BC566F54CC567F512004BC564F5D9
:100AB8004CC565F512004BC568F54CC569F51200C3
:100AC8004BC56CF54CC56DF512004BC56EF54CC5A4
:100AD8006FF512004BC570F54CC571F512004BC58A
:100AE80074F54CC575F512004BC572F54CC573F518
:100AF800120003011A8F120003012581120003015D
:100B080014911200030114811200780512001200DA
:107DB400000002040208020C021002140218021C41
:107DC400022002240228022C023002340238023C2F
:107DD400024002440248024C025002540258025C1F
:107DE400026002640268026C027002740278027C0F
:107DF400028002840288028C029002940298029CFF
:107E040002A002A402A802AC02B002B402B802BCEE
:107E140002C002C402C802CC02D002D402D802DCDE
:107E240002E002E402E802EC02F002F402F802FBCF
:107E340002FF02030307030B030F03130317031BC0
:107E4400031F03230327032B032F03330337033BAE
:107E5400033F03430347034B034F03530357035B9E
:107E6400035F03630367036B036F03730377037B8E
:107E7400037F03830387038B038F03930397039B7E
:107E8400039F03A303A703AB03AF03B303B703BB6E
:107E940003BF03C303C703CB03CF03D303D703DB5E
:107EA40003DF03E303E703EB03EF03F303F703FB4E
:107EB40003FF03000206020C02120219021F02252C
:107EC400022B02320238023E0244024B0251025794
:107ED400025D0263026902700276027C02820288F9
:107EE400028E0294029A02A002A602AC02B202B866
:107EF40002BD02C302C902CF02D502DA02E002E5E2
:107F040002EB02F102F602FC02010306030C031168
:107F14000316031C03210326032B03300335033A02
:107F2400033F03440349034E03520357035C0360B6
:107F340003650369036E03720376037A037F038385
:107F44000387038B038F03930397039A039E03A270
:107F540003A503A903AC03B003B303B603B903BD7C
:107F640003C003C303C603C803CB03CE03D103D3A7
:107F740003D603D803DA03DD03DF03E103E303E5F8
:107F840003E703E903EB03EC03EE03F003F103F36C
:107F940003F403F503F603F703F903F903FA03FB08
:107FA40003FC03FD03FD03FE03FE03FE03FF03FFC7
:107FB40003FF03FF033C07000B000000008C0A00D2
:107FC400007E07620A060B0000AA0A0000EC09FA08
:107FD4000A00000000BE0A0000C8090000000000FA
:107FE40000A00A00000807060504030201000001BE
:0C7FF40004030201000001131211100030
:020000040030CA
:090000008C1D45F49FC7FFFFFFB2
:00000001FF
