:040000000DEF00F010
:040008006DEF01F0A7
:10001800FF0029EF02F0AA9AAC98040E446017EF8B
:1000280000F019EF00F01CEF00F0466A1EEF00F038
:10003800010E466E4428D8A424EF00F026EF00F005
:1000480028EF00F0040E446E48504B6E47504F6E38
:100058004BC550F54F50FF084F6E5050D8A0E82AB6
:100068000F08506EBBEF00F0560E4F5C050E50584F
:10007800D8B041EF00F043EF00F046EF00F0456ADA
:1000880060EF00F0AB0E4F5C0A0E5058D8B04FEF3F
:1000980000F051EF00F055EF00F0010E456E60EFF3
:1000A80000F0100E505CD8B05CEF00F05EEF00F08E
:1000B80051EF00F0020E456E020E5926000E5A222C
:1000C800DDEF00F04FC52FF550C530F52FC54BF5C6
:1000D80030C54CF5D8904C324B32D8904C324B321C
:1000E8004BC52FF54CC530F560EF00F04FC52DF529
:1000F80050C52EF52DC54BF52EC54CF5040E4D6E8D
:10010800D8904C324B324D2E84EF00F04BC52DF574
:100118004CC52EF5020E5926000E5A22DDEF00F0CE
:100128004FC519F550C51AF51B6A1C6A19C54BF558
:100138001AC54CF51BC54DF51CC54EF5050EAAEFA5
:1001480000F0D8904E324D324C324B32E82EA5EFAB
:1001580000F04BC519F54CC51AF54DC51BF54EC534
:100168001CF5760E596E050E5A6EDDEF00F0FE0E88
:10017800F66E7F0EF76E0800F5504B6E4C6A4C50C9
:10018800000AD8B4CAEF00F0DDEF00F04B50100AB7
:10019800D8B438EF00F0010AD8B466EF00F0030ACB
:1001A800D8B47AEF00F0010AD8B494EF00F0DDEF8C
:1001B80000F0FF0E4A6E460E496EDFEC03F09EEC2F
:1001C80004F0AB88442A120015C519F3B69E4550B1
:1001D800D8A4F1EF00F0F3EF00F003EF01F0435083
:1001E800020DB50EF324F66E7D0EF420F76E0900AD
:1001F800F5C429F50A00F5C42AF527EF01F04504EE
:10020800D8A409EF01F00BEF01F01BEF01F0435008
:10021800020DB70EF324F66E7E0EF420F76E090079
:10022800F5C429F50A00F5C42AF527EF01F0020EF6
:100238004518D8A422EF01F024EF01F027EF01F0D0
:10024800030E2A6E2968800E4318D8A42EEF01F0F9
:1002580030EF01F034EF01F0010E426E4AEF01F089
:100268004350D8A43AEF01F03CEF01F04AEF01F017
:10027800426A4150D8A443EF01F045EF01F049EF3D
:1002880001F0010E416E4AEF01F0416A4250D8A4D4
:1002980050EF01F052EF01F055EF01F0432A56EF0D
:1002A80001F043064104D8A45CEF01F05EEF01F0D1
:1002B80066EF01F02950FF08296E2A50D8A0E82AD5
:1002C80003082A6E29C549F52AC54AF5B2EC03F098
:1002D8001200FAC451F5FBC452F5F6C453F5F7C43D
:1002E80054F5F8C455F5F5C456F5D69EABAE7FEF78
:1002F80001F081EF01F08CEF01F0B6AE86EF01F06E
:1003080088EF01F08CEF01F080EC03F0AEEF01F024
:10031800ABA891EF01F093EF01F09EEF01F0B6A8C2
:1003280098EF01F09AEF01F09EEF01F067EC03F00F
:10033800AEEF01F0AAAAA3EF01F0A5EF01F0AEEF2E
:1003480001F0B5AAAAEF01F0ACEF01F0AEEF01F0B1
:1003580099EC03F0D68E56C5F5F455C5F8F454C596
:10036800F7F453C5F6F452C5FBF451C5FAF411007D
:10037800AB989BEC04F0FE0EF66E7F0EF76E08004D
:10038800F55058EC04F057C5D9F458C5DAF4DEC472
:10039800F6F4DDC4F7F40800F5C44BF5FB0EF66E71
:1003A8007F0EF76E0800F5504B18D8B4DEEF01F059
:1003B800E0EF01F0E6EF01F0020E5726000E58229A
:1003C800EAEF01F07E0E576E050E586EFF0E4A6E6C
:1003D800460E496ECAEC03F098EC04F0AC88AA8A81
:1003E80012000001E86BEA0EF96F030EFA6F000EB7
:1003F800FB6F050EF16F470EF06F420EFD6F000E9A
:10040800F86F020EF76F000EEF6F020EEE6F240EFC
:10041800FF6F010EFE6FB59AB598B59EB59CAA8A76
:100428001E0E0501866F000E876F90EC04F0AA88F7
:100438001E0E0501866F000E876F8BEC04F0AA9ED6
:10044800AA9CC00E0001FC6F1200820EF66E080E08
:10045800F76E000EF86E01EE76F110EE10F009005E
:10046800F5C4EEF4E550E150FAE1420EF66E090EDD
:10047800F76E000EF86E01EE57F110EE04F0090069
:10048800F5C4EEF4E550E150FAE101EE01F1480E51
:10049800EE6AE806FDE10401080E5D6F000E5E6F6E
:1004A800000E5F6F000EF86E00015BEF02F04EEC7D
:1004B80003F003011B51F00B04091B6F640E156E4A
:1004C800000E166E000E176E000E186EAA9AAC98E3
:1004D800AB88D68EFF0E0501876F460E866F35EC0A
:1004E80003F049EC04F04650D8B47DEF02F07FEFFA
:1004F80002F077EF02F095EC04F0040081EF02F0CF
:100508000DEF00F0BE6AC06A0401026B126B3B0E6D
:10051800C66E0F0EC86E370E006F0F0E106F016B90
:10052800116B370E036F3F0E136F3F0E046F3F0EB4
:10053800146F0201896B886B020E4F6F090E036FEF
:100548000401056B066B076B156B166B176B1200B6
:1005580003012591266B276B040E286F2469640E0E
:10056800236F24510501886F03012351216E88C52B
:1005780022F5480E0501866F090E876F5EEC04F0C0
:10058800000E0501866F000E876F63EC04F0B798C4
:10059800AC88010E0301256F120003011491156B3D
:1005A800166B040E176F1369640E126F1351050151
:1005B800886F03011251256E88C526F5780E05014E
:1005C800866F030E876F6DEC04F0000E0501866FD1
:1005D800000E876F72EC04F0B698AB88010E030129
:1005E800146F12000301D96BDA6BDB6BDC6BDF6B0A
:1005F800E06BE56BE76B100EEC6F820EEE6FEF6B46
:10060800F06B0F0EF16FF26B800EF46F100EF56F3A
:10061800F66BF76BF86BF96B1F0EFA6F840EF36FBE
:10062800B494B590A9941200D69AB490D680000ECE
:100638000501866F000E876F86EC04F0B990D682AC
:10064800000E0501866F000E876F81EC04F0BD90E7
:10065800D684000E0501866F000E876F7CEC04F0CF
:100668001200030114A53BEF03F03DEF03F047EF41
:1006780003F01491050187510301136F86C512F326
:1006880014814DEF03F0050187510301136F86C5EF
:1006980012F312002CEC04F086EC02F0F6EC02F0F7
:1006A80007EC04F0F5EC01F037EC04F01AEC04F078
:1006B800D1EC02F0F4EC03F0ACEC02F018EC03F02F
:1006C80051EC04F01200B698050166516711D8B4D0
:1006D80070EF03F072EF03F07FEF03F002D87FEFC3
:1006E80003F00500FA6E6651FD6E6751FE6EF85014
:1006F800FF6EFA5012001200B69E0501685169118A
:10070800D8B489EF03F08BEF03F098EF03F002D829
:1007180098EF03F00500FA6E6851FD6E6951FE6EA0
:10072800F850FF6EFA5012001200B59A0501725186
:100738007311D8B4A2EF03F0A4EF03F0B1EF03F004
:1007480002D8B1EF03F00500FA6E7251FD6E7351D5
:10075800FE6EF850FF6EFA5012001200FF0E491696
:10076800030E4A16030142A9BCEF03F0BEEF03F0E3
:10077800C5EF03F0060ED89049364A36E82EBFEF8B
:1007880003F04A50416F49C540F31200030125A503
:10079800D0EF03F0D2EF03F0DAEF03F025914A50DF
:1007A800246F49C523F32581DEEF03F04A50246FF7
:1007B80049C523F31200030114A5E5EF03F0E7EFA1
:1007C80003F0EFEF03F014914A50136F49C512F389
:1007D8001481F3EF03F04A50136F49C512F3120066
:1007E800010E0301206FA00E1F6F216B1D691C6B8A
:1007F800460E0501866F090E876F68EC04F0800EBF
:1008080003011E6F12000001B46B070EB56F070ECF
:10081800B66F070EB76F070EB86F070EB96F070EE2
:10082800BE6F070EBF6FF46AF36A120003011969FD
:10083800186B400E1B6FD00E0501866F010E876F77
:1008480077EC04F0B69EAB8E800E03011A6F12008F
:10085800600E0001AD6FAF6BB36B080EB16FB06B7C
:10086800C00EAC6F12009C0E0301426F416B406BCF
:100878004C51FC0B01094C6F1200FE7FFD7FFC7F81
:10088800FB7FFE7FFD7FFC7FFB7FD7AE4EEF04F042
:100898009EEF04F0030114811200550E0001B46F9D
:1008A800AA0EB46FB4811200496E49C5ECF3030176
:1008B800F381120086C562F587C563F5120086C507
:1008C80060F587C561F5120086C56AF587C56BF5C1
:1008D800120086C566F587C567F5120086C564F5FA
:1008E80087C565F5120086C568F587C569F51200E4
:1008F80086C56CF587C56DF5120086C56EF587C58A
:100908006FF5120086C570F587C571F5120086C5AA
:1009180074F587C575F5120086C572F587C573F538
:10092800120003011A8F120003012581120003012E
:10093800149112000301148112007E05760512003D
:0209480012009B
:107DB400000002040208020C021002140218021C41
:107DC400022002240228022C023002340238023C2F
:107DD400024002440248024C025002540258025C1F
:107DE400026002640268026C027002740278027C0F
:107DF400028002840288028C029002940298029CFF
:107E040002A002A402A802AC02B002B402B802BCEE
:107E140002C002C402C802CC02D002D402D802DCDE
:107E240002E002E402E802EC02F002F402F802FBCF
:107E340002FF02030307030B030F03130317031BC0
:107E4400031F03230327032B032F03330337033BAE
:107E5400033F03430347034B034F03530357035B9E
:107E6400035F03630367036B036F03730377037B8E
:107E7400037F03830387038B038F03930397039B7E
:107E8400039F03A303A703AB03AF03B303B703BB6E
:107E940003BF03C303C703CB03CF03D303D703DB5E
:107EA40003DF03E303E703EB03EF03F303F703FB4E
:107EB40003FF03000206020C02120219021F02252C
:107EC400022B02320238023E0244024B0251025794
:107ED400025D0263026902700276027C02820288F9
:107EE400028E0294029A02A002A602AC02B202B866
:107EF40002BD02C302C902CF02D502DA02E002E5E2
:107F040002EB02F102F602FC02010306030C031168
:107F14000316031C03210326032B03300335033A02
:107F2400033F03440349034E03520357035C0360B6
:107F340003650369036E03720376037A037F038385
:107F44000387038B038F03930397039A039E03A270
:107F540003A503A903AC03B003B303B603B903BD7C
:107F640003C003C303C603C803CB03CE03D103D3A7
:107F740003D603D803DA03DD03DF03E103E303E5F8
:107F840003E703E903EB03EC03EE03F003F103F36C
:107F940003F403F503F603F703F903F903FA03FB08
:107FA40003FC03FD03FD03FE03FE03FE03FF03FFC7
:107FB40003FF03FF035805300900000000BC08005C
:107FC40000A205920836090000DA08000034082AE5
:107FD4000900000000EE080000E8070000000000AF
:107FE40000D0080000080706050403020100000190
:0C7FF40004030201000001131211100030
:020000040030CA
:090000008C1D45F49FC7FFFFFFB2
:00000001FF
