:040000000DEF00F010
:0400080011EF02F002
:10001800FF000EEF03F0AA9AAC983C503F6E3B509D
:10002800436E3FC544F54350FF08436E4450D8A083
:10003800E82A0F08446E4FC5D9F450C5DAF4DEC477
:10004800F6F4DDC4F7F40800F5C43FF5FE0EF66ECD
:100058007F0EF76E0800F5503F18D8A436EF00F071
:1000680038EF00F066EF00F0560E435C050E44587A
:10007800D8B041EF00F043EF00F046EF00F03A6AE5
:1000880060EF00F0AB0E435C0A0E4458D8B04FEF57
:1000980000F051EF00F055EF00F0010E3A6E60EFFE
:1000A80000F0100E445CD8B05CEF00F05EEF00F09A
:1000B80051EF00F0020E3A6E020E4F26000E50224B
:1000C80000EF01F04FC5D9F450C5DAF4DEC4F6F4F8
:1000D800DDC4F7F40800F5C43FF5FD0EF66E7F0E9B
:1000E800F76E0800F5503F18D8A47DEF00F07FEFB9
:1000F80000F093EF00F043C525F544C526F525C566
:100108003FF526C540F5D89040323F32D89040326E
:100118003F323FC525F540C526F560EF00F04FC5D5
:10012800D9F450C5DAF4DEC4F6F4DDC4F7F40800F7
:10013800F5C43FF5FC0EF66E7F0EF76E0800F5501D
:100148003F18D8A4AAEF00F0ACEF00F0C6EF00F01B
:1001580043C523F544C524F523C53FF524C540F51B
:10016800040E416ED89040323F32412EB6EF00F077
:100178003FC523F540C524F5020E4F26000E502238
:1001880000EF01F04FC5D9F450C5DAF4DEC4F6F437
:10019800DDC4F7F40800F5C43FF5FB0EF66E7F0EDC
:1001A800F76E0800F5503F18D8A4DDEF00F0DFEF38
:1001B80000F000EF01F015C53FF516C540F517C56D
:1001C80041F518C542F5050EEFEF00F0D890423220
:1001D800413240323F32E82EEAEF00F03FC515F5D4
:1001E80040C516F541C517F542C518F5780E4F6E8E
:1001F800050E506E00EF01F0FF0E3E6EAA0E3D6E2A
:10020800DAEC04F0A8EC05F0AB88120011C519F37C
:10021800B69E3A50D8A413EF01F015EF01F025EF80
:1002280001F03950020DB50EF324F66E7D0EF42060
:10023800F76E0900F5C421F50A00F5C422F549EF67
:1002480001F03A04D8A42BEF01F02DEF01F03DEFB7
:1002580001F03950020DB70EF324F66E7E0EF4202D
:10026800F76E0900F5C421F50A00F5C422F549EF37
:1002780001F0020E3A18D8A444EF01F046EF01F05D
:1002880049EF01F0030E226E2168800E3918D8A4B8
:1002980050EF01F052EF01F056EF01F0010E386E09
:1002A8006CEF01F03950D8A45CEF01F05EEF01F07B
:1002B8006CEF01F0386A3750D8A465EF01F067EFAA
:1002C80001F06BEF01F0010E376E6CEF01F0376A49
:1002D8003850D8A472EF01F074EF01F077EF01F015
:1002E800392A78EF01F039063704D8A47EEF01F0F7
:1002F80080EF01F088EF01F02150FF08216E2250B5
:10030800D8A0E82A0308226E21C53DF522C53EF58E
:1003180098EC04F0120025C505F526C506F5076A10
:10032800086A05C588F506C589F507C58AF508C5AB
:100338008BF5580E05018C6F020E8D6F000E8E6FB7
:10034800000E8F6FA3EC02F088C501F589C502F590
:100358008AC503F58BC504F501C590F502C591F56D
:1003680003C592F504C593F50B0EC1EF01F0050125
:10037800D8909333923391339033E82EBBEF01F04A
:1003880090C501F591C502F592C503F593C504F52D
:1003980001C519F502C51AF51A5007E1740E195C62
:1003A800D8B0D9EF01F0DBEF01F0EFEF01F0195011
:1003B800906F916B0C0E9027000E912390C596F5C7
:1003C80091C597F5000E97BFFF0E986F996F010EB4
:1003D8002D6E10EF02F08D0E1924946FFF0E1A2067
:1003E800956F94C590F595C591F5070E926FD890C5
:1003F80091339033922FFBEF01F090512F6E2F50D5
:10040800800DF3509425906F9051966F976B986B71
:10041800996B2F50020F2D6E1200FAC445F5FBC4DC
:1004280046F5F6C447F5F7C448F5F8C449F5F5C4E8
:100438004AF5D69EABAE23EF02F025EF02F030EF7F
:1004480002F0B6AE2AEF02F02CEF02F030EF02F025
:1004580066EC04F052EF02F0ABA835EF02F037EF8C
:1004680002F042EF02F0B6A83CEF02F03EEF02F0D5
:1004780042EF02F04DEC04F052EF02F0AAAA47EF67
:1004880002F049EF02F052EF02F0B5AA4EEF02F087
:1004980050EF02F052EF02F07FEC04F0D68E4AC51E
:1004A800F5F449C5F8F448C5F7F447C5F6F446C568
:1004B800FBF445C5FAF411002E04D8A466EF02F047
:1004C80068EF02F06CEF02F02D28286E93EF02F02F
:1004D800030E2E18D8A473EF02F075EF02F07AEF2E
:1004E80002F02D50020F286E93EF02F0020E2E1824
:1004F800D8A481EF02F083EF02F087EF02F02D0419
:10050800286E93EF02F02E50D8A48DEF02F08FEFF3
:1005180002F093EF02F02DC528F593EF02F0E90EF3
:100528002824F66EF76A7F0EF7220800F5C44BF50B
:1005380003011B514B18F00B4B181B6F1200000ED8
:100548004B6E000E4C6E000E4D6E000E4E6E050189
:1005580088A1B1EF02F0B3EF02F0BBEF02F08C51CB
:100568004B268D514C228E514D228F514E22D890C0
:100578008C378D378E378F37D8908B338A338933C2
:100588008833885189118A118B11D8A4CEEF02F0D3
:10059800D0EF02F0ABEF02F04BC588F54CC589F5FA
:1005A8004DC58AF54EC58BF51200AB98A5EC05F044
:1005B800FE0E3D6E7F0E3E6E46EC05F0FE0EF66EAC
:1005C8007F0EF76E0800F5C43FF5FB0EF66E7F0E42
:1005D800F76E0800F5503F18D8B4F5EF02F0F7EFC2
:1005E80002F0FEEF02F0020E05017627000E7723D7
:1005F80003EF03F0800E0501766F050E776FFF0E8F
:100608003E6EAA0E3D6EC5EC04F0A2EC05F0AC8877
:10061800AA8A1200A00EF66E0A0EF76E000EF86E89
:1006280001EE76F110EE12F00900F5C4EEF4E55093
:10063800E150FAE1560EF66E0B0EF76E000EF86EEC
:100648000900F5C44FF50900F5C450F501EE96F11F
:100658000A0EEE6AE806FDE101EE01F13C0EEE6AD3
:10066800E806FDE10401080E5D6F000E5E6F000EE6
:100678005F6F000EF86E0001FEEF03F00001E86BFB
:10068800EA0EF96F030EFA6F000EFB6F050EF16F9D
:100698003B0EF06F420EFD6F000EF86F020EF76F03
:1006A800000EEF6F020EEE6F240EFF6F010EFE6F4D
:1006B800B59AB598B59EB59CAA8A1E0E4B6E000ECB
:1006C8004C6E9AEC05F0AA881E0E4B6E000E4C6E0E
:1006D80095EC05F0AA9EAA9CC00E0001FC6F1200C2
:1006E800BE6AC06A0401026B126B3B0EC66E0F0E27
:1006F800C86E370E006F0F0E106F016B116B370E3F
:10070800036F3F0E136F3F0E046F3F0E146F02010D
:10071800896B886B020E4F6F090E036F0401056B1E
:10072800066B076B156B166B176B12000301D96B01
:10073800DA6BDB6BDC6BDF6BE06BE56BE76B100E8A
:10074800EC6F820EEE6FEF6BF06B0F0EF16FF26BCA
:10075800800EF46F100EF56FF66BF76BF86BF96B94
:100768001F0EFA6F840EF36FB494B590A99412001B
:1007780003012591266B276B040E286F2469AA0EA6
:10078800236F24514D6E23511B6E4DC51CF55A0E17
:100798004B6E0B0E4C6E68EC05F0000E4B6E000EA7
:1007A8004C6E6DEC05F0B798AC88350E0301256FDB
:1007B800120003011491156B166B040E176F136961
:1007C800AA0E126F13514D6E12511D6E4DC51EF5B6
:1007D800B20E4B6E050E4C6E77EC05F0000E4B6EAC
:1007E800000E4C6E7CEC05F0B698AB88350E030114
:1007F800146F120034EC04F08FEC01F025EC05F0D6
:10080800AA9AAC98FF0E4C6EAA0E4B6EB0EC04F090
:1008180059EC05F09FEC05F0D68E8FEC01F025EC35
:1008280005F0040011EF04F00DEF00F0D69AB49033
:10083800D680000E4B6E000E4C6E90EC05F0B99011
:10084800D682000E4B6E000E4C6E8BEC05F0BD9000
:10085800D684000E4B6E000E4C6E86EC05F012002E
:1008680031EC05F074EC03F09AEC03F0EFEC04F0D3
:1008780042EC03F03CEC05F014EC05F0DDEC03F081
:1008880002EC05F0BCEC03F01AEC04F061EC05F0A6
:100898001200B698050166516711D8B456EF04F0F6
:1008A80058EF04F065EF04F002D865EF04F0050096
:1008B800FA6E6651FD6E6751FE6EF850FF6EFA5083
:1008C80012001200B69E050168516911D8B46FEF85
:1008D80004F071EF04F07EEF04F002D87EEF04F02C
:1008E8000500FA6E6851FD6E6951FE6EF850FF6E94
:1008F800FA5012001200B59A050172517311D8B45A
:1009080088EF04F08AEF04F097EF04F002D897EF2D
:1009180004F00500FA6E7251FD6E7351FE6EF850C8
:10092800FF6EFA5012001200FF0E3D16030E3E161F
:10093800030142A9A2EF04F0A4EF04F0ABEF04F026
:10094800060ED8903D363E36E82EA5EF04F03E5010
:10095800416F3DC540F31200030114A5B6EF04F042
:10096800B8EF04F0C0EF04F014914C50136F4BC56E
:1009780012F31481C4EF04F04C50136F4BC512F3FB
:100988001200030125A5CBEF04F0CDEF04F0D5EF5D
:1009980004F025913E50246F3DC523F32581D9EFFE
:1009A80004F03E50246F3DC523F31200030114A543
:1009B800E0EF04F0E2EF04F0EAEF04F014913E50A7
:1009C800136F3DC512F31481EEEF04F03E50136F20
:1009D8003DC512F312000001B46B070EB56F070E88
:1009E800B66F070EB76F070EB86F070EB96F070E11
:1009F800BE6F070EBF6FF46AF36A1200010E03019F
:100A0800206FA00E1F6F216B1D691C6B580E4B6E5B
:100A18000B0E4C6E72EC05F0800E03011E6F120077
:100A280003011969186B400E1B6F140E4B6E020EF2
:100A38004C6E81EC05F0B69EAB8E800E03011A6FEA
:100A4800120096C511F597C512F598C513F599C505
:100A580014F52E6A60EC02F01200600E0001AD6F12
:100A6800AF6BB36B080EB16FB06BC00EAC6F1200FA
:100A78009C0E0301426F416B406B4C51FC0B01090A
:100A88004C6F12003DC5F6F43EC5F7F40800F5C4F6
:100A9800ECF30301F38112008005FE7FFD7FFC7FEC
:100AA800FB7FFE7FFD7FFC7FFB7FD7AE5EEF05F00F
:100AB800A8EF05F0030114811200550E0001B46F70
:100AC800AA0EB46FB48112004BC562F54CC563F52C
:100AD80012004BC560F54CC561F512004BC56AF5AF
:100AE8004CC56BF512004BC566F54CC567F5120091
:100AF8004BC564F54CC565F512004BC568F54CC58A
:100B080069F512004BC56CF54CC56DF512004BC567
:100B18006EF54CC56FF512004BC570F54CC571F5F7
:100B280012004BC574F54CC575F512004BC572F52E
:100B38004CC573F5120003011A8F120003012581B9
:100B480012000301149112000301148112007805A8
:040B58001200120075
:107DB400000002040208020C021002140218021C41
:107DC400022002240228022C023002340238023C2F
:107DD400024002440248024C025002540258025C1F
:107DE400026002640268026C027002740278027C0F
:107DF400028002840288028C029002940298029CFF
:107E040002A002A402A802AC02B002B402B802BCEE
:107E140002C002C402C802CC02D002D402D802DCDE
:107E240002E002E402E802EC02F002F402F802FBCF
:107E340002FF02030307030B030F03130317031BC0
:107E4400031F03230327032B032F03330337033BAE
:107E5400033F03430347034B034F03530357035B9E
:107E6400035F03630367036B036F03730377037B8E
:107E7400037F03830387038B038F03930397039B7E
:107E8400039F03A303A703AB03AF03B303B703BB6E
:107E940003BF03C303C703CB03CF03D303D703DB5E
:107EA40003DF03E303E703EB03EF03F303F703FB4E
:107EB40003FF03000206020C02120219021F02252C
:107EC400022B02320238023E0244024B0251025794
:107ED400025D0263026902700276027C02820288F9
:107EE400028E0294029A02A002A602AC02B202B866
:107EF40002BD02C302C902CF02D502DA02E002E5E2
:107F040002EB02F102F602FC02010306030C031168
:107F14000316031C03210326032B03300335033A02
:107F2400033F03440349034E03520357035C0360B6
:107F340003650369036E03720376037A037F038385
:107F44000387038B038F03930397039A039E03A270
:107F540003A503A903AC03B003B303B603B903BD7C
:107F640003C003C303C603C803CB03CE03D103D3A7
:107F740003D603D803DA03DD03DF03E103E303E5F8
:107F840003E703E903EB03EC03EE03F003F103F36C
:107F940003F403F503F603F703F903F903FA03FB08
:107FA40003FC03FD03FD03FE03FE03FE03FF03FFC7
:107FB40003FF03FF037807440B00000000D00A000E
:107FC40000BA07B20A4A0B0000EE0A0000280A3E73
:107FD4000B00000000020B0000040A000000000077
:107FE40000E40A000008070605040302010000017A
:0C7FF40004030201000001131211100030
:020000040030CA
:090000008C1D45F49FC7FFFFFFB2
:00000001FF
