:040000000DEF00F010
:0400080062EF01F0B2
:10001800FF005BEF02F0AA9AAC981A50316E1950A3
:10002800356E31C536F53550FF08356E3650D8A0D7
:10003800E82A0F08366EA9EF00F0560E355C050E5B
:100048003658D8B02AEF00F02CEF00F030EF00F06F
:100058000501756B4CEF00F0AB0E355C0A0E365897
:10006800D8B039EF00F03BEF00F040EF00F0010EA0
:100078000501756F4CEF00F0100E365CD8B047EFF5
:1000880000F049EF00F03BEF00F0020E0501756F3C
:10009800020E0501A327000EA423D2EF00F035C5F8
:1000A80076F536C577F521EE76F1DEC431F5DDC497
:1000B80032F5D89032323132D8903232313231C5BD
:1000C80076F532C577F54CEF00F035C57CF536C5C9
:1000D8007DF521EE7CF1DEC431F5DDC432F5040E88
:1000E800336ED89032323132332E75EF00F031C58D
:1000F8007CF532C57DF54CEF00F035C57EF536C58B
:100108007FF50501806B816B7EC531F57FC532F5C2
:1001180080C533F581C534F5050E98EF00F0D89009
:100128003432333232323132E82E93EF00F031C5B7
:100138007EF532C57FF533C580F534C581F5B20E3D
:10014800A36F050EA46FD2EF00F0A3C5D9F4A4C520
:10015800DAF4DEC431F5DDC432F531C5D9F432C57F
:10016800DAF4DF50336E346A3450000AD8B4BFEF83
:1001780000F0D2EF00F03350100AD8B421EF00F0AD
:10018800010AD8B453EF00F0030AD8B469EF00F0BD
:10019800010AD8B481EF00F0D2EF00F0FF0E306E04
:1001A800150E2F6EBBEC03F06BEC04F0AB8812005D
:1001B80060C519F3B69E05017551D8A4E6EF00F0A5
:1001C800E8EF00F0F8EF00F08251020DC10EF324C1
:1001D800F66E7D0EF420F76E0900F5C473F50A007B
:1001E800F5C474F51CEF01F07505D8A4FEEF00F016
:1001F80000EF01F010EF01F08251020DC30EF3245D
:10020800F66E7E0EF420F76E0900F5C473F50A0049
:10021800F5C474F51CEF01F0020E7519D8A417EF98
:1002280001F019EF01F01CEF01F0030E746F736910
:10023800800E8219D8A423EF01F025EF01F029EFF1
:1002480001F0010E846F3FEF01F08251D8A42FEF27
:1002580001F031EF01F03FEF01F0846B8351D8A436
:1002680038EF01F03AEF01F03EEF01F0010E836F35
:100278003FEF01F0836B8451D8A445EF01F047EFBD
:1002880001F04AEF01F0822B4BEF01F08207830562
:10029800D8A451EF01F053EF01F05BEF01F0735177
:1002A800FF08736F7451D8A0E82A0308746F73C5E8
:1002B8002FF574C530F561EC03F01200FAC437F578
:1002C800FBC438F5F6C439F5F7C43AF5F8C43BF57C
:1002D800F5C43CF5D69EABAE74EF01F076EF01F0B5
:1002E80081EF01F0B6AE7BEF01F07DEF01F081EF19
:1002F80001F049EC03F0A3EF01F0ABA886EF01F0A1
:1003080088EF01F093EF01F0B6A88DEF01F08FEFC1
:1003180001F093EF01F031EC03F0A3EF01F0AAAA8A
:1003280098EF01F09AEF01F0A3EF01F0B5AA9FEF63
:1003380001F0A1EF01F0A3EF01F079EC03F0D68E04
:100348003CC5F5F43BC5F8F43AC5F7F439C5F6F4FD
:1003580038C5FBF437C5FAF41100000000000000AE
:100368000000000000000000000000000000000184
:100378000000000000000000000000000000000075
:100388000000000000000000000000000000000065
:1003980000000000000000000000000000B205108E
:1003A800111213080706050403020100A505A60596
:1003B800A705A8050001E86BEA0EF96F030EFA6FAE
:1003C800000EFB6F050EF16F190EF06F420EFD6FF8
:1003D800000EF86F020EF76F000EEF6F020EEE6F51
:1003E800240EFF6F010EFE6FB59AB598B59EB59CA9
:1003F800AA8A1E0E3D6E000E3E6E5DEC04F0AA88C1
:10040800AA9EAA9CC00E0001FC6F120018EC03F013
:10041800AA9AAC98AB88AB8ED68EFF0E3E6E150EA0
:100428003D6E91EC03F01BEC04F0000E0501776FB4
:10043800000E766F010E756F03011B51F00B0A0950
:100448001B6F0C0E0501606F000E616F000E626F6E
:10045800000E636F62EC04F0040030EF02F00DEF61
:1004680000F0BE6AC06A0401026B126B3B0EC66ED6
:100478000F0EC86E370E006F0F0E106F016B116BE9
:10048800370E036F3F0E136F3F0E046F3F0E146F4E
:100498000201896B886B020E4F6F090E036F04010E
:1004A800056B066B076B156B166B176B1200620EEC
:1004B800F66E030EF76E000EF86E01EE60F110EEA8
:1004C8005AF00900F5C4EEF4E550E150FAE101EE06
:1004D80001F11A0EEE6AE806FDE10401080E5D6FEF
:1004E800000E5E6F000E5F6F000EF86E00010AEFDF
:1004F80002F00301D96BDA6BDB6BDC6BDF6BE06B53
:10050800E56BE76B100EEC6F820EEE6FEF6BF06B26
:100518000F0EF16FF26B800EF46F100EF56FF66B25
:10052800F76BF86BF96B1F0EFA6F840EF36FB494C8
:10053800B590A994120003012591266B276B040E30
:10054800286F2469640E236F24513F6E2351076E70
:100558003FC508F5DE0E3D6E080E3E6E30EC04F029
:10056800000E3D6E000E3E6E35EC04F0B798AC8878
:10057800010E0301256F120003011491156B166B10
:10058800040E176F1369640E126F13513F6E1251E8
:100598000D6E3FC50EF5C20E3D6E050E3E6E3FEC6C
:1005A80004F0000E3D6E000E3E6E44EC04F0B6986A
:1005B800AB88010E0301146F1200AB9868EC04F0CD
:1005C800A3C5D9F4A4C5DAF4DEC431F5DDC432F527
:1005D80031C5D9F432C5DAF4DF502AEC04F0FF0E45
:1005E800306E140E2F6EA6EC03F065EC04F0AC88A8
:1005F800AA8A1200D69AB490D680000E3D6E000EDC
:100608003E6E58EC04F0B990D682000E3D6E000E96
:100618003E6E53EC04F0BD90D684000E3D6E000E85
:100628003E6E4EEC04F0120006EC04F035EC02F0DD
:100638007DEC02F0D0EC03F0DEEC01F011EC04F0FC
:10064800F5EC03F0C0EC02F0E3EC03F09FEC02F0F1
:10065800FEEC02F023EC04F01200B69821502210B0
:10066800D8B439EF03F03BEF03F048EF03F002D8BA
:1006780048EF03F00500FA6E2150FD6E2250FE6E21
:10068800F850FF6EFA5012001200B69E2350241044
:10069800D8B451EF03F053EF03F060EF03F002D842
:1006A80060EF03F00500FA6E2350FD6E2450FE6ED5
:1006B800F850FF6EFA5012001200FF0E2F16030EAC
:1006C8003016030142A96BEF03F06DEF03F074EFEE
:1006D80003F0060ED8902F363036E82E6EEF03F072
:1006E8003050416F2FC540F31200B59A2D502E108F
:1006F800D8B481EF03F083EF03F090EF03F002D852
:1007080090EF03F00500FA6E2D50FD6E2E50FE6E30
:10071800F850FF6EFA5012001200030114A597EF6B
:1007280003F099EF03F0A1EF03F014913E50136F1B
:100738003DC512F31481A5EF03F03E50136F3DC57C
:1007480012F31200030125A5ACEF03F0AEEF03F09E
:10075800B6EF03F025913050246F2FC523F3258180
:10076800BAEF03F03050246F2FC523F312000301B2
:1007780014A5C1EF03F0C3EF03F0CBEF03F014911E
:100788003050136F2FC512F31481CFEF03F03050A0
:10079800136F2FC512F312000001B46B070EB56F6B
:1007A800070EB66F070EB76F070EB86F070EB96F53
:1007B800070EBE6F070EBF6FF46AF36A1200010ED0
:1007C8000301206FA00E1F6F216B1D691C6BDC0ECF
:1007D8003D6E080E3E6E3AEC04F0800E03011E6F6B
:1007E800120003011969186B400E1B6FB80E3D6E9D
:1007F800010E3E6E49EC04F0B69EAB8E800E0301EE
:100808001A6F1200600E0001AD6FAF6BB36B080E6C
:10081800B16FB06BC00EAC6F12009C0E0301426F3B
:10082800416B406B4C51FC0B01094C6F1200D7AE69
:1008380020EF04F06BEF04F0030114811200550E51
:100848000001B46FAA0EB46FB48112002F6E2FC5C9
:10085800ECF30301F38112003DC51DF53EC51EF5FD
:1008680012003DC51BF53EC51CF512003DC525F51A
:100878003EC526F512003DC521F53EC522F51200FC
:100888003DC51FF53EC520F512003DC523F53EC503
:1008980024F512003DC527F53EC528F512003DC5D3
:1008A80029F53EC52AF512003DC52BF53EC52CF5A8
:1008B80012003DC52DF53EC52EF5120003011A8F15
:1008C8001200030125811200030114911200030193
:0808D80014811200120012004D
:107DC000000002040208020C021002140218021C35
:107DD000022002240228022C023002340238023C23
:107DE000024002440248024C025002540258025C13
:107DF000026002640268026C027002740278027C03
:107E0000028002840288028C029002940298029CF2
:107E100002A002A402A802AC02B002B402B802BCE2
:107E200002C002C402C802CC02D002D402D802DCD2
:107E300002E002E402E802EC02F002F402F802FBC3
:107E400002FF02030307030B030F03130317031BB4
:107E5000031F03230327032B032F03330337033BA2
:107E6000033F03430347034B034F03530357035B92
:107E7000035F03630367036B036F03730377037B82
:107E8000037F03830387038B038F03930397039B72
:107E9000039F03A303A703AB03AF03B303B703BB62
:107EA00003BF03C303C703CB03CF03D303D703DB52
:107EB00003DF03E303E703EB03EF03F303F703FB42
:107EC00003FF03000206020C02120219021F022520
:107ED000022B02320238023E0244024B0251025788
:107EE000025D0263026902700276027C02820288ED
:107EF000028E0294029A02A002A602AC02B202B85A
:107F000002BD02C302C902CF02D502DA02E002E5D5
:107F100002EB02F102F602FC02010306030C03115C
:107F20000316031C03210326032B03300335033AF6
:107F3000033F03440349034E03520357035C0360AA
:107F400003650369036E03720376037A037F038379
:107F50000387038B038F03930397039A039E03A264
:107F600003A503A903AC03B003B303B603B903BD70
:107F700003C003C303C603C803CB03CE03D103D39B
:107F800003D603D803DA03DD03DF03E103E303E5EC
:107F900003E703E903EB03EC03EE03F003F103F360
:107FA00003F403F503F603F703F903F903FA03FBFC
:107FB00003FC03FD03FD03FE03FE03FE03FF03FFBB
:107FC00003FF03FF033E05CA08000000006008002D
:107FD0000080053608D00800007E080000EA07C4CB
:107FE000080000000092080000C607000000000022
:0F7FF000007408000000010403020100000100FA
:020000040030CA
:090000008C1D45F49FC7FFFFFFB2
:00000001FF
