:040000000DEF00F010
:040008005FEF01F0B5
:10001800FF0015EF02F0AA9AAC98040E446017EF9F
:1000280000F019EF00F01CEF00F0466A1EEF00F038
:10003800010E466E4428D8A424EF00F026EF00F005
:1000480028EF00F0040E446E48504B6E47504F6E38
:100058004BC550F54F50FF084F6E5050D8A0E82AB6
:100068000F08506EA9EF00F0020E5926000E5A2212
:10007800CFEF00F0560E4F5C050E5058D8B047EF42
:1000880000F049EF00F04CEF00F0456ACFEF00F0C8
:10009800AB0E4F5C0A0E5058D8B055EF00F057EF32
:1000A80000F05BEF00F0010E456ECFEF00F0100E90
:1000B800505CD8B062EF00F064EF00F057EF00F04A
:1000C800020E456ECFEF00F04FC52FF550C530F545
:1000D8002FC54BF530C54CF5040E4D6ED8904C32FB
:1000E8004B324D2E72EF00F04BC52FF54CC530F555
:1000F800020E5926000E5A22CFEF00F04FC519F50F
:1001080050C51AF51B6A1C6A19C54BF51AC54CF57A
:100118001BC54DF51CC54EF5050E98EF00F0D8909F
:100128004E324D324C324B32E82E93EF00F04BC535
:1001380019F54CC51AF54DC51BF54EC51CF5760EBF
:10014800596E050E5A6ECFEF00F059C5D9F45AC54D
:10015800DAF4DEC4F6F4DDC4F7F40800F5504B6EAB
:100168004C6A4C50000AD8B4BCEF00F0CFEF00F056
:100178004B50100AD8B438EF00F0010AD8B43EEF5B
:1001880000F0030AD8B468EF00F0010AD8B482EF8F
:1001980000F0CFEF00F0FF0E4A6EAA0E496ECBECCE
:1001A80003F08EEC04F0AB88442A120015C519F34D
:1001B800B69E4550D8A4E3EF00F0E5EF00F0F5EF68
:1001C80000F04350020DB50EF324F66E7D0EF420B8
:1001D800F76E0900F5C42BF50A00F5C42CF519EFE4
:1001E80001F04504D8A4FBEF00F0FDEF00F00DEF9F
:1001F80001F04350020DB70EF324F66E7E0EF42084
:10020800F76E0900F5C42BF50A00F5C42CF519EFB3
:1002180001F0020E4518D8A414EF01F016EF01F012
:1002280019EF01F0030E2C6E2B68800E4318D8A42A
:1002380020EF01F022EF01F026EF01F0010E426EEF
:100248003CEF01F04350D8A42CEF01F02EEF01F061
:100258003CEF01F0426A4150D8A435EF01F037EF86
:1002680001F03BEF01F0010E416E3CEF01F0416AF5
:100278004250D8A442EF01F044EF01F047EF01F0FB
:10028800432A48EF01F043064104D8A44EEF01F099
:1002980050EF01F058EF01F02B50FF082B6E2C5057
:1002A800D8A0E82A03082C6E2BC549F52CC54AF5B9
:1002B8009EEC03F01200FAC451F5FBC452F5F6C4E3
:1002C80053F5F7C454F5F8C455F5F5C456F5D69E5C
:1002D800ABAE71EF01F073EF01F07EEF01F0B6AE57
:1002E80078EF01F07AEF01F07EEF01F06CEC03F0AB
:1002F800A0EF01F0ABA883EF01F085EF01F090EFDC
:1003080001F0B6A88AEF01F08CEF01F090EF01F050
:1003180053EC03F0A0EF01F0AAAA95EF01F097EFD4
:1003280001F0A0EF01F0B5AA9CEF01F09EEF01F0FB
:10033800A0EF01F085EC03F0D68E56C5F5F455C54F
:10034800F8F454C5F7F453C5F6F452C5FBF451C597
:10035800FAF411000001E86BEA0EF96F030EFA6F68
:10036800000EFB6F050EF16F470EF06F420EFD6F2A
:10037800000EF86F020EF76F000EEF6F020EEE6FB1
:10038800240EFF6F010EFE6FB59AB598B59EB59C09
:10039800AA8A1E0E0501866F000E876F80EC04F096
:1003A800AA881E0E0501866F000E876F7BEC04F08D
:1003B800AA9EAA9CC00E0001FC6F1200AB988BECA1
:1003C80004F0FE0E496E7F0E4A6E2DEC04F0FE0E10
:1003D800F66E7F0EF76E0800F5C44BF5FB0EF66E51
:1003E8007F0EF76E0800F5504B18D8B4FEEF01F0F9
:1003F80000EF02F006EF02F0020E5726000E582218
:100408000AEF02F07E0E576E050E586EFF0E4A6E0A
:10041800AA0E496EB6EC03F088EC04F0AC88AA8A00
:1004280012006E0EF66E080EF76E000EF86E01EEF4
:1004380076F110EE10F00900F5C4EEF4E550E15045
:10044800FAE1220EF66E090EF76E000EF86E01EE56
:1004580057F110EE04F00900F5C4EEF4E550E15050
:10046800FAE101EE01F1480EEE6AE806FDE1040149
:10047800080E5D6F000E5E6F000E5F6F000EF86E67
:10048800000147EF02F03AEC03F003011B51F00BB7
:1004980004091B6F640E156E000E166E000E176EA3
:1004A800000E186EAA9AAC98AB88D68EFF0E05017E
:1004B800876FAA0E866F21EC03F03FEC04F04650DC
:1004C800D8B469EF02F06BEF02F063EF02F085EC4D
:1004D80004F004006DEF02F00DEF00F0BE6AC06A90
:1004E8000401026B126B3B0EC66E0F0EC86E370E00
:1004F800006F0F0E106F016B116B370E036F3F0EFD
:10050800136F3F0E046F3F0E146F0201896B886BE7
:10051800020E4F6F090E036F0401056B066B076B24
:10052800156B166B176B120003012591266B276B51
:10053800040E286F2469AA0E236F24510501886FC1
:1005480003012351236E88C524F5280E0501866F03
:10055800090E876F4EEC04F0000E0501866F000E41
:10056800876F53EC04F0B798AC88350E0301256FFC
:10057800120003011491156B166B040E176F1369A3
:10058800AA0E126F13510501886F03011251276ECD
:1005980088C528F5C40E0501866F030E876F5DECCC
:1005A80004F0000E0501866F000E876F62EC04F000
:1005B800B698AB88350E0301146F12000301D96B8E
:1005C800DA6BDB6BDC6BDF6BE06BE56BE76B100EFC
:1005D800EC6F820EEE6FEF6BF06B0F0EF16FF26B3C
:1005E800800EF46F100EF56FF66BF76BF86BF96B06
:1005F8001F0EFA6F840EF36FB494B590A99412008D
:10060800D69AB490D680000E0501866F000E876FCB
:1006180076EC04F0B990D682000E0501866F000EC4
:10062800876F71EC04F0BD90D684000E0501866FCB
:10063800000E876F6CEC04F01200030114A527EF7D
:1006480003F029EF03F033EF03F01491050187510C
:100658000301136F86C512F3148139EF03F0050106
:1006680087510301136F86C512F3120018EC04F0CA
:1006780072EC02F0E2EC02F0F3EC03F0AEEC01F005
:1006880023EC04F006EC04F0BDEC02F0E0EC03F01F
:1006980098EC02F004EC03F047EC04F01200B69872
:1006A800050166516711D8B45CEF03F05EEF03F003
:1006B8006BEF03F002D86BEF03F00500FA6E66519A
:1006C800FD6E6751FE6EF850FF6EFA501200120070
:1006D800B69E050168516911D8B475EF03F077EF3C
:1006E80003F084EF03F002D884EF03F00500FA6EFC
:1006F8006851FD6E6951FE6EF850FF6EFA50120097
:100708001200B59A050172517311D8B48EEF03F037
:1007180090EF03F09DEF03F002D89DEF03F0050082
:10072800FA6E7251FD6E7351FE6EF850FF6EFA50FC
:1007380012001200FF0E4916030E4A16030142A9C1
:10074800A8EF03F0AAEF03F0B1EF03F0060ED8907C
:1007580049364A36E82EABEF03F04A50416F49C597
:1007680040F31200030125A5BCEF03F0BEEF03F030
:10077800C6EF03F025914A50246F49C523F325811C
:10078800CAEF03F04A50246F49C523F3120003014E
:1007980014A5D1EF03F0D3EF03F0DBEF03F01491CE
:1007A8004A50136F49C512F31481DFEF03F04A5022
:1007B800136F49C512F31200010E0301206FA00E3A
:1007C8001F6F216B1D691C6B260E0501866F090EB4
:1007D800876F58EC04F0800E03011E6F12000001B1
:1007E800B46B070EB56F070EB66F070EB76F070E1F
:1007F800B86F070EB96F070EBE6F070EBF6FF46AAA
:10080800F36A120003011969186B400E1B6FB40ECE
:100818000501866F010E876F67EC04F0B69EAB8EFC
:10082800800E03011A6F1200600E0001AD6FAF6BEE
:10083800B36B080EB16FB06BC00EAC6F12009C0E9C
:100848000301426F416B406B4C51FC0B01094C6F2B
:10085800120049C5F6F44AC5F7F40800F5C4ECF3EC
:100868000301F3811200FE7FFD7FFC7FFB7FFE7F8B
:10087800FD7FFC7FFB7FD7AE44EF04F08EEF04F0E2
:10088800030114811200550E0001B46FAA0EB46F53
:10089800B481120086C562F587C563F5120086C566
:1008A80060F587C561F5120086C56AF587C56BF5E1
:1008B800120086C566F587C567F5120086C564F51A
:1008C80087C565F5120086C568F587C569F5120004
:1008D80086C56CF587C56DF5120086C56EF587C5AA
:1008E8006FF5120086C570F587C571F5120086C5CB
:1008F80074F587C575F5120086C572F587C573F559
:10090800120003011A8F120003012581120003014E
:10091800149112000301148112007E05760512005D
:020928001200BB
:107DB400000002040208020C021002140218021C41
:107DC400022002240228022C023002340238023C2F
:107DD400024002440248024C025002540258025C1F
:107DE400026002640268026C027002740278027C0F
:107DF400028002840288028C029002940298029CFF
:107E040002A002A402A802AC02B002B402B802BCEE
:107E140002C002C402C802CC02D002D402D802DCDE
:107E240002E002E402E802EC02F002F402F802FBCF
:107E340002FF02030307030B030F03130317031BC0
:107E4400031F03230327032B032F03330337033BAE
:107E5400033F03430347034B034F03530357035B9E
:107E6400035F03630367036B036F03730377037B8E
:107E7400037F03830387038B038F03930397039B7E
:107E8400039F03A303A703AB03AF03B303B703BB6E
:107E940003BF03C303C703CB03CF03D303D703DB5E
:107EA40003DF03E303E703EB03EF03F303F703FB4E
:107EB40003FF03000206020C02120219021F02252C
:107EC400022B02320238023E0244024B0251025794
:107ED400025D0263026902700276027C02820288F9
:107EE400028E0294029A02A002A602AC02B202B866
:107EF40002BD02C302C902CF02D502DA02E002E5E2
:107F040002EB02F102F602FC02010306030C031168
:107F14000316031C03210326032B03300335033A02
:107F2400033F03440349034E03520357035C0360B6
:107F340003650369036E03720376037A037F038385
:107F44000387038B038F03930397039A039E03A270
:107F540003A503A903AC03B003B303B603B903BD7C
:107F640003C003C303C603C803CB03CE03D103D3A7
:107F740003D603D803DA03DD03DF03E103E303E5F8
:107F840003E703E903EB03EC03EE03F003F103F36C
:107F940003F403F503F603F703F903F903FA03FB08
:107FA40003FC03FD03FD03FE03FE03FE03FF03FFC7
:107FB40003FF03FF0330051009000000009C0800C4
:107FC400007A057E0816090000BA0800000C080AA9
:107FD4000900000000CE080000C0070000000000F7
:107FE40000B00800000807060504030201000001B0
:0C7FF40004030201000001131211100030
:020000040030CA
:090000008C1D45F49FC7FFFFFFB2
:00000001FF
