:040000000DEF00F010
:0400080071EF01F0A3
:10001800FF00F4EF01F0AA9AAC98040E446017EFC1
:1000280000F019EF00F01CEF00F0466A1EEF00F038
:10003800010E466E4428D8A424EF00F026EF00F005
:1000480028EF00F0040E446E48504B6E47504F6E38
:100058004BC550F54F50FF084F6E5050D8A0E82AB6
:100068000F08506EBBEF00F0560E4F5C050E50584F
:10007800D8B041EF00F043EF00F046EF00F0456ADA
:1000880060EF00F0AB0E4F5C0A0E5058D8B04FEF3F
:1000980000F051EF00F055EF00F0010E456E60EFF3
:1000A80000F0100E505CD8B05CEF00F05EEF00F08E
:1000B80051EF00F0020E456E020E5926000E5A222C
:1000C800E1EF00F04FC52FF550C530F52FC54BF5C2
:1000D80030C54CF5D8904C324B32D8904C324B321C
:1000E8004BC52FF54CC530F560EF00F04FC52DF529
:1000F80050C52EF52DC54BF52EC54CF5040E4D6E8D
:10010800D8904C324B324D2E84EF00F04BC52DF574
:100118004CC52EF5020E5926000E5A22E1EF00F0CA
:100128004FC519F550C51AF51B6A1C6A19C54BF558
:100138001AC54CF51BC54DF51CC54EF5050EAAEFA5
:1001480000F0D8904E324D324C324B32E82EA5EFAB
:1001580000F04BC519F54CC51AF54DC51BF54EC534
:100168001CF5760E596E050E5A6EE1EF00F059C572
:10017800D9F45AC5DAF4DEC4F6F4DDC4F7F408009D
:10018800F5504B6E4C6A4C50000AD8B4CEEF00F0D4
:10019800E1EF00F04B50100AD8B438EF00F0010A34
:1001A800D8B466EF00F0030AD8B47AEF00F0010A79
:1001B800D8B494EF00F0E1EF00F0FF0E4A6E460E5F
:1001C800496EC4EC03F083EC04F0AB88442A1200B7
:1001D80015C519F3B69E4550D8A4F5EF00F0F7EF12
:1001E80000F007EF01F04350020DB50EF324F66E50
:1001F8007D0EF420F76E0900F5C429F50A00F5C450
:100208002AF52BEF01F04504D8A40DEF01F00FEF0C
:1002180001F01FEF01F04350020DB70EF324F66E04
:100228007E0EF420F76E0900F5C429F50A00F5C41E
:100238002AF52BEF01F0020E4518D8A426EF01F09D
:1002480028EF01F02BEF01F0030E2A6E2968800ECB
:100258004318D8A432EF01F034EF01F038EF01F081
:10026800010E426E4EEF01F04350D8A43EEF01F06C
:1002780040EF01F04EEF01F0426A4150D8A447EF39
:1002880001F049EF01F04DEF01F0010E416E4EEF24
:1002980001F0416A4250D8A454EF01F056EF01F042
:1002A80059EF01F0432A5AEF01F043064104D8A45C
:1002B80060EF01F062EF01F06AEF01F02950FF08EA
:1002C800296E2A50D8A0E82A03082A6E29C549F5BC
:1002D8002AC54AF597EC03F01200FAC451F5FBC49D
:1002E80052F5F6C453F5F7C454F5F8C455F5F5C4FA
:1002F80056F5D69EABAE83EF01F085EF01F090EF97
:1003080001F0B6AE8AEF01F08CEF01F090EF01F04A
:1003180065EC03F0B2EF01F0ABA895EF01F097EFB1
:1003280001F0A2EF01F0B6A89CEF01F09EEF01F0FA
:10033800A2EF01F04CEC03F0B2EF01F0AAAAA7EF8C
:1003480001F0A9EF01F0B2EF01F0B5AAAEEF01F0AC
:10035800B0EF01F0B2EF01F07EEC03F0D68E56C597
:10036800F5F455C5F8F454C5F7F453C5F6F452C579
:10037800FBF451C5FAF411000001E86BEA0EF96FBD
:10038800030EFA6F000EFB6F050EF16F470EF06F4C
:10039800420EFD6F000EF86F020EF76F000EEF6F42
:1003A800020EEE6F240EFF6F010EFE6FB59AB59820
:1003B800B59EB59CAA8A1E0E0501866F000E876F32
:1003C80075EC04F0AA881E0E0501866F000E876F73
:1003D80070EC04F0AA9EAA9CC00E0001FC6F1200EB
:1003E8004C0EF66E080EF76E000EF86E01EE76F102
:1003F80010EE10F00900F5C4EEF4E550E150FAE112
:100408000C0EF66E090EF76E000EF86E01EE57F13F
:1004180010EE04F00900F5C4EEF4E550E150FAE1FD
:1004280001EE01F1480EEE6AE806FDE10401080E4E
:100438005D6F000E5E6F000E5F6F000EF86E0001BC
:1004480026EF02F033EC03F003011B51F00B040913
:100458001B6F640E156E000E166E000E176E000EE2
:10046800186EAA9AAC98AB88D68EFF0E0501876FD6
:10047800460E866F1AEC03F02EEC04F04650D8B402
:1004880048EF02F04AEF02F042EF02F07AEC04F093
:1004980004004CEF02F00DEF00F0BE6AC06A0401E0
:1004A800026B126B3B0EC66E0F0EC86E370E006FD6
:1004B8000F0E106F016B116B370E036F3F0E136F2A
:1004C8003F0E046F3F0E146F0201896B886B020E9A
:1004D8004F6F090E036F0401056B066B076B156BF5
:1004E800166B176B120003012591266B276B040E00
:1004F800286F2469640E236F24510501886F030156
:100508002351216E88C522F5120E0501866F090E4A
:10051800876F43EC04F0000E0501866F000E876FAD
:1005280048EC04F0B798AC88010E0301256F12005F
:1005380003011491156B166B040E176F1369640E83
:10054800126F13510501886F03011251256E88C57A
:1005580026F5000E0501866F060E876F52EC04F033
:10056800000E0501866F000E876F57EC04F0B698F1
:10057800AB88010E0301146F12000301D96BDA6B0B
:10058800DB6BDC6BDF6BE06BE56BE76B100EEC6F26
:10059800820EEE6FEF6BF06B0F0EF16FF26B800E49
:1005A800F46F100EF56FF66BF76BF86BF96B1F0EA7
:1005B800FA6F840EF36FB494B590A9941200D69A8A
:1005C800B490D680000E0501866F000E876F6BEC25
:1005D80004F0B990D682000E0501866F000E876F71
:1005E80066EC04F0BD90D684000E0501866F000EFF
:1005F800876F61EC04F01200AB9880EC04F059C5E9
:10060800D9F45AC5DAF4DEC4F6F4DDC4F7F4080008
:10061800F5503DEC04F0FF0E4A6E460E496EAFEC05
:1006280003F07DEC04F0AC88AA8A1200030114A53B
:1006380020EF03F022EF03F02CEF03F014910501F3
:1006480087510301136F86C512F3148132EF03F04B
:10065800050187510301136F86C512F3120011ECCF
:1006680004F051EC02F0C1EC02F0ECEC03F0C0EC49
:1006780001F01CEC04F0FFEC03F09CEC02F0D9EC68
:1006880003F077EC02F0E3EC02F036EC04F0120031
:10069800B698050166516711D8B455EF03F057EFC6
:1006A80003F064EF03F002D864EF03F00500FA6E7C
:1006B8006651FD6E6751FE6EF850FF6EFA501200DB
:1006C8001200B69E050168516911D8B46EEF03F0A7
:1006D80070EF03F07DEF03F002D87DEF03F0050023
:1006E800FA6E6851FD6E6951FE6EF850FF6EFA5051
:1006F80012001200B59A050172517311D8B487EF30
:1007080003F089EF03F096EF03F002D896EF03F0B9
:100718000500FA6E7251FD6E7351FE6EF850FF6E51
:10072800FA5012001200FF0E4916030E4A16030172
:1007380042A9A1EF03F0A3EF03F0AAEF03F0060E1E
:10074800D89049364A36E82EA4EF03F04A50416F54
:1007580049C540F31200030125A5B5EF03F0B7EF33
:1007680003F0BFEF03F025914A50246F49C523F3E6
:100778002581C3EF03F04A50246F49C523F31200C3
:10078800030114A5CAEF03F0CCEF03F0D4EF03F094
:1007980014914A50136F49C512F31481D8EF03F02E
:1007A8004A50136F49C512F31200010E0301206F5E
:1007B800A00E1F6F216B1D691C6B100E0501866F43
:1007C800090E876F4DEC04F0800E03011E6F1200B6
:1007D8000001B46B070EB56F070EB66F070EB76F43
:1007E800070EB86F070EB96F070EBE6F070EBF6F03
:1007F800F46AF36A120003011969186B400E1B6F43
:10080800D80E0501866F010E876F5CEC04F0B69E6A
:10081800AB8E800E03011A6F1200600E0001AD6FDF
:10082800AF6BB36B080EB16FB06BC00EAC6F12003C
:100838009C0E0301426F416B406B4C51FC0B01094C
:100848004C6F1200FE7FFD7FFC7FFB7FFE7FFD7FEC
:10085800FC7FFB7FD7AE33EF04F083EF04F0030196
:1008680014811200550E0001B46FAA0EB46FB48142
:100878001200496E49C5ECF30301F381120086C5E5
:1008880062F587C563F5120086C560F587C561F511
:10089800120086C56AF587C56BF5120086C566F530
:1008A80087C567F5120086C564F587C565F512002A
:1008B80086C568F587C569F5120086C56CF587C5D4
:1008C8006DF5120086C56EF587C56FF5120086C5F1
:1008D80070F587C571F5120086C574F587C575F57D
:1008E800120086C572F587C573F5120003011A8FC9
:1008F8001200030125811200030114911200030163
:0C090800148112007E057605120012001A
:107DB400000002040208020C021002140218021C41
:107DC400022002240228022C023002340238023C2F
:107DD400024002440248024C025002540258025C1F
:107DE400026002640268026C027002740278027C0F
:107DF400028002840288028C029002940298029CFF
:107E040002A002A402A802AC02B002B402B802BCEE
:107E140002C002C402C802CC02D002D402D802DCDE
:107E240002E002E402E802EC02F002F402F802FBCF
:107E340002FF02030307030B030F03130317031BC0
:107E4400031F03230327032B032F03330337033BAE
:107E5400033F03430347034B034F03530357035B9E
:107E6400035F03630367036B036F03730377037B8E
:107E7400037F03830387038B038F03930397039B7E
:107E8400039F03A303A703AB03AF03B303B703BB6E
:107E940003BF03C303C703CB03CF03D303D703DB5E
:107EA40003DF03E303E703EB03EF03F303F703FB4E
:107EB40003FF03000206020C02120219021F02252C
:107EC400022B02320238023E0244024B0251025794
:107ED400025D0263026902700276027C02820288F9
:107EE400028E0294029A02A002A602AC02B202B866
:107EF40002BD02C302C902CF02D502DA02E002E5E2
:107F040002EB02F102F602FC02010306030C031168
:107F14000316031C03210326032B03300335033A02
:107F2400033F03440349034E03520357035C0360B6
:107F340003650369036E03720376037A037F038385
:107F44000387038B038F03930397039A039E03A270
:107F540003A503A903AC03B003B303B603B903BD7C
:107F640003C003C303C603C803CB03CE03D103D3A7
:107F740003D603D803DA03DD03DF03E103E303E5F8
:107F840003E703E903EB03EC03EE03F003F103F36C
:107F940003F403F503F603F703F903F903FA03FB08
:107FA40003FC03FD03FD03FE03FE03FE03FF03FFC7
:107FB40003FF03FF03EE04FA080000000086080034
:107FC4000038055C0800090000A4080000FE07F45E
:107FD4000800000000B8080000B20700000000001C
:107FE400009A0800000807060504030201000001C6
:0C7FF40004030201000001131211100030
:020000040030CA
:090000008C1D45F49FC7FFFFFFB2
:00000001FF
