:040000000DEF00F010
:040008007BEF01F099
:10001800FF0031EF02F0AA9AAC984650496E45505D
:100028004D6E49C54EF54D50FF084D6E4E50D8A047
:10003800E82A0F084E6E57C5D9F458C5DAF4DEC45D
:10004800F6F4DDC4F7F40800F5C449F5FE0EF66EC3
:100058007F0EF76E0800F5504918D8A436EF00F067
:1000680038EF00F066EF00F0560E4D5C050E4E5866
:10007800D8B041EF00F043EF00F046EF00F0446ADB
:1000880060EF00F0AB0E4D5C0A0E4E58D8B04FEF43
:1000980000F051EF00F055EF00F0010E446E60EFF4
:1000A80000F0100E4E5CD8B05CEF00F05EEF00F090
:1000B80051EF00F0020E446E020E5726000E582231
:1000C800ECEF00F057C5D9F458C5DAF4DEC4F6F4FD
:1000D800DDC4F7F40800F5C449F5FD0EF66E7F0E91
:1000E800F76E0800F5504918D8A47DEF00F07FEFAF
:1000F80000F085EF00F04DC52FF54EC530F560EFE7
:1001080000F057C5D9F458C5DAF4DEC4F6F4DDC4F6
:10011800F7F40800F5C449F5FC0EF66E7F0EF76E8D
:100128000800F5504918D8A49CEF00F09EEF00F0A5
:10013800B2EF00F04DC52DF54EC52EF52DC549F58C
:100148002EC54AF5D8904A324932D8904A324932B7
:1001580049C52DF54AC52EF560EF00F057C5D9F40D
:1001680058C5DAF4DEC4F6F4DDC4F7F40800F5C4C3
:1001780049F5FB0EF66E7F0EF76E0800F55049182C
:10018800D8A4C9EF00F0CBEF00F0ECEF00F019C5F0
:1001980049F51AC54AF51BC54BF51CC54CF5030EA8
:1001A800DBEF00F0D8904C324B324A324932E82E1D
:1001B800D6EF00F049C519F54AC51AF54BC51BF528
:1001C8004CC51CF5740E576E050E586EECEF00F01A
:1001D800FF0E486EAA0E476EDEEC03F0A1EC04F0A9
:1001E800AB88120015C519F3B69E4450D8A4FFEF8A
:1001F80000F001EF01F011EF01F04350020DB50ED0
:10020800F324F66E7D0EF420F76E0900F5C429F587
:100218000A00F5C42AF535EF01F04404D8A417EF15
:1002280001F019EF01F029EF01F04350020DB70E6C
:10023800F324F66E7E0EF420F76E0900F5C429F556
:100248000A00F5C42AF535EF01F0020E4418D8A4C7
:1002580030EF01F032EF01F035EF01F0030E2A6EB6
:100268002968800E4318D8A43CEF01F03EEF01F056
:1002780042EF01F0010E426E58EF01F04350D8A44E
:1002880048EF01F04AEF01F058EF01F0426A41509F
:10029800D8A451EF01F053EF01F057EF01F0010E30
:1002A800416E58EF01F0416A4250D8A45EEF01F068
:1002B80060EF01F063EF01F0432A64EF01F04306B9
:1002C8004104D8A46AEF01F06CEF01F074EF01F07B
:1002D8002950FF08296E2A50D8A0E82A03082A6E58
:1002E80029C547F52AC548F5B1EC03F01200FAC450
:1002F8004FF5FBC450F5F6C451F5F7C452F5F8C4F0
:1003080053F5F5C454F5D69EABAE8DEF01F08FEFE3
:1003180001F09AEF01F0B6AE94EF01F096EF01F01C
:100328009AEF01F07FEC03F0BCEF01F0ABA89FEF70
:1003380001F0A1EF01F0ACEF01F0B6A8A6EF01F0D3
:10034800A8EF01F0ACEF01F066EC03F0BCEF01F0B0
:10035800AAAAB1EF01F0B3EF01F0BCEF01F0B5AA22
:10036800B8EF01F0BAEF01F0BCEF01F098EC03F040
:10037800D68E54C5F5F453C5F8F452C5F7F451C5F3
:10038800F6F450C5FBF44FC5FAF411000001E86B10
:10039800EA0EF96F030EFA6F000EFB6F050EF16F90
:1003A800450EF06F420EFD6F000EF86F020EF76FEC
:1003B800000EEF6F020EEE6F240EFF6F010EFE6F40
:1003C800B59AB598B59EB59CAA8A1E0E0501846F8C
:1003D800000E856F93EC04F0AA881E0E0501846F49
:1003E800000E856F8EEC04F0AA9EAA9CC00E000138
:1003F800FC6F1200AB989EEC04F0FE0E476E7F0E69
:10040800486E40EC04F0FE0EF66E7F0EF76E0800A4
:10041800F5C449F5FB0EF66E7F0EF76E0800F55031
:100428004918D8B41AEF02F01CEF02F022EF02F0DC
:10043800020E5526000E562226EF02F07C0E556E4F
:10044800050E566EFF0E486EAA0E476EC9EC03F0F5
:100458009BEC04F0AC88AA8A1200940EF66E080E83
:10046800F76E000EF86E01EE74F110EE10F0090050
:10047800F5C4EEF4E550E150FAE1480EF66E090EC7
:10048800F76E000EF86E01EE55F110EE04F009005B
:10049800F5C4EEF4E550E150FAE101EE01F1460E43
:1004A800EE6AE806FDE10401080E5D6F000E5E6F5E
:1004B800000E5F6F000EF86E0001D3EF02F0BE6A07
:1004C800C06A0401026B126B3B0EC66E0F0EC86E3B
:1004D800370E006F0F0E106F016B116B370E036F25
:1004E8003F0E136F3F0E046F3F0E146F0201896BAE
:1004F800886B020E4F6F090E036F0401056B066BC4
:10050800076B156B166B176B120003012591266B91
:10051800276B040E286F2469AA0E236F2451050146
:10052800866F03012351216E86C522F54E0E050103
:10053800846F090E856F61EC04F0000E0501846F6D
:10054800000E856F66EC04F0B798AC88350E030191
:10055800256F120003011491156B166B040E176FAB
:100568001369AA0E126F13510501866F0301125108
:10057800256E86C526F5FC0E0501846F030E856F72
:1005880070EC04F0000E0501846F000E856F75ECA9
:1005980004F0B698AB88350E0301146F12004DECC9
:1005A80003F0AA9AAC98FF0E0501856FAA0E846F16
:1005B80034EC03F052EC04F003011B51F00B040976
:1005C8001B6F640E156E000E166E000E176E000E71
:1005D800186E98EC04F0D68E0400F0EF02F00DEFE0
:1005E80000F00301D96BDA6BDB6BDC6BDF6BE06B64
:1005F800E56BE76B100EEC6F820EEE6FEF6BF06B36
:100608000F0EF16FF26B800EF46F100EF56FF66B34
:10061800F76BF86BF96B1F0EFA6F840EF36FB494D7
:10062800B590A9941200D69AB490D680000E050110
:10063800846F000E856F89EC04F0B990D682000EA5
:100648000501846F000E856F84EC04F0BD90D6849C
:10065800000E0501846F000E856F7FEC04F0120018
:10066800030114A53AEF03F03CEF03F046EF03F063
:100678001491050185510301136F84C512F3148188
:100688004CEF03F0050185510301136F84C512F384
:1006980012002BEC04F063EC02F0F5EC02F006EC2F
:1006A80004F0CAEC01F036EC04F019EC04F0AEECFE
:1006B80002F0F3EC03F089EC02F017EC03F05AECCB
:1006C80004F01200B698050166516711D8B46FEFAF
:1006D80003F071EF03F07EEF03F002D87EEF03F032
:1006E8000500FA6E6651FD6E6751FE6EF850FF6E9A
:1006F800FA5012001200B69E050168516911D8B46B
:1007080088EF03F08AEF03F097EF03F002D897EF32
:1007180003F00500FA6E6851FD6E6951FE6EF850DF
:10072800FF6EFA5012001200B59A0501725173114A
:10073800D8B4A1EF03F0A3EF03F0B0EF03F002D8B1
:10074800B0EF03F00500FA6E7251FD6E7351FE6E44
:10075800F850FF6EFA5012001200FF0E4716030EF3
:100768004816030142A9BBEF03F0BDEF03F0C4EF45
:1007780003F0060ED89047364836E82EBEEF03F051
:100788004850416F47C540F31200030125A5CFEF3C
:1007980003F0D1EF03F0D9EF03F025914850246F0F
:1007A80047C523F32581DDEF03F04850246F47C583
:1007B80023F31200030114A5E4EF03F0E6EF03F0BE
:1007C800EEEF03F014914850136F47C512F31481EC
:1007D800F2EF03F04850136F47C512F31200010EF1
:1007E8000301206FA00E1F6F216B1D691C6B4C0E3F
:1007F8000501846F090E856F6BEC04F0800E030110
:100808001E6F12000001B46B070EB56F070EB66FAE
:10081800070EB76F070EB86F070EB96F070EBE6FDA
:10082800070EBF6FF46AF36A120003011969186BA7
:10083800400E1B6FEC0E0501846F010E856F7AEC7C
:1008480004F0B69EAB8E800E03011A6F1200600E84
:100858000001AD6FAF6BB36B080EB16FB06BC00E1C
:10086800AC6F12009C0E0301426F416B406B4C5100
:10087800FC0B01094C6F120047C5F6F448C5F7F4A4
:100888000800F5C4ECF30301F3811200FE7FFD7F3D
:10089800FC7FFB7FFE7FFD7FFC7FFB7FD7AE57EFA2
:1008A80004F0A1EF04F0030114811200550E0001B9
:1008B800B46FAA0EB46FB481120084C562F585C501
:1008C80063F5120084C560F585C561F5120084C51D
:1008D8006AF585C56BF5120084C566F585C567F5AB
:1008E800120084C564F585C565F5120084C568F5F0
:1008F80085C569F5120084C56CF585C56DF51200CE
:1009080084C56EF585C56FF5120084C570F585C57B
:1009180071F5120084C559F585C55AF5120084C5CC
:1009280072F585C573F5120003011A8F12000301D1
:100938002581120003011491120003011481120091
:080948007C0574051200120089
:107DB400000002040208020C021002140218021C41
:107DC400022002240228022C023002340238023C2F
:107DD400024002440248024C025002540258025C1F
:107DE400026002640268026C027002740278027C0F
:107DF400028002840288028C029002940298029CFF
:107E040002A002A402A802AC02B002B402B802BCEE
:107E140002C002C402C802CC02D002D402D802DCDE
:107E240002E002E402E802EC02F002F402F802FBCF
:107E340002FF02030307030B030F03130317031BC0
:107E4400031F03230327032B032F03330337033BAE
:107E5400033F03430347034B034F03530357035B9E
:107E6400035F03630367036B036F03730377037B8E
:107E7400037F03830387038B038F03930397039B7E
:107E8400039F03A303A703AB03AF03B303B703BB6E
:107E940003BF03C303C703CB03CF03D303D703DB5E
:107EA40003DF03E303E703EB03EF03F303F703FB4E
:107EB40003FF03000206020C02120219021F02252C
:107EC400022B02320238023E0244024B0251025794
:107ED400025D0263026902700276027C02820288F9
:107EE400028E0294029A02A002A602AC02B202B866
:107EF40002BD02C302C902CF02D502DA02E002E5E2
:107F040002EB02F102F602FC02010306030C031168
:107F14000316031C03210326032B03300335033A02
:107F2400033F03440349034E03520357035C0360B6
:107F340003650369036E03720376037A037F038385
:107F44000387038B038F03930397039A039E03A270
:107F540003A503A903AC03B003B303B603B903BD7C
:107F640003C003C303C603C803CB03CE03D103D3A7
:107F740003D603D803DA03DD03DF03E103E303E5F8
:107F840003E703E903EB03EC03EE03F003F103F36C
:107F940003F403F503F603F703F903F903FA03FB08
:107FA40003FC03FD03FD03FE03FE03FE03FF03FFC7
:107FB40003FF03FF031205360900000000C2080096
:107FC400005C05A4083C090000E008000032083009
:107FD4000900000000F4080000E6070000000000AB
:107FE40000D608000008070605040302010000018A
:0C7FF40004030201000001131211100030
:020000040030CA
:090000008C1D45F49FC7FFFFFFB2
:00000001FF
